:020000040800F2
:100000009811002035020008C7630008FD58000859
:10001000C5630008152F00088B6D00080000000064
:10002000000000000000000000000000E166000881
:100030005930000800000000DF6600089D670008D6
:100040004F0200084F0200084F0200084F0200084C
:100050004F0200084F0200084F0200084F0200083C
:100060004F0200084F0200084F0200084F0200082C
:100070004F0200084F0200084F0200084F0200081C
:100080004F0200084F0200084F0200084F0200080C
:100090004F0200084F0200084F0200084F020008FC
:1000A0004F0200084F0200084F0200084F020008EC
:1000B0004F020008356900084F0200084F0200088F
:1000C0004F0200084F0200084F0200084F020008CC
:1000D0004F0200084F0200084F0200084F020008BC
:1000E0004F0200084F0200084F02000800F002F81B
:1000F00000F090F80AA090E8000C82448344AAF132
:100100000107DA4501D100F085F8AFF2090EBAE82F
:100110000F0013F0010F18BFFB1A43F0010318473B
:10012000D87A0000F87A0000103A24BF78C878C165
:10013000FAD8520724BF30C830C144BF04680C60ED
:10014000704700000023002400250026103A28BF35
:1001500078C1FBD8520728BF30C148BF0B60704739
:100160006E2900F0AD83702900F01D87662907F025
:10017000FC82652907F0F982672907F0F682612978
:1001800007F0F58203681B0A28BF41F08001692946
:1001900000F00A81642900F00781752900F00481CC
:1001A0006F2900F0AA86782900F0E986E92900F095
:1001B0004586E42900F04286F52900F03F86EF29C4
:1001C00000F0A786F82900F0E8860368DB0928BF5D
:1001D00041F08001632900F0C685732900F0CB85CA
:1001E000E32901F00181F32901F006810020704725
:1001F0001FB500F0E3FE04000020002106F006FF1A
:10020000401C60600020002106F0EAFEE0601FBD97
:1002100010B510BD01F08AF91146FFF7E9FF06F0AD
:10022000B9FE01F0B1F903B4FFF7F2FF03BC01F02E
:10023000F5F900000948804709480047FEE7FEE756
:10024000FEE7FEE7FEE7FEE7FEE7FEE7FEE7FEE786
:1002500004480549054A064B70470000316900080B
:10026000ED000008980B002098110020980D002048
:10027000980D0020B2F120030AD5C2F1200320FA24
:1002800002F001FA03F321FA02F140EA0300704799
:1002900021FA03F04FF00001704700007CB51D46C5
:1002A00016460C00009001D02044401E074B7B44B2
:1002B0002A4669460190304600F02BFD05461CB1E8
:1002C0000020694600F038FD28467CBD910A0000F8
:1002D0000FB47CB50C0009AA009001D02044401E48
:1002E000084B7B4469460190089800F012FD0546D2
:1002F0001CB10020694600F01FFD28467CBC5DF85B
:1003000014FB00005D0A000070B5044685690068B2
:10031000C10601D5302600E02026C00707D070BDF9
:10032000D4E9012130469047206A401C20626D1EAE
:10033000F6D570BD70B5044685690078C00707D151
:1003400070BDD4E9012120209047206A401C206222
:100350006D1EF6D570BD70B50C460546012A05D058
:100360002878800600D5EA69002302E0012305E031
:100370005B1C934202D2E05C0028F9D1A869E61820
:10038000C01AA861286A184428622846FFF7BCFFF3
:1003900004E0D5E9012114F8010B9047B442F8D3E9
:1003A0002846FFF7C7FF70BD2DE9F041064600243F
:1003B00010687529314616A510D000F016FA0028ED
:1003C00002DA404213A507E031688A0701D512A579
:1003D00002E0490704D511A5012401E000F00EFA5E
:1003E00000210A2206F1240709E0B0FBF2FCB0FB71
:1003F000F2F302FB1C00303078541846491C0028E8
:10040000F3D123462A463046BDE8F04100F0FFB95B
:10041000000000002D0000002B0000002000000064
:100420002DE9F05F894604464FF0000ADFF874B109
:10043000FB44C0F820A02046E1688847002874D01B
:10044000252806D0D4E901219047206A401C20626B
:10045000F1E700265F462046E168884720280546E8
:1004600007DB312D05D2781910F8200C08B10643AE
:10047000F1E7B00701D526F00406C4F81CA0002758
:10048000C4F818A02A2D09D0284606F0C3FC38B3BA
:1004900004EB8708303DC8F8185019E059F8041BE0
:1004A000204604EB87029161E1688847012F0546E9
:1004B00018D1E069002820DA26F020061DE0D8F8DF
:1004C000180000EB800005EB40003038C8F8180039
:1004D0002046E1688847054606F09CFC0028EED1DE
:1004E000012F0AD02E2D08D12046E16888477F1CB5
:1004F0000546022F46F02006C4DBA069002803DA77
:10050000404246F00106A061F00701D026F0100637
:100510006C2D0BD0682D09D04C2D39D06A2D35D0DB
:10052000742D35D07A2D33D016E038E0E1682F46AF
:1005300020468847B842054609D16C2F26D04FF493
:100540008060E168064320468847054604E06C2F3A
:100550001AD04FF4807006430DB3A5F1410019285D
:1005600002D8203546F400664A46294620462660D1
:100570004E46FFF7F5FD80B101280BD0F61D26F0A1
:10058000070000F1080956E74020E4E78020D8E79B
:100590000020D6E706F104094DE7284652E7206A15
:1005A000BDE8F09F9476000040EA010310B59B0778
:1005B0000FD1042A0DD310C808C9121F9C42F8D0CD
:1005C00020BA19BA884201D9012010BD4FF0FF307E
:1005D00010BD1AB1D30703D0521C07E0002010BD94
:1005E00010F8013B11F8014B1B1B07D110F8013B20
:1005F00011F8014B1B1B01D1921EF1D1184610BD01
:1006000010B5431C02E010F8011B71B18107FAD14B
:100610004FF0013202C88C1A8C4314EAC211F9D08F
:10062000C01A0A0603D0C01E10BDC01A10BD0A04AD
:1006300001D0801E10BD0902FCD0401E10BD032A4F
:1006400040F2308010F0030C00F0158011F8013BEF
:10065000BCF1020F624498BF11F801CB00F8013BD6
:1006600038BF11F8013BA2F1040298BF00F801CB9A
:1006700038BF00F8013B11F0030300F02580083A71
:10068000C0F0088051F8043B083A51F804CBA0E8C8
:100690000810F5E7121D5CBF51F8043B40F8043B1D
:1006A000AFF30080D20724BF11F8013B11F801CB52
:1006B00048BF11F8012B24BF00F8013B00F801CB23
:1006C00048BF00F8012B704710B5203AC0F00B80EE
:1006D000B1E81850203AA0E81850B1E81850A0E846
:1006E0001850BFF4F5AF5FEA027C24BFB1E81850A0
:1006F000A0E8185044BF18C918C0BDE810405FEA10
:10070000827C24BF51F8043B40F8043B08BF70478B
:10071000D20728BF31F8023B48BF11F8012B28BF90
:1007200020F8023B48BF00F8012B704702F0FF039E
:1007300043EA032242EA024200F002B84FF000020C
:100740000429C0F0128010F0030C00F01B80CCF1E3
:10075000040CBCF1020F18BF00F8012BA8BF20F851
:10076000022BA1EB0C0100F00DB85FEAC17C24BFA5
:1007700000F8012B00F8012B48BF00F8012B70474F
:100780004FF0000200B5134694469646203922BF2A
:10079000A0E80C50A0E80C50B1F12001BFF4F7AF75
:1007A000090728BFA0E80C5048BF0CC05DF804EB57
:1007B000890028BF40F8042B08BF704748BF20F8C5
:1007C000022B11F0804F18BF00F8012B70477047C3
:1007D0007047704710B500F0F5FB006810BD10B50C
:1007E000044600F0EFFB046010BD09684A0501D51E
:1007F00040B27047C905FCD500B2704709684A0588
:1008000001D5C0B27047C905FCD580B270472DE94B
:10081000F0470D4699469246044600F124080168C7
:10082000880604D5E06921F01001216000E0012074
:10083000A84201DD471B00E00027A1697A1902EBFD
:100840000900081AA0612078C00602D42046FFF7EC
:100850005BFD002608E0D4E901211AF80600904764
:10086000206A401C761C20624E45F4DB2078C006CE
:100870000AD52046FFF748FD06E0D4E901213020E3
:100880009047206A401C2062381EA7F10107F4DC63
:1008900007E0D4E9012118F805009047206A401CC0
:1008A0002062281EA5F10105F3DC2046FFF742FD7A
:1008B0002078000602D50220BDE8F0870120FBE782
:1008C00011680268006A530501D508700AE0D30573
:1008D00001D5088006E0130603D5C217C1E900025E
:1008E00000E008600120704770472DE9FF4F0C467B
:1008F0001E464FF0FF378BB0D2E90001DDF8608073
:100900000A908A46C1F30A5505B93D4600210846BA
:100910004FF00000BAF1000F00F4400005DA00EBE0
:1009200080004FF4400101EA50004FEA9059B9F1BC
:10093000010F00DDB9460A9850EA4A000ED044F68D
:100940001050A5F2FF3545432F14B8F1000F1ED00B
:100950007542291E1EDDC9F100021CE0B8F1010F2D
:100960004FF0000001D0302103E0F24305E02154B4
:10097000401CB042FBDB30460022002121540B9981
:10098000C1F80880C1E900200FB0BDE8F08FBD1BA1
:100990006D1CDEE74A4600DA694206A800F030FD29
:1009A00006AB93E8070003AB83E8070050460A99BB
:1009B00000F03BFE8DE80700A0F500501F380090C6
:1009C0000398002D0ADD42F21F014A460844002325
:1009D00003A90390684601F0A4F809E0A0F50050CF
:1009E0004A461F38002303A90390684601F0AEF879
:1009F0008DE807000004000C03D04FF0FF304108E1
:100A000000E01046B8F1000F03D000220092154616
:100A10001EE0751E05D400F0D9FA303262556D1E05
:100A2000F9D5B3460122084302D000227F1C04E01E
:100A30002078302801D100227F1E002A099784D017
:100A40001DE0112D07DA00F0C1FA303262556D1C3D
:100A500050EA0102F5D1084302D00098C8B10EE077
:100A60000021681E05E0235C625C63542254401E32
:100A7000491C8142F7DBAB46A81B401E09900020B1
:100A800004F80B000B98099AC0F80880C0E9002B05
:100A90007AE711264FF0000857E72DE9F04F884616
:100AA0000446D21D22F0070191B0D1E90001CDE941
:100AB0000A0106F06BF902460B98C00F01D02D20F9
:100AC00007E02068810701D52B2002E0202101EA00
:100AD000C000032A099001D0072A05DB03464146DE
:100AE000204600F037FC0BE12078800601D5E06954
:100AF00000E00620B8F1650F814606D0B8F1660F18
:100B000018D0B8F1670F70D131E00020B9F1110FA2
:100B1000009001DB112301E009F101030AAA01A9F8
:100B20000CA8FFF7E2FEDDE90C70002609F10105D3
:100B3000834647E001204B4600904FF000470AAA49
:100B400001A90CA8FFF7D1FEDDE90DB00C995D46B7
:100B5000002610B909F101000D18B9EB050003D406
:100B6000C0F1FF3609F10105A5EB09002BE0B9F151
:100B7000010F01DA4FF001090020B9F1110F0090C7
:100B8000484601DD112300E003460AAA01A90CA88A
:100B9000FFF7ABFEDDE90C704D460026834620785A
:100BA00000070AD4AB4500DA5D4601A8012D04DD3B
:100BB000411911F8011C302907D04F4502DA17F10D
:100BC000040F04DA012082460FE06D1EEEE7002FCD
:100BD00002DCED1B3E4403E0781CA84200DD7D1CD6
:100BE000B81B00F1010A4FF000472078000703D43A
:100BF000AA4501DB4FF0FF3A0021B7F1004F0DF19C
:100C000043088DF8431024D002202B23002F01DA53
:100C10007F422D230A21021EA0F1010000DC5FB1FA
:100C200097FBF1FC97FBF1F201FB1C7C17460CF1E2
:100C3000300C08F801CDEEE7A8F10100037021881F
:100C4000090501D5452100E06521A0F1010800F862
:100C5000011C09980FA9A1EB0807FF1D00B1012095
:100C6000411901EBEA70A1693844081A401EA061DD
:100C70002078C00602D42046FFF746FB099828B129
:100C8000D4E901219047206A401C20622078C006E8
:100C900022D52046FFF738FB1EE0002E04DBB345CB
:100CA00002DD01A8805D00E03020D4E901219047F9
:100CB000206A401C2062761CAAF101005FEA000A4B
:100CC0000AD100F07BF9C0680168405CD4E90121D9
:100CD0009047206A401C2062281EA5F10105DCDC3B
:100CE00007E0D4E9012118F8010B9047206A401C65
:100CF0002062381EA7F10107F3DC2046FFF71AFB3C
:100D0000032011B041E6000001694A1C0261087825
:100D1000704700B58FB0CDE901310021059105493B
:100D20007944CDE9031011466846FFF779FB0FB00F
:100D300000BD0000E5FFFFFF0A6802F8010B0A6032
:100D40007047D1E900239A4202D2531C0B60107005
:100D5000704710B5436913B1AFF3008001E0FFF7AE
:100D6000FAFA012010BD127800F124010A70002265
:100D70004A700122EDE711684FF0FF32E9E7000009
:100D80002DE9FF5F15468A460446DFF8AC80F8443B
:100D90000027D8E900103E46CDE9001010E03AF8EF
:100DA00016106A4602A800F09DFB411C07D021786E
:100DB000890603D5E269391891420DD80744761C9B
:100DC0002078800602D5E069B84205DDAE42E6DB58
:100DD0003AF816000028E2D1A069C01BA0612046A5
:100DE000FFF792FAD8E90010CDE90010002017E0D3
:100DF0003AF818106A4602A800F074FBB0F1FF3F01
:100E000081460BD000250DF1080B05E0D4E9012146
:100E10001BF8050090476D1C4D45F7D308F1010004
:100E2000B0428046E4DB206A384420622046FFF767
:100E300081FABDE8FF9F00007A6D00002DE9F041C6
:100E40008046D21D22F007020025D2E90002F529D2
:100E500015A614D0011E72F1000106DA0023D0EBB2
:100E6000030063EB020211A608E0D8F800108B071C
:100E700001D50FA602E0490701D50EA601251146AE
:100E8000002408F1240704E000F0A0F830323A55BD
:100E9000641C50EA0102F7D12B46324621464046F7
:100EA000BDE8F041FFF7B3BC000000002D000000DA
:100EB0002B0000002000000030B4002100F12404C9
:100EC00008E002F00705D208303542EA4372DB0839
:100ED0006554491C52EA0305F3D10468002310A2AB
:100EE000250707D5A40600D421B1C46901230DA2AA
:100EF000641EC46130BCFFF78ABC10B504462146AD
:100F00001068FFF77BFC02462046BDE81040002336
:100F1000D2E7D21D22F00701D1E90023CCE700007F
:100F20000000000030000000F0B40D460188090503
:100F300002D5214C7C4402E01F4C7C440E3400213D
:100F400000F1240608E002F00F071209E75D42EA0B
:100F500003721B097754491C52EA0307F3D1027844
:100F60000023120704D5702D06D009B102231134D5
:100F70002246F0BCFFF74BBC01231034F8E770B5F4
:100F800004460D4621461068FFF738FC0246294604
:100F90002046BDE870400023C6E7D21D22F00703BB
:100FA000D3E90023C0E70368126843F0200303601D
:100FB0000823C3610023B7E7DC6B000000487047DB
:100FC000580B002000487047380B002030B5B0F1B6
:100FD0000A024FEA900E71F100034EEA817EB0EBF7
:100FE0000E0061EB91014FEA101E4EEA017E10EBFC
:100FF0000E0041EB11114FEA102E4EEA016E10EB7C
:101000000E0041EB11214FEA104E4EEA014E10EB5B
:101010000E0041EB1141401841F100014FEAD000B0
:1010200040EA41704FEAD10110EB80054FEA81049C
:1010300044EA907444EB01046D1944EB0404521B20
:10104000A3414FF0000348BF0A3200D530BD401C19
:1010500041F1000130BD00002DE9F04F04460D467E
:10106000D21D22F0070089B0D0E9009748463946E2
:1010700005F08CFE0246F80F01D02D2307E0206812
:10108000810701D52B2302E0202101EAC0038DF85E
:1010900020300BB1012000E00020032A824601D05D
:1010A000072A04DB2946204600F054F93FE1207866
:1010B000800601D40D2500E0E569C7F30A560D2D21
:1010C00049DA00214FEA175B08464FF00000002F75
:1010D00000F4400007DA00EB80004FF4400100EB21
:1010E000D07001EA60008115012901DD4FF0FF3168
:1010F00000224FEA850CBCF1180F06D31346ACF161
:1011000018004FF08052C24003E04FF4801323FADE
:101110000CF30CF10C0CBCF1200F04D3ACF1200C3F
:1011200009FA0CF001E007FA0CF000294FF0004832
:1011300001DD18B90FE00ED140450CD319EB0209BF
:101140005F4121B9404502D19F4329EA0209BBEB27
:10115000175F00D0761C2088000502D57B487844B4
:1011600002E07A487844193808AA302302F80A3095
:10117000037C0AF10101002E0AF1020A53546A4667
:1011800002DC4FF0300101E04FF031014FF0010877
:101190008DF8001002D0A6F2FF3603E059EA4701AD
:1011A00000D06B4E002D02DC2178090704D54FF0EA
:1011B00002082E218DF80110C44600210BE0C7F370
:1011C00003433F01C35C491C6D1E02F8083005292A
:1011D00008F1010801DA002DF1DC00210CE000EB40
:1011E0001973491C1B786D1E082902F808304FEA54
:1011F000091908F1010801DA002DF0DC21688B06DD
:1012000002D516E0A8F10108E04505DD02EB080370
:1012100013F8013C302BF5D0B8F1000F09DD02EBDB
:10122000080313F8013C2E2B03D1090701D4A8F1C0
:101230000108002D05DD3E2102F808106D1E08F1A1
:101240000108407C002E02F8080008F1010804DAC9
:101250002D20764202F8080002E02B2002F8080058
:101260000A214FF47A70864208F101080BDB96FBE5
:10127000F0F3303302F8083096FBF0F308F1010880
:1012800000FB136601E0642E0CDB642096FBF0F398
:10129000303302F8083096FBF0F308F1010800FB48
:1012A000136601E00A2E06DB96FBF1F0303002F8FF
:1012B000080008F1010896FBF1F001FB10603030E6
:1012C00002F80800A16908F1010808EB050202EB29
:1012D0000A00081AA0612078C00602D42046FFF751
:1012E00013F8216A08AE01EB0A00206204E0D4E999
:1012F000012116F8010B9047BAF1010AF7D22078C4
:10130000C00602D52046FEF7FFFF6E4609E016F83C
:10131000010B3E280FD0D4E901219047206A401CE0
:101320002062B8F10108F2D22046FFF703F809B0B5
:101330000320BDE8F08F206A2844206203E0D4E94E
:101340000121302090476D1EEBD3F8E7ED690000D6
:1013500002FCFFFF2DE9F0411F4604460326016809
:10136000072A01F4006004DB08B116A505E016A504
:1013700003E008B115A500E015A521F010002060DC
:10138000A069C01EA0610FB1401EA0612046FEF7FB
:10139000BBFF4FB1D4E9012138469047206A401C79
:1013A0002062C01C206206E0206AFAE7D4E901212D
:1013B00015F8010B9047761EF8D22046FEF7BAFFCB
:1013C000BDE8F0814E414E006E616E00494E460010
:1013D000696E660010B5436913B1AFF3008001E098
:1013E000FFF7CEFC012010BD128800F12401828499
:1013F0000022C2840122EDE711684FF0FF32E9E7D5
:101400002DE9F047814616468AB0354878440DC824
:101410008DE80D0032487844801C03AC0DC884E888
:101420000D0041F69B300844372190FBF1F290FB10
:10143000F1F5A5F1800501FB12041B3C02D56442C5
:10144000012000E00020DFF898A080460027FA4441
:10145000AAF1BE0A0EE0E0070AD03246684607EB62
:10146000470101230AEB810100F070FB8DE80700C2
:1014700064107F1C002CEED1194F7F44AE3F19E061
:10148000E80715D007EB04100DF1180A90E80E00DC
:101490008AE80E00C068F04201D1981908903246DF
:1014A000012306A903A800F051FB03AB83E8070062
:1014B0006D10641C002DE3D14FF0010332466946E4
:1014C000B8F1000F03A802D000F02BFB01E000F000
:1014D0003DFBC9E90001C9F808200AB0BDE8F08762
:1014E000D067000070B516460C46054600F044F87B
:1014F000036893F80101012806D0FF2C0FD8185D6E
:1015000068B101202C7070BDD3F807013246214626
:1015100003F2071303442846BDE8704018474FF014
:10152000FF3070BD00487047380B00207546FFF74C
:10153000F9FFAE4605006946534620F00700854690
:1015400018B020B5FEF784FEBDE820404FF000063D
:101550004FF000074FF000084FF0000B21F007019B
:10156000AC46ACE8C009ACE8C009ACE8C009ACE8DE
:10157000C0098D467047000010B5FFF71FFD001D24
:1015800010BD00BF895A000010B50446AFF30080BB
:101590002046BDE81040FEF746BE00004FF0013C7B
:1015A00050F8042B51F8043B9A4221D1A2EB0C03D2
:1015B000934313EACC1317D150F8042B51F8043B92
:1015C0009A4215D1A2EB0C03934313EACC130BD12F
:1015D00050F8042B51F8043B9A4209D1A2EB0C03BA
:1015E000934313EACC13DBD04FF00000704700BFE9
:1015F000D01A01BAB1FA81F101F0180122FA01F012
:10160000CB40C1F12001DBB2C0B2C01A2CFA01F309
:10161000D11A914311EAC311E6D17047014918204C
:10162000ABBEFEE72600020070475FEA400C08BF31
:1016300091F0000F4FEA8C234FEAC12243EA515147
:101640004FEA1C5018BF00F5F0404FEA300018BFB9
:1016500041F000415FEA6C5C00F02980BCF1FF3F83
:1016600008BF40F080407047130C06BF12044FF0D3
:10167000100C4FF0000C130E04BF12020CF1080CFA
:10168000130F04BF12010CF1040C930F04BF92005E
:101690000CF1020CD30F04BF52000CF1010C1146E7
:1016A0004FF00002A0F11F00A0EB0C00704711F0FA
:1016B000004F08BF704731F000413FF4D5AF0B0C2D
:1016C00006BF09044FF0100C4FF0000C0B0E04BFC6
:1016D00009020CF1080C0B0F04BF09010CF1040CFA
:1016E0008B0F04BF89000CF1020CCB0F04BF490023
:1016F0000CF1010CCCF12003A0EB0C0022FA03F357
:1017000002FA0CF241EA030100F10100704720F0F7
:101710007F4C80EA030023F07F47ACEB070303F51F
:101720007C5300F0004003F1FF032DE980494FEAAC
:10173000154B09B44FEA144325EA0B4E24EA03483B
:101740000FF2042606EB132749083E785FEA3202BF
:1017500003FB0667C7F5000707FB06F64FEA543799
:101760004FEAD64606F1020607FB066CCCF1005C98
:101770004FEA1C472CEA074C07FB06F40CFB06F566
:1017800004EB15464FEA961634BF00204FF0004098
:101790004FEAD13706FB07FC4FEA1C4C0CFB0BF75A
:1017A000D21B03FB0CF761EB07010CFB0EF7B0EB50
:1017B000074072EB17420CFB08F734BFA2EB07425D
:1017C000B2EB074261EB17414FEA0C444FEA910735
:1017D00006FB07FC4FEA1C4C0CFB0BF7B0EBC740B9
:1017E00072EB573203FB0CF734BFA2EBC742B2EBEC
:1017F000C74261EB57310CFB0EF7B0EBC70072EB41
:1018000057720CFB08F734BFA2EBC702B2EBC7025A
:1018100061EB5771039F4FEA816141EA921104EB3A
:10182000CC044FEAD1374FEA826206FB07FC42EA5A
:1018300090124FEA80604FEA1C4C0CFB0BF7D21B56
:1018400003FB0CF761EB07010CFB0EF7B0EB074055
:1018500072EB17420CFB08F734BFA2EB0742B2EB66
:10186000074261EB17414FEA8C554FEA910704EBB1
:101870009C2406FB07FC4FEA1C4C0CFB0BF7B0EB5F
:10188000C74072EB573203FB0CF734BFA2EBC742E1
:10189000B2EBC74261EB57310CFB0EF7B0EBC70060
:1018A00072EB57720CFB08F734BFA2EBC702B2EB26
:1018B000C70261EB577115EB4C254FEA816141EA94
:1018C00092114FEA82624FEAD13742EA901206FB48
:1018D00007FC44F100044FEA80604FEA1C4C0CFB0B
:1018E0000BF7D21B03FB0CF761EB07010CFB0EF7A8
:1018F000B0EB074072EB17420CFB08F734BFA2EBCA
:101900000742B2EB074261EB174115EB1C154FEA9A
:10191000813141EA92414FEA823242EA90424FEAF3
:1019200080304FEA0C7644F1000448EA03434EEA63
:101930000B484FF0000EB2EB080C71EB030724BF0D
:10194000624639464EEB0E0E4FF0000B0018524126
:1019500049414BEB0B0BB2EB080C71EB03077BF12E
:10196000000B24BF624639464EEB0E0E4FF0000BC3
:101970000018524149414BEB0B0BB2EB080C71EBD9
:1019800003077BF1000B24BF624639464EEB0E0E77
:1019900051EA020718BF46F0010616EB0E7655F124
:1019A000000254F1000103D5BDE88901BDE80088BB
:1019B000BDE88901BDE80048B619524141EB01017B
:1019C000A3F10103704780807F7E7D7C7B7A7978EC
:1019D000777676757473727171706F6E6E6D6C6CF4
:1019E0006B6A6A6968686766666564646363626196
:1019F0006160605F5F5E5E5D5D5C5C5B5B5A5A5917
:101A00005958585757565655555554545353525282
:101A10005251515050504F4F4F4E4E4D4D4D4C4CDA
:101A20004C4B4B4B4A4A4A49494948484847474723
:101A30004746464645454544444444434343434260
:101A4000424242414141002B9C4630D477002BD08A
:101A50001CB54FEA370703B44FF010004FF01001E8
:101A6000BAF1000F06D0BCF1000FDCBF40F0080057
:101A700040F008014FF000000FBCBDE810400BF132
:101A8000010BBBF1010F08BF5FEA170722BF12F17C
:101A9000010211F101014FF0004143F1000300F098
:101AA000004043EA00007047F9D35708D0E746EA00
:101AB000064613F1400F4FEA16461FDD13F1200FC3
:101AC000DFBF16430A46002120335B42BED0C3F17C
:101AD000200746EA064602FA07F74FEA164646EAA4
:101AE0000706C3F1200722FA03F201FA07F721FAE9
:101AF00003F14FF0000342EA0702A7E746EA0206B5
:101B000046EA06464FEA164646EA0106BCBF46EAE2
:101B10000646360C4FF000034FF000024FF0000174
:101B200094E72DE9804C9A46934670B491E83800CA
:101B300007C831EA400C48BF34EA430C03D5FFF72D
:101B4000E6FDFFF780FFF0BCBDE8008C2DE9804C7E
:101B50009A46934670B491E8380007C810F0804F59
:101B600008BF13F0804F03D100F005F8FFF76BFFBB
:101B7000F0BCBDE8008C20F07F4780EA030023F032
:101B80007F4C07EB0C03A3F57C5300F00040A3F15E
:101B9000FE0392F0000F00F0B38095F0000F00F00C
:101BA00077802DE901494FEA11404FEA144621EAB6
:101BB000004800FB06FC24EA064708FB06F607FB84
:101BC00008F800FB07F718EB06484CEB164C4FEAF9
:101BD000124B18EB07484FEA15464CEB174022EA28
:101BE0000B4E0BFB06FC25EA06470EFB06F607FB31
:101BF0000EFE0BFB07F71EEB064E4CEB164C4FF0A0
:101C000000061EEB074E4CEB174B18EB0B0840F190
:101C1000000018EB0E0B58EB000840F100008F1A83
:101C20004FF000013CBFC943661B14BFB5EB040C69
:101C300000213CBFC943F61B4FEA17444EEA8E0E03
:101C400027EA04454FEA1C4704FB07622CEA074CCD
:101C500005FB07F70CFB05F604FB0CFC16EB07462F
:101C600042EB174216EB0C4642EB1C421BEB0606FE
:101C700058EB0202414146EA9E0601D5BDE80189C2
:101C8000B619524141EB0101A3F10103BDE80189FD
:101C90004FEA14454FEA114724EA054621EA074C6A
:101CA00005FB07F406FB07F70CFB06F105FB0CFC34
:101CB00011EB074144EB17444FEA124711EB0C417B
:101CC00044EB1C4422EA074C05FB07F206FB07F72E
:101CD0000CFB06F605FB0CFC16EB074642EB174225
:101CE00016EB0C4642EB1C456A1854F1000148BF44
:101CF0007047B619524141EB0101A3F1010370474E
:101D000095F0000F37D04FEA11424FEA144721EA0D
:101D1000024624EA074C02FB07F106FB07F70CFB1F
:101D200006F402FB0CFC14EB074441EB17414FEAAD
:101D3000154714EB0C4441EB1C4125EA074C02FB10
:101D400007F506FB07F70CFB06F602FB0CFC16EB8F
:101D5000074645EB174516EB0C4645EB1C4212199E
:101D600051F1000148BF7047B619524141EB0101E2
:101D7000A3F1010370474FEA14454FEA114724EAE3
:101D8000054621EA074C05FB07F106FB07F70CFBAC
:101D900006F24FF0000605FB0CFC12EB074241EB8C
:101DA000174112EB0C4251EB1C4148BF704792188F
:101DB00041EB0101A3F101037047000070B5044637
:101DC00000688168C943C90717D1816821F0010102
:101DD000816002F04FF805460AE000BF02F04AF8C1
:101DE000401B022804D920688068C043C00706D081
:101DF00020688068C043C007F0D0002070BDA06A92
:101E000040F01000A062E06A40F00100E0620120B2
:101E100070BD0000F8B50026044600960068816891
:101E2000C943C9072DD0816841F00101816016487E
:101E300016490068B0FBF1F000E0401E0090002859
:101E4000FBD102F017F8054616E000BF02F012F8C9
:101E5000401B022810D920688068C043C0070BD0FF
:101E6000A06A40F01000A062E06A40F00100E06269
:101E700084F824600120F8BD20688068C043C00752
:101E8000E4D10020F8BD0000D800002040420F003F
:101E90003EB56946009001200190072002900F484E
:101EA00001F04AFB0E4C18B90C4801F01FFD08B1B7
:101EB000E0893EBD1421094801F07AFC002807485A
:101EC00002D001F073FDF3E701F0B4FB85B20348E3
:101ED00001F06CFDE58128463EBD00005C0100205C
:101EE000000000202DE9F04100250E4607462C4653
:101EF00005E03846FFF7CCFF641C0544E4B2B44269
:101F0000F7D3B5FBF6F080B2BDE8F08101600021A7
:101F100001718160C16001610175417570471CB537
:101F20000446282001F05CFDBE208DF80400082046
:101F30008DF8050000208DF8060064200090032332
:101F400001AA7021204602F0A1F9002803D10A203D
:101F500001F046FD00201CBD2DE9F0410E46017840
:101F60001546090602D50020BDE8F0814178827847
:101F7000090341EA0211C278037941EA12111207FA
:101F8000120B407942EA03240443084605F0F8F9AD
:101F90006FF01307394605F01EFC094905F038FAC1
:101FA0002860204605F0ECF9394605F014FC054997
:101FB00005F02EFA044905F063FB30600120D3E7F9
:101FC0000000C84200004843000048422DE9FF419C
:101FD00000260446467500794FF00108032740B1FA
:101FE000012817D0022801D0032800D12671BDE8AE
:101FF000FF81206800F032F828B984F8048001F0ED
:1020000039FFA060F3E72771207D1428EFD2401C30
:102010002075ECE701F02EFFA168451A502DE6D39C
:1020200032200090062301AA7021206802F006F8F1
:102030000028E8D103AA694601A8FFF78DFF48B13F
:102040000098E0600398206184F8158026750220CE
:102050002071CCE7822DD6D2C9E700001CB505A1BE
:102060000323096801913221009101AA702102F035
:102070000DF91CBDAC33000070B5234C0025214682
:1020800094F84920C86F91F8781072B3002939D1BB
:1020900020B901F0EFFEE067A4F88050E08FB4F8BB
:1020A0006010401A00B2002801DA404200B2B4F8D1
:1020B000801080B2814201D2A4F8800001F0DAFEE3
:1020C000E16F401AB0F5FA6F1CD3B4F880100A29FA
:1020D00005D901EB8100C0F34F00A4F86200012094
:1020E00084F87800B4F8622000E004E0BDE87040B5
:1020F00006A000F0B3BF09B9002803D004F8785F48
:102100006560258170BD00002800002041435337E1
:10211000313220E5B3B0E580BC3A257520E5A0B5A5
:10212000E8BDACE99888E580BC3A25750D0A000049
:102130002DE9F04F85B0AD4802F013FBAC4C002008
:10214000DFF8B0A22178DFF8B0924FF4FA7740F6CA
:102150003F364FF4FA6BA4F1280506297DD2DFE85B
:1021600001F07C0347B11230A4F84C0001F0FAF8FA
:1021700001F080FEB0FBF7F000F0010100221046F4
:1021800003F020FF2FE03046A4F84C6001F0D6F8B1
:1021900000210122084603F015FF01F06BFE69697A
:1021A000401AC8281CD300BF01F064FE6861687A39
:1021B00090F00100687216D005B0BDE8F04F00F055
:1021C000B3BEA4F84C0001F0CDF80021012208466E
:1021D00003F0F8FE01F04EFE6969401AB842E3D2FE
:1021E00005B0BDE8F08F05B0BDE8F04F00F094BE3B
:1021F0006768E06A394605F043FA394600F09CFE0C
:10220000804694F8240078B17C48216A04F065FA8D
:102210007A48E16804F0D8F907460146404605F0DF
:10222000C3F903D2404602E07548F5E7384600900E
:102230007448009905F0B8F901D2724800906168BD
:10224000514506DA4846009905F0AEF801D2CDF8BE
:102250000090B4F84C10009800E0BEE004F042FAA0
:10226000A4F84C0001F06AF800220121104603F0A6
:10227000A9FE00F051FE01F0FDFDA969401A584584
:10228000AED301F0F7FDA146A861B4F84C4064203C
:102290006043B0FBF6F6009805F052F885B2384678
:1022A00005F04EF887B2404605F04AF881B2B9F819
:1022B00044000094CDE901602B463A4652A000F05C
:1022C000CDFE8DE76668E06A314605F0D9F9314602
:1022D00000F032FE009094F8240078B34748216A59
:1022E00004F0FBF94548E16804F06EF90646E06D3C
:1022F0004FF47A71484305F043F8074601F0BAFD00
:10230000616D401A05F03CF8394604F03BFF4FF090
:102310007E5105F0ABF9DFF82481074610F1FF4F3D
:1023200000D300273946009805F072F80146019065
:10233000304605F039F904D2304603E0FFE7304873
:10234000D4E7019801904046019905F02DF901D29A
:10235000CDF804806168514506DA4846019905F0D8
:1023600023F801D2CDF80490A04634F84C1F019810
:1023700004F0B8F9208000F0E1FF012100220846B6
:1023800003F020FE00F0C8FD01F074FDE969401A79
:10239000584596D301F06EFDE861019804F0D0FF36
:1023A00085B2384604F04EFE04460F46304604F02F
:1023B000C7FF86B2009804F0C3FF83B2B8F8441098
:1023C000B8F84C000295CDE90301CDE9004732464B
:1023D00019461BA000F042FE02E7A4F84C0000F0F2
:1023E000C1FF002211460120CAE60000340200208D
:1023F000280000200000904100E0B34404010020C8
:1024000000E08F4400C05744485720645F543A2589
:102410007520645F483A2575206D61783A257520EE
:10242000736C65773A25752050574D3A25752525EB
:102430002052504D3A25750D0A00000000C00F448F
:10244000445320645F543A257520645F483A2575EB
:10245000206463793A252E3266207467743A2575B4
:1024600020736C65773A25752052504D3A25750DCD
:102470000A00000030B5194C87B094F868000028B5
:1024800023D001F0F7FCE16E401A40F6B8318842E3
:102490001BD313480090134800250168019141683F
:1024A000029180680390E06D0490B4F86000ADF88C
:1024B0001400ADF81650684600F0A4FF38B184F857
:1024C000685009A0E16D00F0C9FD07B030BD01F012
:1024D000D1FCE0660BA000F0C1FDF6E7280000206B
:1024E000D7E1C3A504010020E5BBB6E697B6E5B782
:1024F000B2E4BF9DE5AD983A20256C7520730D0AB6
:10250000000000005741524E3A20466C617368202B
:10251000E4BF9DE5AD98E5A4B1E8B4A52C20E7A8FB
:102520008DE5908EE9878DE8AF950D0A00000000DB
:1025300070B572B6164C94F87060002084F8700084
:1025400062B6002E22D0F10706D02178052903D1EA
:1025500084F84800A0656066B0074FF0010509D512
:10256000E06D782806D20A30E06584F8685001F002
:1025700081FCE066700709D5E06D0A2806D90A38A3
:10258000E06584F8685001F075FCE06670BD0000FD
:10259000280000202DE9F04188B000215F4803F0B9
:1025A0008DF800F0DFFE00221146104603F00AFD10
:1025B00000F0B2FC5A4800F053FF02A800F010FFF0
:1025C000584B594A59495A4E00255A4C00287DD03B
:1025D00006980A386E2801D80698E065564F039889
:1025E000B84219D284465548844515DCDDF810C040
:1025F000BC4511D2DFF84881C4450DDCDDF814C0BC
:10260000BC4509D26746844506DCCDE90056DDE9C4
:1026100003123B464B4802E0CDE90056494804F01E
:1026200037F8BDF81C00A0F2DC51B1F52F7F01D8BE
:10263000A4F8600044A000BF00F010FD4948FFF777
:102640006EFC4FF00108002861D0257446A000F010
:1026500005FD3C4843492830FFF758FC01F00AFCCF
:1026600060614948FFF75BFC002853D084F8245090
:1026700046A000F0F3FC334843494030FFF746FCE6
:1026800000F048FE374803F0A7FE03F09DFE00214E
:1026900046A2084603F05EFF49A20221002003F093
:1026A00059FF4BA20421002003F054FF03F0FEFE6B
:1026B00000273E460120FFF7EBFB0744052001F011
:1026C0008FF9761CF6B2322EF4D300E018E03220F7
:1026D000B7FBF0F081B2A4F86010CF20A4F862003C
:1026E0003FA02C3400F0BAFC01F0C4FBA06404F855
:1026F0002C8CA5773FA000F0B1FC08B0BDE8F081BC
:10270000CDE900560F4803F0C3FF45A094E784F8D5
:1027100010809EE784F82480ADE70000400200208E
:102720005C010020000048420000A0400000484337
:1027300000F03345280000200000808000401C4647
:1027400000007A4404010020466C6173683A20E579
:102750008F82E695B0E58AA0E8BDBDE68890E58A5F
:102760009F0D0A008C0100204552523A41485432D4
:102770003020E5AEA4E5868520496E697420466167
:10278000696C0D0A00000000E00100205741524E24
:102790003A414854323020E5AEA4E5A49620496E73
:1027A0006974204661696C0D0A000000536D617206
:1027B00074204578686175737420563300000000FA
:1027C0004D51322050726568656174696E67000012
:1027D0004143533731322043616C69622E2E2E0003
:1027E00041435337313220E99BB6E782B93A20257D
:1027F000750D0A00E7B3BBE7BB9FE590AFE58AA87C
:102800002E2E2E204D512D3220E99D9EE998BBE5BC
:10281000A19EE9A284E783ADE4B8AD0D0A000000F3
:10282000466C6173683A20E9A696E6ACA1E590AFE4
:10283000E58AA82C20E4BDBFE794A8E9BB98E8AEE0
:10284000A4E58F82E695B00D0A0000002DE9FE4F49
:1028500000260196029601F00DFB07468548FFF71A
:10286000B5FB8448844D4FF00108417D4FF4FA696F
:1028700005F12804A9B1691D00918B1E7D4982468E
:10288000C06805223C3900F079FD6060DAF810106C
:10289000A16003F035F8E06084F8108067616E7025
:1028A0000EE00079032809D16878FF2801D2401C86
:1028B0006870C0B20A2801D3267405E0207C18B1E4
:1028C0006069381A4845F7D86A481830FFF77EFB28
:1028D00068481830417D51B1C268A2610169104653
:1028E000E16103F00DF8206284F824801EE0007995
:1028F00003281CD12878401CC0B228700A2816D39F
:102900005F4984F824605D48C4E9060102F0F8FFDD
:10291000206228780A280AD103F036F85948FFF7D0
:10292000FEFA544857491830FFF7F0FA2E7028691C
:10293000381A96282CD32F61A879B0B101A9524832
:1029400003F05AFB50B1E879FF2801D2401CE8712E
:10295000C0B20A2818D384F8306015E00198A0624C
:1029600084F830806763EE710EE002A9464803F0F8
:1029700047FBC8B3287AFF2801D2401C2872C0B296
:102980000A2801D384F83160A87980F00100A87189
:1029900094F8300028B1606B381A484501D984F8A2
:1029A000306094F8310028B1A06B381A484501D93D
:1029B00084F8316008210020FFF794FAA0870821ED
:1029C0000120FFF78FFAE08700F010FB206400F091
:1029D00083FCA4F8440094F84A00B0B1A08F00F042
:1029E0009DFB90B1012011E0FFE723482149001D24
:1029F000831E009005225039029800F0BFFCE0626F
:102A000084F83180A7632E72BEE7002084F8470067
:102A100094F8310098B1207C88B16168E06A04F0D4
:102A20002FFEA97A21B11949884206DAAE7206E072
:102A30001749884203DB85F80A80012000E0002066
:102A400084F84600B4F84C10E08F00F01FFB84F8C7
:102A50004800207C48B194F8240030B1216AE06835
:102A600002F082FF08B1012000E0002084F84B0052
:102A7000BDE8FE8F2C010020000000200000A041D6
:102A800000004842E00100208C010020000040408E
:102A90000000A040F0B58DB001F0ECF9834C216A44
:102AA000401AC82879D301F0E5F9206203F08CFCC4
:102AB00028344FF47A772078062830D2DFE800F007
:102AC0002F03262D132401F0D5F9616F78A2401A47
:102AD00044F62061081AB0FBF7F3202105A8FDF7A2
:102AE000F7FB05AA00E077A20021084603F032FDBB
:102AF000A06804F0A7FA05460E46606804F0A2FA42
:102B0000227C72B120220DE072A2EDE794F824003D
:102B100008B174A2E8E777A2E6E77AA2E4E77DA22B
:102B2000E2E72122CDE903628DE823007CA2202187
:102B300005A8FDF7CDFB05AA0121002003F00AFD41
:102B400094F8240078B1E06904F07CFA05460E465A
:102B5000A06904F077FA8DE8630076A2202105A829
:102B6000FDF7B6FB04E078A2202105A8FDF7B0FB35
:102B700005AA0221002003F0EDFCE06A04F062FAED
:102B800005460E46216AE06804F07AFD04F05AFA20
:102B900094F8312012B1202201E085E02122CDE914
:102BA00003628DE823006BA2202105A8FDF790FBAE
:102BB00005AA0321002003F0CDFC6168E06A04F05F
:102BC0005FFD04F03FFAB4F84C2064235A4340F60A
:102BD0003F33B2FBF3F3CDE90201B4F844000090B7
:102BE00062A2202105A8FDF773FB05AA042100209D
:102BF00003F0B0FC206C04F025FACDE90001A38FAE
:102C000060A2202105A8FDF763FB05AA052100208D
:102C100003F0A0FC207803280FD05FA2202105A894
:102C2000E36DFDF755FB05AA0621002003F092FC99
:102C300094F8470080B35BA230E001F01BF9216DEE
:102C4000401AB0FBF7F1E06D00EB4002814201D287
:102C5000431A00E00023914201D2501A00E0002004
:102C600033B1009051A2202105A8FDF731FB05E00A
:102C7000034652A2202105A8FDF72AFB05AA06213A
:102C8000002003F067FC94F84B0008B14EA200E06E
:102C90004FA206215A2003E0FFE74FA2062142205F
:102CA00003F058FC03F002FC0DB0F0BD0000002062
:102CB0004D4F44453A5052454845415420256C7586
:102CC000730000004D4F44453A47415320414C4169
:102CD000524D00004D4F44453A5354414C4C204511
:102CE000525200004D4F44453A484F5420574154EA
:102CF000455200004D4F44453A484F542057284410
:102D0000454729004D4F44453A444548554D4944AF
:102D1000000000004D4F44453A49444C4500000036
:102D2000496E3A25342E3166432025322E306625F1
:102D3000252563004F75743A25342E3166432025CE
:102D4000322E3066252500004F75743A4F46464CAA
:102D5000494E45006441483A25342E316620547767
:102D60003A25342E3166256300000000503A2532A2
:102D700075252520523A25752064543A252E306653
:102D8000000000004761733A25347520493A253127
:102D90002E32664100000000446C793A256C757350
:102DA000000000004761733A414C4D00423A256CE7
:102DB000757320463A256C7573000000423A4F4BFC
:102DC00020463A256C757300483A4F4B00000000CE
:102DD000483A4849000000004761733A4E4F52009C
:102DE0002DE9F0413A4C00262578012D04D094F8C5
:102DF0004700C0B1042026E001F03CF8616F401AA2
:102E000044F62061884205D3012084F84A002670E8
:102E100030A055E02278AA4257D02946BDE8F041BB
:102E200030A000F01BB994F8480008B105200AE072
:102E300027480227062D90F8460044D2DFE805F027
:102E40000943141F05052070E4E70028FBD0022089
:102E5000F9E70028DED02770274803F035FC264824
:102E6000216A03F03AFCD5E70028D3D10320207073
:102E700001F000F8206500F0FDFF6065CAE700F092
:102E8000F9FF216D4FF47A72411AE06D40F6B833C4
:102E90004243584394F846300BB12770BAE7914249
:102EA000B8D394F84B2022B12670134803F00CFCE1
:102EB000B0E78142AED326700F4803F005FC0FA0A7
:102EC00000F0CCF8A6E72670A4E7BDE8F08100008A
:102ED000280000204D512D3220E5B0B1E7BBAA0DEE
:102EE0000A00000053746174653A202564202D3E69
:102EF0002025640D0A00000004010020E5BCBAE5AD
:102F000088B6E8B685E697B6E5819CE69CBA0D0AD8
:102F100000000000FEE7000001222021014800F02F
:102F2000A4BF0000000C014000222021014800F055
:102F30009CBF0000000C01402DE9F0410F462049E4
:102F4000204C214E884201DC20460EE0B04201DBDD
:102F50001E480AE004F094FB1D4904F059FA1D498B
:102F600004F010F9214604F099F81B4C214604F0B6
:102F70004FFA1A4904F006F905463146384604F07E
:102F80007FFB174904F044FA4FF07E5104F086F8B5
:102F900001461448144A814201DA014602E0914296
:102FA00000DD1146284604F033FA10F1FF4F02D33A
:102FB0000020BDE8F081A042FBDD2046F9E70000DB
:102FC0000000A0400000F0410000C8410000B442F1
:102FD000000070420000A04100F033450000C842EC
:102FE0008FC2F53C3333333F6666A63F70B504F0BD
:102FF000C7F9134D294604F00BFA124E314604F07E
:10300000C1F804461048B0F8600004F0B9F9294648
:1030100004F0FEF9314604F0B5F80146204604F00C
:103020002FFB0A4904F0AEF8094904F0ABF8094A4D
:1030300020F00041914200DA002020F0004070BDF5
:103040003333534000F07F45280000209A99193F00
:10305000A4703D3E8FC2F53C704700000FB4802144
:1030600000B5A1B023AB6846229AFDF717F9684670
:10307000FDF7C6FA82B264236946034802F0EEFB0C
:1030800021B05DF814FB0000D00200202DE9F041D2
:103090000025214CB1F5587F04D2A5650020656656
:1030A000BDE8F081B4F86010401A00B2002801DADF
:1030B000404200B2B4F96210814201DA012600E018
:1030C0000026B4F84400642802D2606E10B105E016
:1030D00065660CE000F0CEFE606640B100F0CAFE0E
:1030E000616E401AB0F5FA6F01D3012700E00027A6
:1030F00076B1A06D18B900F0BDFEA06548B100F032
:10310000B9FEA16D401AB0F5487F02D3012001E05D
:10311000A56500203843C3E728000020114900229C
:103120004B7B5BB1B0F5E16F18D2CA72087B401CD3
:10313000C0B20873052812D34A7310E040F6980312
:10314000984209D30A73C87A401CC0B2C8720328D7
:1031500005D3012048737047CA7200E00A73487BA8
:10316000704700000000002072B6FEE7064900200C
:10317000C8610648016941F004010161016941F03B
:103180004001016170470000180B00200020024040
:10319000064A0021D16106490A6942F002020A6129
:1031A0004861086940F0400008617047180B002032
:1031B00000200240044B0022DA61044A136943F004
:1031C0000103136101807047180B002000200240AA
:1031D00014480022C168CB06134904D5CA6942F0DD
:1031E0000202CA611022C3685B0705D5CB6943F0B0
:1031F0000103CB6142F00402C369DB0707D0CB694E
:1032000043F00403CB61C16921F00101C161A2F562
:103210008071013901D0C2607047C16921F001019C
:10322000C161704700200240180B002070B50546B0
:1032300000F020FE0646114C09E0681C07D025B1BD
:1032400000F018FE801BA84201D9032070BDE06881
:10325000C007F2D1E068800601D52020E060E06878
:10326000C00605D4E069C00702D1E068400703D575
:10327000FFF7AEFF012070BD002070BD00200240AE
:1032800010B5134A0168914221D1017F02291ED154
:10329000042102F062FA0F4C606000F0EBFD206147
:1032A000207810B1002020700FE06068E16888424B
:1032B00003D36068E168401A06E0E0684FF6FF71EA
:1032C000081A61680844401CA0606068E06010BD96
:1032D00000040040B400002010B500F0CBFD0B4905
:1032E0000A69801AB0F5FA6F01D9002010BD88680C
:1032F0000028FBD006494000B1FBF0F042F210710B
:10330000884200D9002080B210BD0000B400002027
:103310000087930310B5074C012020700020A060A7
:10332000E06000F0A7FD2061BDE8104004210248E4
:1033300001F0FEBFB4000020880200200749B0F56C
:10334000346F096803D340F63F30486301E04863B7
:1033500000B10120024981F8490070474002002075
:10336000280000200349002009684863024981F8C9
:103370004900704740020020280000202DE9F0415C
:103380001C780E46069946F8240018780025401C43
:10339000B0FBF2F402FB140010F0FF00187006D02E
:1033A000097801B11046070004D000240CE0012088
:1033B0000870F7E701270024284656F8241003F088
:1033C0006DFE641C0546E4B2BC42F5D3384603F0FA
:1033D000D7FF01462846BDE8F04103F0D3BE000008
:1033E00010B5044618220549FDF76EF90449206816
:1033F000884201D0002010BD012010BD00FC000853
:10340000D7E1C3A5F0B585B00025144C06460627C4
:10341000049500F095FB10B1002005B0F0BD01202F
:10342000CDE9024004A90095684600F0EBFA48B9DE
:103430005FF00005002356F825202146022000F009
:103440003FFB10B100F032FBE6E7241D6D1CBD42CE
:10345000F0D300F02BFB0120DFE7000000FC0008A8
:10346000F8B500250446009590F8240001280BD0FB
:10347000012084F824002046FEF7A0FC2046FEF739
:10348000C9FC060002D050E00220F8BDA06A20F47A
:10349000885040F00200A062022001F001FA2549A4
:1034A0000968B1FBF0F0400000E0401E00900028E9
:1034B000FBD12068816841F00801816000F0DAFCEE
:1034C000074608E000F0D6FCC01B0A2803D9206894
:1034D0008068000715D4206880680007F2D420684F
:1034E000816841F00401816000F0C4FC074612E0ED
:1034F00000F0C0FCC01B0A280DD920688068400776
:1035000009D5A06A20F0020040F01000A06284F803
:1035100024500120F8BD206880684007E8D4A06AE4
:1035200020F0020040F00100A06284F824503046F0
:10353000F8BD0000D8000020F8B50024009490F8F1
:1035400024202546012A12D0012280F824204A682E
:103550001F23072A0DD20668776B521E02EB8202E8
:1035600093409F430B6893401F43776319E0022009
:10357000F8BD06680D2A0AD2376BD21F02EB820211
:1035800093409F430B6893401F43376309E0F76AFA
:103590000D3A02EB820293409F430B6893401F4316
:1035A000F7620A68072306680A2A0AD3F7680A3A04
:1035B00002EB420293409F438B6893401F43F760A6
:1035C00008E0376902EB420293409F438B689340C7
:1035D0001F4337610A68102A01D0112A20D1124BEB
:1035E00002689A4217D193681B0219D4936843F476
:1035F000000393600968102912D10C490C4A09682C
:10360000B1FBF2F101EB8101490000E0491E00919C
:103610000029FBD104E0816A41F02001816201248C
:1036200080F824502046F8BD00240140D800002036
:1036300040420F000068C06C704700002DE9F04167
:103640004FF0000704003D467ED0A06A002628B94E
:10365000E66284F82460204600F07EF82046FEF7FB
:10366000ADFBA16AC90600D420B1A06A40F01000E9
:10367000A06269E0A16A21F4885141F00201A162CF
:103680006268E169237B0A4347EA43010A43A16870
:103690004FF48077B94209D0012907D05FF00001CB
:1036A00094F814C0BCF1010F02D00AE03946F7E7E4
:1036B000F3B1A36A43F02003A362E36A43F001037A
:1036C000E3622368D3F804C02CF4694C4CEA010C83
:1036D000C3F804C021688B68DFF870C003EA0C03EC
:1036E00013438B60A168B9420BD0012909D00CE0CB
:1036F000DFF85CC0A3690CEB43330B4343F4006178
:10370000DFE7218A0D05A5F580152168CB6A23F432
:1037100070032B43CB62216889680E4B194091429C
:1037200008D1E662A16A21F0020141F00101A16223
:10373000BDE8F081A06A20F0020040F01000A06215
:10374000E06A40F00100E0620120F1E7FDF7E1FFEF
:1037500000E0FFFFFE0E1FFF00B585B000210091C5
:1037600001910291039100680E49884217D10E48D9
:10377000816941F400718161816901F400710491F2
:10378000816941F0040181618069694600F00400AB
:103790000490032000900190044800F071FA05B0F5
:1037A00000BD00000024014000100240000801405C
:1037B0002DE9F84300270D460446009700F05AFB18
:1037C000804620688168C90508D5A06A40F02000BD
:1037D000A06284F824700120BDE8F8834168C9051F
:1037E00003D4C06A10F4700F2AD0022001F058F8F8
:1037F0003B490968B1FBF0F62068036939490B427F
:103800004FEA61014FEAA1121FD1C3684FEA611C60
:1038100013EA0C0F19D103690B4225D1C06810427D
:1038200022D1142023E0681C0AD02DB100F022FB25
:10383000A0EB0800A84203D920680068800725D5BE
:10384000206800688007EED52DE003690B4202D1A5
:10385000C168114206D0026923490A4206D1C068F4
:10386000084203D1542002E0292000E0FC20464316
:10387000009816E0681C11D02DB100F0FBFAA0EB07
:103880000800A8420AD90098B04207D2A06A40F0C6
:103890000400A06284F8247003209DE70098401C77
:1038A0000090B042E6D321686FF012000860A06A71
:1038B00040F40070A06220688068C0F3424007288E
:1038C0000CD1207B50B9A06A20F48070A062A06A5D
:1038D000C00403D4A06A40F00100A06200207BE78E
:1038E000D8000020244992244992240070B504464F
:1038F00090F8240001280DD0012084F824002046EF
:10390000FEF788FA02004FF0000005D084F824008A
:10391000104670BD022070BDA16A40F20123994398
:1039200041F48071A1621F4D23681F49AB4218D139
:103930000E6816F4702F14D0A66A46F48016A6629C
:103940000E68760505D5A66A26F4005646F480561C
:10395000A662A66AF6040AD5E66A26F00606E662BC
:1039600006E0A66A26F48016A6625E68E9E7E062D1
:1039700084F824006FF00200186020688368C3F3A5
:103980004243072B05D1A84208D1096811F4702FD2
:1039900004D0816841F480118160B9E7816841F405
:1039A000A001F9E7002801400424014010B50446B5
:1039B00090F82400012807D0012084F82400204634
:1039C000FEF7FCF910B107E0022010BDA16A21F456
:1039D000885141F00101A162002184F8241010BD3A
:1039E00070B5044600F046FA0546601C02D0044853
:1039F0000078044400F03EFA401BA042FAD370BDA8
:103A0000CC0000202DE9F047054626480F46012648
:103A1000017E01290FD00121814601762868DFF857
:103A200088804CF25034022808D0A2462046FFF786
:103A3000FDFBA8B131E00220BDE8F0872046FFF78A
:103A4000F5FB08BB0120FFF791FB2046FFF7EEFBDB
:103A5000D8F81010064621F00401C8F810101CE038
:103A60004FF0FF303860AC6811E02046FFF790FB64
:103A70005046FFF7DBFBD8F81010060021F00201DA
:103A8000C8F8101001D03C6007E004F58064D5E967
:103A9000020100EB8120A042E7D8002189F818102C
:103AA0003046C9E7180B0020002002400348016996
:103AB00041F08001016100207047000000200240B9
:103AC0002DE9F05F07461C4888460024017E154614
:103AD0001E46012909D00121814601764CF2503A57
:103AE0005046FFF7A3FB18B122E00220BDE8F09F8B
:103AF000012F02D0022F00D00427D346DFF83CA0CC
:103B0000220128463146FCF7B5FB81B208EB4400A0
:103B1000FFF750FB5846FFF789FBDAF8102022F038
:103B20000102CAF8102018B9641CE4B2BC42E7D301
:103B3000002289F81820D9E7180B00200020024045
:103B4000064900200A69120607D5054A4A60054A57
:103B50004A600969090600D501207047002002402B
:103B600023016745AB89EFCD2DE9F04300233E4F9C
:103B70000F2573E001229A400A406DD023F0030420
:103B8000E619D6F808809C074FEA147C05FA0CF970
:103B900009EA0804DFF8D480404502D14FF000085C
:103BA00016E0DFF8CC80404502D14FF001080FE06D
:103BB000DFF8C080404502D14FF0020808E0DFF88E
:103BC000B880404502D14FF0030801E04FF00408EF
:103BD00008FA0CF8A04522D1284CD4F800C02CEAF1
:103BE000020CC4F800C0241DD4F800C02CEA020C5A
:103BF000C4F800C0214C0C34D4F800C02CEA020CEC
:103C0000C4F800C0241FD4F800C02CEA020CC4F889
:103C100000C0D6F808C02CEA090CC6F808C0FF2A74
:103C200001D8064601E000F104064FEA830401D9F9
:103C3000A4F12004D6F800C005FA04F82CEA080C18
:103C40004FF0040808FA04F84CEA080CC6F800C063
:103C5000C46824EA0204C46003F1010331FA03F2E8
:103C600088D1BDE8F0830000000001400008014059
:103C7000000C01400010014000140140000401400C
:103C80002DE9F84FDFF8B8910024A9F1040B234681
:103C90000F2709F1040AABF1040EC9E00125A54084
:103CA0002A40AA427DD1674ED1F804C0ACEB060889
:103CB000B44532D014DCBCF1030F3AD009DCBCF1BE
:103CC000000F2AD0BCF1010F1CD0BCF1020F31D182
:103CD0001DE0BCF1110F17D0BCF1120F2AD119E071
:103CE000B8F5881F19D006DCB8F5803F15D0B8F5B7
:103CF000801F1FD111E0B8F5001F0ED0B8F5041FCA
:103D000018D10AE0CB6815E0CB681B1D12E0CB6828
:103D100008330FE0CB680C330CE08B682BB1012B20
:103D20004FF0080303D0456104E0042302E005617D
:103D300000E00023FF2A01D8064601E000F1040656
:103D40004FEA840501D9A5F12005D6F8008007FACD
:103D500005FC28EA0C0803FA05F548EA0508C6F848
:103D600000804D68ED0062D5374DAE6946F0010622
:103D7000AE61AD6924F0030605F001050095334DF1
:103D800006EB050CDCF80850A607360F07FA06F814
:103D900025EA0805DFF8B880404503D14FF0000858
:103DA00017E044E0DFF8AC80404502D14FF0010855
:103DB0000FE0DFF8A480404502D14FF0020808E090
:103DC000DFF89880404502D14FF0030801E04FF042
:103DD000040808FA06F848EA0508CCF808804D6897
:103DE000D9F80060ED024D4601D5164300E0964338
:103DF0002E604D68DAF80060AD02554601D51643D5
:103E000000E096432E604D68DBF80060AD035D4630
:103E100001D5164300E096432E604D68DEF8006041
:103E2000ED03754601D5164300E096432E60641CF1
:103E30000D682A46E5407FF431AFBDE8F88F0000F9
:103E40000804014000001110001002400000014071
:103E500000080140000C0140001001400014014026
:103E60008068084000D0012070470AB101617047A6
:103E70000904FBE70148806870470000CC0000207F
:103E800010B5040013D0242084F83D002068016898
:103E900021F001010160204600F0BCFB00202064FD
:103EA00084F83D0044F8300FA073207310BD01204A
:103EB00010BD000070B5040025D094F83D00002529
:103EC00020B984F83C50204600F0D0FB242084F830
:103ED0003D002068016821F001010160206801684F
:103EE00041F4004101602068016821F40041016053
:103EF00000F034FE4D4A6168914201D84C4900E01F
:103F00004C49884201D2012070BD4B492368B0FB67
:103F1000F1F15E6826F03F060E435E6063689342EF
:103F200006D94FF4967359434FF47A73B1FBF3F10A
:103F30002368491C1E6A26F03F06314319626168F6
:103F4000914210D84900401EB0FBF1F2521CC2F35E
:103F50000B02042A01D2042022E0B0FBF1F0401C45
:103F6000C0F30B001CE0A268F2B301EBC10303EB4A
:103F70000116431EB3FBF6F35B1C43F480431B05A1
:103F800049D092B301EBC10202EB0111401EB0FB1C
:103F9000F1F0401CC0F30B0040F4804040F40040BE
:103FA0002168CA694CF6FF739A431043C861D4E98B
:103FB000071001432068026822F0C002114301602B
:103FC000D4E9030101432068826848F2FF339A4331
:103FD00011438160D4E9050108432168CA6822F0D1
:103FE000FF021043C86001E00EE016E0206801689F
:103FF00041F0010101602564202084F83D00256323
:1040000084F83E50002070BD01EB4106431EB3FB17
:10401000F6F35B1CB3E70120C2E701EB4101401E50
:10402000B0FBF1F0401CC0F30B00B7E7A086010025
:1040300080841E0000093D0040420F002DE9F84F2A
:104040000025DDF82890984617468A4604460095D4
:10405000FFF710FF064694F83D0020287AD1192377
:10406000012286492046009601F0A2FE0028F5D1E3
:1040700094F83C0001286DD0012084F83C002068B1
:104080000168C90703D1016841F00101016020689E
:10409000016821F400610160222084F83D001020B5
:1040A00084F83E0025646762A4F82A80608D20852C
:1040B0007348E06233464A465146204601F00AFD05
:1040C00000287CD1208DDFF8BC81202768B1012831
:1040D00014D00228206801681ED041F4806101607C
:1040E0002068416980690090BBE02068416981696E
:1040F0000091016841F400710160B2E0206801683C
:1041000021F48061016072B6206841698169009183
:10411000016841F400710AE041F40061016072B687
:104120002068416981690091016821F48061016022
:1041300062B696E0032865D801280CD002284B46C9
:104140004FF000024146204600960BD001F030FEB1
:10415000A8BB0CE090E032464946204601F0CEFE76
:1041600068BB71E001F024FE48BB72B633E0206802
:10417000016821F48061016072B620680069616A9B
:104180000870606A401C6062208D401E2085608D32
:10419000401E60853C4846F2A8110068B0FBF1F073
:1041A000C0EBC00000EB80000090401E009007D0E4
:1041B00020684069C04340070DD50098F5E727E027
:1041C00044F8305F6773A573206940F020002061D8
:1041D00062B625731CE02068016841F4007101603B
:1041E00020680069616A0870606A401C6062218D05
:1041F000491E2185618D491E618562B62168096964
:10420000017025E032464946204601F077FE10B1A4
:104210000120BDE8F88F20680069616A0870606A53
:10422000401C6062208D401E81B22185608D401E41
:10423000608520684269D243520712D4032903D112
:10424000016821F48061016020680069616A08707A
:10425000606A401C6062208D401E2085608D401E7B
:104260006085208D00287FF465AF84F83D7084F868
:104270003E5084F83C50CCE70220CAE70200100010
:104280000000FFFF04000100D80000202DE9F84FD6
:104290001F4690468A460446DDF82890FFF7EAFD5F
:1042A000054694F83D0020287FD11923012240497A
:1042B0002046009501F07CFD002876D194F83C0062
:1042C000012872D0012084F83C0020680168C907E9
:1042D00003D1016841F0010101602068016821F407
:1042E00000610160212084F83D00102084F83E0028
:1042F00000262664C4F824806785608D20852D48BB
:10430000E0622B464A465146204601F059FC90B9DE
:10431000206841698069009036E02A464946204677
:1043200001F024FE50B1206C042804D120680168FB
:1043300041F4007101600120BDE8F88F606A2168D6
:1043400000780861606A401C6062618D491E618569
:10435000218D491E89B2218522685369DB435B07A1
:104360000BD451B100781061606A401C6062608DAE
:10437000401E6085208D401E20852A4649462046E5
:1043800001F0EAFC0028CED1208D0028C5D154F8D8
:104390003D0B016841F400710160202004F81E0902
:1043A000E67766770020C7E7FFE70220C4E7000052
:1043B000020010000000FFFF2DE9FF4F83B0002531
:1043C000DDE910799A4693460446DDF84880009569
:1043D000FFF750FD064694F83D0020287CD11923B4
:1043E000012288492046009601F0E2FC0028F5D120
:1043F00094F83C0001286FD0012084F83C0020682C
:104400000168C90703D1016841F00101016020681A
:10441000016821F400610160222084F83D00402001
:1044200084F83E0025646762A4F82A90608D208598
:104430007548E062CDE9008653465A462046049905
:1044400001F00CFC00287CD1208DDFF8C0912027E2
:1044500068B1012814D00228206801681ED041F4F8
:10446000806101602068416980690090BCE020683B
:10447000416981690091016841F400710160B3E014
:104480002068016821F48061016072B6206841698A
:1044900081690091016841F400710AE041F4006112
:1044A000016072B62068416981690091016821F458
:1044B0008061016062B697E0032865D801280CD0BE
:1044C000022843464FF000024946204600960BD092
:1044D00001F06EFCA8BB0CE091E03246414620465C
:1044E00001F00CFD68BB72E001F062FC48BB72B6E3
:1044F00033E02068016821F48061016072B62068B1
:104500000069616A0870606A401C6062208D401E0C
:104510002085608D401E60853D4846F2A8110068E8
:10452000B0FBF1F0C0EBC00000EB80000090401E3B
:10453000009007D020684069C04340070DD500981F
:10454000F5E727E044F8305F6773A573206940F012
:104550002000206162B625731CE02068016841F4E8
:104560000071016020680069616A0870606A401C1F
:104570006062218D491E2185618D491E618562B66B
:1045800021680969017026E032464146204601F063
:10459000B5FC18B1012007B0BDE8F08F20680069B4
:1045A000616A0870606A401C6062208D401E81B2A2
:1045B0002185608D401E608520684269D243520784
:1045C00012D4032903D1016821F4806101602068BD
:1045D0000069616A0870606A401C6062208D401E3C
:1045E0002085608D401E6085208D00287FF464AF9B
:1045F00084F83D7084F83E5084F83C50CBE70220AC
:10460000C9E70000020010000000FFFF04000100E5
:10461000D800002010B50068104A1149114C904292
:1046200009D1C86920F40010C86140212046FFF775
:104630009BFA80210CE00C4A90420ED1C86920F40C
:104640008000C86111152046FFF78EFA4FF4006113
:104650002046BDE81040FFF787BA10BD0054004067
:1046600000100240000C01400058004030B585B0F9
:10467000002100910191029103911E4D03681E4C8F
:10468000122103221D48AB4216D1A36943F008034F
:10469000A361A369039203F008030493C023CDE947
:1046A00000316946FFF7ECFAE06940F40010E06180
:1046B000E06900F4001019E0114DAB4217D1A36975
:1046C00043F00803A361A369039203F00803049372
:1046D0004FF44063CDE900316946FFF7D1FAE06954
:1046E00040F48000E061E06900F48000049005B0CF
:1046F00030BD00000054004000100240000C01409A
:104700000058004070B5040013D021684CF6CC402E
:104710000860216845F255500860D4E90001416005
:104720002168A0688860FFF7A5FB054641F23C368A
:104730000DE0012070BD00BFFFF79CFB401BB042A5
:1047400005D92068C068800701D0032070BD2068AB
:10475000C0688007F0D121684AF6AA2008600020CE
:1047600070BD00684AF6AA21016000207047000071
:10477000024881680278114481607047CC000020B3
:10478000074810B5016841F010010160032000F0F6
:1047900075F80F2000F006F800F024F8002010BD96
:1047A0000020024070B50D4D04464FF47A71287810
:1047B000B1FBF0F00A490968B1FBF0F000F0A4FB8E
:1047C00048B9102C07D200222146501E00F036F8BE
:1047D00000206C6070BD012070BD0000CC00002086
:1047E000D80000200C4808B5816941F001018161C1
:1047F000816901F001010091C16941F08051C161FD
:10480000C06900F0805000900448416821F0E061E8
:1048100041F00071416008BD0010024000000140FD
:10482000002809DB00F01F020121914040098000AF
:1048300000F1E020C0F8001170470000F0B40E4B0A
:104840001B680C46C3F30223C3F10705042D00D9EE
:104850000425191D072901D2002300E0DB1E0126D3
:1048600006FA05F1491E214099409E40761E1640E9
:104870003143F0BC02F0B1BA0CED00E0064900F0A3
:10488000070208684FF6FF03184040EA0220034A77
:1048900010430860704700000CED00E00000FA05CE
:1048A00010B501460020234C012922D0022939D01D
:1048B00010291DD161682268D20119D51E48C1F3A3
:1048C0008342C903805C0AD561681B4AC1F3404139
:1048D000921E515C194AB2FBF1F1484301E01849BC
:1048E00048436168490203D440000321B0FBF1F062
:1048F00010BD226AC2F30121012903D1920701D51B
:10490000C80310BD022905D1626A920702D549F693
:10491000404010BD0329FCD121688903F9D54FF22D
:10492000244010BD00F02AF96168C1F38131491CAF
:104930004900DBE700100240A07A000800127A006C
:1049400000093D002DE9F84305460078354CC007C5
:1049500054D0E0690026C00008D4E06940F08050DF
:10496000E061E069012600F0805000902E48016867
:10497000C90512D40168804641F480710160FFF7D7
:1049800079FA074605E000BFFFF774FAC01B6428F8
:1049900023D8D8F80000C005F6D5206A10F440707E
:1049A00021D0A98801F4407181421CD0206A1F499E
:1049B000012220F440700A6000220A602062C007D1
:1049C00011D0FFF757FA074641F2883808E000BFD8
:1049D000FFF750FAC11B414502D90320BDE8F88317
:1049E000206A8007F4D5206A696820F44070084383
:1049F00020621EB1E06920F08050E06128788007D5
:104A000005D56068A96820F44040084360602878B4
:104A1000C00605D56068E96820F48000084360603E
:104A20000020DBE7001002400070004040044242DA
:104A30002DE9F0470F46050061D0434E306800F085
:104A40000700B84209D2306820F0070038433060D0
:104A5000306800F00700B84251D128683B4C81070C
:104A600012D5400703D5606840F4E06060602878A4
:104A7000000703D5606840F4605060606068A96812
:104A800020F0F000084360602878C00728D06868EC
:104A9000012810D02168022810D0890700292EDAB9
:104AA000616821F0030101436160FFF7E3F980468B
:104AB00041F288390DE021688903EFE78901EDE7CC
:104AC000FFF7D8F9A0EB0801494502D90320BDE85A
:104AD000F0876068696800F00C00B0EB810FEFD1DF
:104AE000306800F00700B8420BD9306820F00700AA
:104AF00038433060306800F00700B84201D0012030
:104B0000E5E72878400705D56068E96820F4E060AB
:104B1000084360602878000706D56068296920F49A
:104B2000605040EAC100606000F038F86168084AEF
:104B3000C1F30311515CC84006490860064800688B
:104B4000FFF730FE0020C2E70020024000100240C4
:104B5000B07A0008D8000020D000002004480549A1
:104B600000684968044AC1F30221515CC84070479B
:104B7000D800002000100240C07A0008044805490F
:104B800000684968044AC1F3C221515CC8407047BB
:104B9000D800002000100240C07A00080E4A516878
:104BA0000E4801F00C03042B11D0082B0FD10C4838
:104BB000C1F38343C903C05C0AD55168084AC1F3F5
:104BC0004041921E515C054A5043B0FBF1F07047E2
:104BD00004494843704700000010024000127A0068
:104BE0008E7A000800093D002DE9F84F040070D0CE
:104BF0002078C04DC00749D06868C0F38100012803
:104C000007D06868C0F38100022809D16868C00332
:104C100006D52868800339D560680028E7D035E0DC
:104C20006068B0F5803F0BD010B1B0F5A02F11D067
:104C3000286820F480302860286820F4802002E072
:104C4000286840F480302860606890B1FFF712F95E
:104C500006460AE0286840F480202860F0E700BF9C
:104C6000FFF708F9801B642873D828688003F7D5FC
:104C70000CE0FFF7FFF8064605E000BFFFF7FAF883
:104C8000801B6428F0D828688003F7D420789A4ED7
:104C900080074FF001094FF0000839D5686810F01F
:104CA0000C0F07D06868C0F38100022809D168683A
:104CB000C00306D42868800714D52069012808D1CC
:104CC00010E02069B0B1C6F80090FFF7D3F80746AE
:104CD00005E00AE1FFF7CEF8C01B0228C4D8286817
:104CE0008007F7D52868616920F0F80040EAC10024
:104CF00028600DE0C6F80080FFF7BCF8074604E026
:104D0000FFF7B8F8C01B022823D828688007F7D41B
:104D1000207800072CD57948A169D9B1C0F8009056
:104D2000FFF7A8F8074604E0FFF7A4F8C01B022825
:104D30000FD8686A8007F7D571484FF4FA510068B8
:104D4000B0FBF1F0009000BF0098411E0091FAD234
:104D50000EE080E0C0F80080FFF78CF8074604E022
:104D6000FFF788F8C01B022875D8686A8007F7D457
:104D70002078400760D5E8690027C00008D4E869BA
:104D800040F08050E861E869012700F08050009011
:104D90005C480168C90513D40168834641F48071F9
:104DA0000160FFF767F8824606E000BFFFF762F890
:104DB000A0EB0A0064284ED8DBF80000C005F5D54A
:104DC000E06801280AD008B1052813D0286A20F02D
:104DD00001002862286A20F0040002E0286A40F0FE
:104DE00001002862E06841F2883B98B1FFF742F881
:104DF00082460BE0286A40F004002862EEE700BF1C
:104E0000FFF738F8A0EB0A0159455AD8286A8007FD
:104E1000F6D50CE0FFF72EF8824605E0FFF72AF8FA
:104E2000A0EB0A0159454CD8286A8007F6D41FB177
:104E3000E86920F08050E861E06988B36968C1F3EF
:104E40008101022944D00228C6F8608004D0FFF70F
:104E500011F8044638E034E0FFF70CF8074604E0A8
:104E6000FFF708F8C01B02282BD828688001F7D468
:104E7000206AB0F5803F05D16868A16820F4003051
:104E800008436860D4E908010843696821F4741193
:104E900008436860C6F86090FEF7ECFF044606E041
:104EA00025E000BFFEF7E6FF001B022809D82868AE
:104EB0008001F7D51BE000BFFEF7DCFF001B0228D6
:104EC00002D90320BDE8F88F28688001F4D40EE0F1
:104ED0000128F7D06868226A00F48031914204D139
:104EE000616A00F47010884201D00120EAE70020D6
:104EF000E8E7000000100240000042428004424205
:104F0000D80000200070004010B5401EB0F1807F36
:104F100001D3012010BD4FF0E02460610F21601724
:104F200001F05BFF0020A06107202061002010BD80
:104F30007047704710B590F83C20012A22D001221A
:104F400080F83C20CA688C6822F4407222434C6886
:104F500022F4806222430C6822F4006222430C692E
:104F600022F4805222434C6922F400522243C96940
:104F7000002322F480420A4301684A6480F83C30EE
:104F8000002010BD022010BD70B590F83C20012A11
:104F900026D0012480F83C40022280F83D2003689E
:104FA0005A689D6822F070060A6832435A600D4BB9
:104FB00002689A4208D0B2F1804F05D00A4B9A425B
:104FC00002D00A4B9A4204D1496825F08003194364
:104FD000916080F83D40002180F83C10084670BD8B
:104FE000022070BD002C0140000400400008004079
:104FF00010B5040003D094F83D0010B107E0012083
:1050000010BD002084F83C00204600F01FF802206C
:1050100084F83D00211D206801F092FC012084F8F5
:10502000460084F83E0084F83F0084F8400084F88D
:10503000410084F8420084F8430084F8440084F876
:10504000450084F83D00002010BD000000B585B08B
:1050500000210091019102910391194A01681948B8
:10506000914209D1816941F400618161806900F454
:105070000060049005B000BD134A9142FAD1C169A5
:1050800041F00201C161C16901F00201049181692D
:1050900041F0040181618069694600F004000490D8
:1050A00080200090012002900848FEF7E9FD0022D0
:1050B00001211D20FFF7C2FB1D20FFF7B1FBD9E73F
:1050C000002C014000100240000400400008014094
:1050D00070B5044690F83C000025012817D0012641
:1050E00084F83C60022084F83D002068826822F049
:1050F000770222F47F4282600868502838D00DDCA5
:1051000020284FD005DC90B3102811D14AE00220AE
:1051100070BD302846D040280AD13BE060282FD00F
:1051200070280DD0B0F5805F03D0B0F5005F12D0CD
:10513000012584F83D60002084F83C00284670BDBD
:10514000CB68D1E90121206801F043FC2068816827
:1051500041F0770109E0CB68D1E90121206801F035
:1051600038FC2068816841F480418160E1E719E002
:10517000CA684968206801F0E1FC5021206806E017
:10518000CA684968206801F017FD6021206801F0B5
:105190002AFCCEE7CA684968206801F0CFFC4021AC
:1051A0002068F4E7226801461046F0E7FEF768B889
:1051B0002DE9F041054690F83C0000260C460128F8
:1051C00010D0012085F83C0072B1042A1CD0082AB6
:1051D0002CD00C2A50D00126002085F83C00304607
:1051E000BDE8F0810220FBE7D4E90012E3682868FB
:1051F00001F0B6FC2868816921F00C018161286802
:105200008169A26811430FE0D4E90012E3682868BD
:1052100001F0E4FC2868816921F44061816128681B
:105220008169A26841EA02218161D5E72868D4E951
:10523000002C277B036A016A21F480710162C16935
:1052400023F4007321F0030141EA0C0121F0F00C7A
:1052500039074FF400774CEA116107EA02221A433A
:10526000C16102622868C16921F00C01C16128682E
:10527000C169A26811432BE02868D4E90021E768DE
:10528000036AD0F820C02CF4805CC0F820C0D0F8AD
:105290001CC023F400532CF4407C4CEA012121F47F
:1052A000704C4FF6FF7101EA07314FF4005741EAA5
:1052B0000C0107EA02321A43C16102622868C1691F
:1052C00021F44061C1612868C169A26841EA0221F4
:1052D000C16181E710B5040003D094F83D0010B11E
:1052E00007E0012010BD002084F83C00204600F0BB
:1052F0001EF8022084F83D00211D206801F020FBEB
:10530000012084F8460084F83E0084F83F0084F8C9
:10531000400084F8410084F8420084F8430084F897
:10532000440084F8450084F83D00002010BD70471B
:1053300030B50446002551B104290DD0082910D0FC
:1053400094F8410094F84520012811D10EE094F81A
:105350003E0094F84220F7E794F83F0094F8432089
:10536000F2E794F8400094F84420EDE7012A01D0D8
:10537000012030BD022059B1042912D0082919D0CA
:1053800084F8410084F845000C2938D0012534E028
:1053900084F83E0084F842002068C26842F00202AD
:1053A00010E084F83F0084F843002068C26842F0AF
:1053B000040207E084F8400084F844002068C268D2
:1053C00042F00802C2600122206801F0F5FA0E499D
:1053D0002068884208D0B0F1804F05D00B49884240
:1053E00002D00B49884204D1816801F007010629E7
:1053F00003D0016841F001010160284630BD2068FA
:10540000C26842F01002DDE7002C014000040040B9
:10541000000800402DE9F04104460068C6680569AF
:105420004FF00007A90713D5B10711D5F91E016187
:1054300001202077206880698007204602D0FFF78E
:10544000B5FE04E000F0A4F8204600F036F9277716
:10545000680716D5700714D521686FF0040008613D
:10546000022020772068806910F4407F204602D017
:10547000FFF79CFE04E000F08BF8204600F01DF9D9
:105480002777280715D5300713D521686FF0080056
:105490000861042020772068C0698007204602D078
:1054A000FFF784FE04E000F073F8204600F005F9F1
:1054B0002777E80616D5F00614D521686FF010009E
:1054C0000861082020772068C06910F4407F2046DA
:1054D00002D0FFF76BFE04E000F05AF8204600F01F
:1054E000ECF82777E80708D0F00706D021686FF0BE
:1054F00001000861204600F02FF9280608D5300683
:1055000006D521686FF0800008612046FFF710FD86
:10551000680608D5700606D521686FF0400008615E
:10552000204600F02FF9A8060AD5B00608D5216854
:105530006FF0200008612046BDE8F041FFF7F9BC9C
:10554000BDE8F08100B585B0002100910191029184
:10555000039100680B49884212D10B48816941F0E0
:10556000040181618069694600F0040004904FF4F1
:10557000807000900220019003900448FEF780FBA9
:1055800005B000BD002C01400010024000080140A1
:10559000704770B5044690F83C0000260D4601287F
:1055A0000FD0012084F83C006AB1042A1DD0082ADB
:1055B0002FD00C2A3FD00126002084F83C00304632
:1055C00070BD022070BD206801F016FA2068816964
:1055D00041F0080181612068816921F00401816145
:1055E000206881692A69114311E0206801F02CFAD2
:1055F0002068816941F4006181612068816921F43A
:1056000080618161206881692A6941EA02218161A2
:10561000D2E7206801F044FA2068C16941F008012E
:10562000C1612068C16921F00401C1612068C169BC
:105630002A69114311E0206801F05EFA2068C1690F
:1056400041F40061C1612068C16921F48061C161D8
:105650002068C1692A6941EA0221C161ACE710B53D
:10566000040003D094F83D0010B107E0012010BD04
:10567000002084F83C00204600F01EF8022084F848
:105680003D00211D206801F05BF9012084F84600EF
:1056900084F83E0084F83F0084F8400084F841001C
:1056A00084F8420084F8430084F8440084F84500FC
:1056B00084F83D00002010BD7047704710B50446C7
:1056C000022249B104290ED0082913D094F84100D0
:1056D000012816D0012010BD94F83E000128F9D110
:1056E00084F83E200FE094F83F000128F2D184F8BE
:1056F0003F2008E094F840000128EBD184F84020D6
:1057000001E084F841200122206801F055F90F4999
:105710002068884203D1426C42F40042426420680F
:10572000884208D0B0F1804F05D00949884202D0A4
:105730000849884204D1816801F00701062903D095
:10574000016841F001010160002010BD002C014002
:10575000000400400008004070470246002041B1AC
:10576000042909D008290AD00C2901D11068006C3D
:1057700070471068406B70471068806B7047106806
:10578000C06B7047704770B5040004D094F84100B6
:10579000002510B106E0012070BD84F8405020467D
:1057A00000F024F8242084F841002068C16821F426
:1057B0000051C160204601F053FA2068016921F4CC
:1057C000904101612068416921F02A01416120680E
:1057D000C16841F40051C1606564202084F8410033
:1057E00084F842006563002070BD000030B585B0CC
:1057F00000240094019402940394006814498842A0
:1058000024D11448816941F480418161816901F4A6
:1058100080410491816941F00401816180690E4DEC
:1058200000F0040004904FF40070009002200190FA
:105830000320039069462846FEF722FA2815CDE991
:105840000004694628460294FEF71AFA05B030BDF6
:105850000038014000100240000801402DE9F843E3
:10586000044690F84100984616460D46202802D07E
:105870000220BDE8F88385B17EB10020606421205C
:1058800084F84100FEF7F6FAA6848146E684A06813
:105890002027B0F5805F02D003E00120E9E720690E
:1058A00010B12E4600250EE000260CE08021204697
:1058B00001F032FAA8B9C6B116F8010B21684860A8
:1058C000E08C401EE084E08C4B464FF00002CDF8A7
:1058D00000800028EAD14FF04001204601F01CFA78
:1058E00040B184F841700320C3E735F8020BC0F3E0
:1058F0000800E3E784F841700020BAE7FEE7000003
:1059000070B50D460646124901F0C8FB0446114920
:10591000304601F07DFD214601F034FC01F082FAB1
:105920000D4901F075FD294601F072FD0B4901F0AA
:1059300029FC05460A49304601F0B0FB04460949F6
:10594000284601F065FD2146BDE8704001F01ABC13
:1059500000807343295C8D418195C3400000C8429B
:105960003393884333B3584310B501F089FE10F1E7
:10597000FF4F01D380F00040B0F1804F01DA0120E9
:1059800010BD002010BD00002DE9FF473448FEF790
:1059900077FA4FF4806601AA11254FF001084FF005
:1059A000030900962F4C82E8200369462046FEF743
:1059B00067F9E71401AA009782E8200369462046A8
:1059C000FEF75EF9012239462046FEF74EFA002521
:1059D000002231462046FEF748FA0120FEF700F883
:1059E000012231462046FEF740FA0120FDF7F8FF7C
:1059F00039462046FEF734FA012803D06D1CEDB27B
:105A0000092DE5D3002239462046FEF72EFA012063
:105A1000FDF7E6FF012231462046FEF726FA012077
:105A2000FDF7DEFF012239462046FEF71EFA01206F
:105A3000FDF7D6FF31462046FEF712FA012805D1C0
:105A400039462046FEF70CFA012802D006A0FDF7E1
:105A500005FB00F0B5FB0EA0FDF700FBBDE8FF87DE
:105A6000E0010020000C01405741524E3A204932DB
:105A7000433220E681A2E5A48DE5908EE680BBE767
:105A8000BABFE4BB8DE5BC82E5B8B85C720A000021
:105A90004932433220E680BBE7BABFE681A2E5A4E3
:105AA0008D0D0A0001684A69D24352050FD46FF484
:105AB00080624A61002140F8301F202242738173C6
:105AC000026942F004020261017301207047002064
:105AD000704700002DE9F84F0446C06A1E46934601
