:020000040800F2
:10000000D022002045010008C5230008C7230008AE
:10001000CB230008CF230008D323000800000000F2
:10002000000000000000000000000000D7230008CE
:10003000D923000800000000DB230008DD230008AE
:100040005F0100085F0100085F0100085F01000810
:100050005F0100085F0100085F0100085F01000800
:100060005F0100085F0100085F0100085F010008F0
:100070005F0100085F0100085F0100085F010008E0
:100080005F0100085F010008793000085F01000887
:100090005F0100085F0100085F0100085F010008C0
:1000A0005F010008E58800085F0100082F8800084C
:1000B0007B8600085F0100086B3700085F010008BD
:1000C0005F0100085F0100085F0100085F01000890
:1000D0005F010008A14200082B6F0008136E0008A2
:1000E0005F0100085F0100085F0100085F01000870
:1000F0007F3700085F0100085F0100085F0100080A
:100100005F0100085F010008A15400085F010008BA
:100110005F010008337E00085F0100085F010008EE
:100120005F0100085F0100085F0100085F0100082F
:10013000DFF80CD00DF002FC00480047B5220008A3
:10014000D02200200648804706480047FEE7FEE729
:10015000FEE7FEE7FEE7FEE7FEE7FEE7FEE7FEE777
:1001600047020008310100080CB500200190009002
:100170006C48006840F480306A49086000BF6948F4
:10018000006800F4003000900198401C0190009835
:1001900018B90198B0F5A06FF1D16248006800F479
:1001A000003010B10120009001E000200090009884
:1001B000012843D15C48006840F010005A490860AB
:1001C0000846006820F0030008600846006840F018
:1001D0000200086053484068524948600846406839
:1001E00048600846406840F48060486008464068BF
:1001F00020F47C1048600846406840F4E8104860ED
:100200000846006840F08070086000BF45480068FC
:1002100000F000700028F9D04248406820F0030048
:10022000404948600846406840F00200486000BF0E
:100230003C48406800F00C000828F9D10CBD10B50E
:10024000FFF792FF10BD10B53648006840F001007E
:1002500034490860084640683449084031494860DC
:1002600008460068324908402E4908600846006880
:1002700020F4802008600846406820F4FE004860B2
:100280004FF41F008860FFF7DAFF4FF00060294944
:10029000086010BD10B5002100200022214B5B68D2
:1002A00003F00C0121B1042906D0082928D107E068
:1002B000214B224C236027E01F4B204C236023E07E
:1002C000184B5B6803F47010164B5B6803F48032C4
:1002D000022303EB904022B9194B4343174C236090
:1002E0000DE0104B5B6803F4003323B1144B434320
:1002F000124C236003E0104B4343104C236003E097
:100300000D4B0E4C236000BF00BF064B5B68C3F370
:1003100003130C4CE15C094B1B68CB40074C23607A
:1003200010BD000000100240002002400000FFF855
:10033000FFFFF6FE08ED00E000127A00000000204A
:1003400000093D000400002031490143314A116099
:10035000704770B5002100230F22C47804B32D4CE0
:10036000246804F4E064C4F5E064210AC1F10403E4
:10037000CA40447804FA03F1847814402143090107
:10038000254C0678A155047804F01F050124AC40E3
:1003900005786D11AD0005F1E025C5F8004109E0D3
:1003A000047804F01F050124AC401C4D067876113A
:1003B00045F8264070BD1A4A0A400243154B1B1FE0
:1003C0001A60704739B1134A121D12680243114B6B
:1003D0001B1D1A6006E00F4A121D126882430D4B66
:1003E0001B1D1A607047042808D14FF0E0210969ED
:1003F00041F004014FF0E022116107E04FF0E021ED
:10040000096921F004014FF0E022116170470000FA
:100410000000FA050CED00E000E400E080E100E0FF
:1004200080FFFF1F10B50446FA48844208D101211D
:10043000401500F0E3FD0021601500F0DFFD17E03E
:10044000F548844208D10121001500F0D7FD0021B4
:10045000201500F0D3FD0BE0F048844208D10121C3
:10046000C80300F0CBFD00214FF4004000F0C6FDB2
:1004700010BD30B50246002000235068E84C2040F3
:100480000D790C6844EA0524204350609068E54CDF
:100490002040D1E902542C434D7944EA45042043DD
:1004A0009060D06A20F470000C7C641EE4B2234398
:1004B00040EA0350D06230BD0021016001714171FA
:1004C0008160C16001210174704721B1826842F0EE
:1004D0000102826003E0826822F0010282607047BC
:1004E00021B1826842F48072826003E0826822F463
:1004F00080728260704710B50023CBB21AB1446895
:100500001C43446002E044689C43446010BD816821
:1005100041F0080181607047014600208A6802F0BE
:1005200008020AB1012000E000207047816841F014
:10053000040181607047014600208A6802F00402CD
:100540000AB1012000E00020704721B1826842F426
:10055000A002826003E0826822F4A00282607047F9
:10056000014600208A6802F480020AB1012000E0FE
:100570000020704710B50A4600210023416821F48D
:100580006041531E41EA4331416010BD21B14268D0
:1005900042F40062426003E0426822F4006242607A
:1005A0007047F0B504460D4600200021092D11DDED
:1005B000E068A5F10A0606EB4607072606FA07F1EA
:1005C0008843A5F10A0606EB460603FA06F108433E
:1005D000E0600CE0206905EB4507072606FA07F105
:1005E000884305EB450603FA06F108432061072A14
:1005F0000FDA606B561E06EB86071F2606FA07F118
:100600008843561E06EB860605FA06F1084360632A
:1006100022E00D2A0FDA206BD61F06EB86071F2675
:1006200006FA07F18843D61F06EB860605FA06F19F
:100630000843206310E0E06AA2F10D0606EB86078E
:100640001F2606FA07F18843A2F10D0606EB86067F
:1006500005FA06F10843E062F0BD21B1826842F478
:100660008012826003E0826822F480128260704708
:100670000146C86C80B2704766484C3000687047CD
:1006800021B1426842F48062426003E0426822F491
:1006900080624260704721B1426842F480524260F9
:1006A00003E0426822F48052426070470A4600210B
:1006B000816821F4E04111438160704721B1826873
:1006C00042F40042826003E0826822F400428260C9
:1006D000704721B1826842F40212826003E08268AE
:1006E00022F4021282607047014600208A6802F4F8
:1006F00000120AB1012000E000207047F0B5044666
:100700001546002000220026092911DDE068A1F12C
:100710000A0707EB470C072707FA0CF29043A1F1F1
:100720000A0707EB470703FA07F21043E0600CE003
:10073000206901EB410C072707FA0CF2904301EB0B
:10074000410703FA07F210432061A06BC0F3015682
:10075000EF1C06F1010CA7EB0C0707EB870C1F271A
:1007600007FA0CF29043EF1C06F1010CA7EB0C0703
:1007700007EB870701FA07F21043A063F0BD10B53D
:100780000A4600210023816B21F44011531E41EAE7
:100790000351816310BD08B5002300930090009BB6
:1007A0000B440093009B1A6008BD08B50246002068
:1007B0000090009201F12800009B184400900098DE
:1007C000006880B208BD0A4600214168164B1940F6
:1007D0001143416070474162826270470A460021BE
:1007E000416821F01F0111434160704740B1094940
:1007F0000831096841F40001064A0832116007E037
:1008000004490831096821F40001024A08321160E4
:10081000704700000024014000280140003C0140D6
:10082000FFFEF0FFFDF7F1FFFFFD3FFF0246002056
:1008300013680B400BB1012000E000207047CA4351
:100840000260704770B502460020002300240B129E
:100850005568CEB205EA060415681D4015B10CB105
:10086000012000E0002070BD00220A12D343036083
:1008700070470000002044490860091D0860091DF8
:100880000860091D086041483F49143108607047FD
:1008900000213D498279002A3AD00A46126803684D
:1008A0009A430B461A600A1D126803689A430B1D8F
:1008B0001A60027911440A6803681A430A60324ACE
:1008C0000832126803689A432F4B08331A601A1DC6
:1008D000126803689A432C4B0C331A604279102A31
:1008E0000ED11A1F126803681A43274B08331A6087
:1008F0001A1D126803681A43234B0C331A600DE06B
:100900002149427911440A6803681A430A6005E0E4
:10091000027911440A6803689A430A60704700210B
:10092000016001710C2141710021817170471649EC
:10093000103109680143144A1032116070470146B2
:100940000020114A143212680A400AB1012000E066
:10095000002070470C4914310860704701460020A0
:100960000022094B1B6803EA0102074B14331B6882
:100970000B4013B10AB1012000E00020704702498A
:10098000143108607047000000040140FFFF0F00B1
:1009900010B50446CC48844208D10121042000F05F
:1009A0002DFB0021042000F029FB46E0C7488442CB
:1009B00008D10121082000F021FB0021082000F0CF
:1009C0001DFB3AE0C248844208D10121102000F00A
:1009D00015FB0021102000F011FB2EE0BD488442E1
:1009E00008D10121202000F009FB0021202000F087
:1009F00005FB22E0B848844208D10121402000F0E4
:100A0000FDFA0021402000F0F9FA16E0B3488442D4
:100A100008D10121802000F0F1FA0021802000F0AF
:100A2000EDFA0AE0AE48844207D10121801500F0BA
:100A3000E5FA0021A01500F0E1FA10BD10B5012182
:100A4000084600F0DBFA0021012000F0D7FA10BDC3
:100A50002DE9F04102460025002600200023002455
:100A6000002791F803C00CF00F0591F803C00CF0BB
:100A7000100CBCF1000F03D091F802C04CEA050540
:100A800091F800C0BCF1000F31D0146800202BE0B9
:100A90004FF0010C0CFA00F3B1F800C00CEA0306A9
:100AA0009E4220D183004FF00F0C0CFA03F7BC4399
:100AB00005FA03FC4CEA040491F803C0BCF1280FCA
:100AC00006D14FF0010C0CFA00FCC2F814C00AE089
:100AD00091F803C0BCF1480F05D14FF0010C0CFA9E
:100AE00000FCC2F810C0401C0828D1D31460B1F833
:100AF00000C0BCF1FF0F34DD546800202EE000F18F
:100B0000080C4FF0010808FA0CF3B1F800C00CEA29
:100B100003069E4221D183004FF00F0C0CFA03F71D
:100B2000BC4305FA03FC4CEA040491F803C0BCF191
:100B3000280F05D100F1080C08FA0CF8C2F814804F
:100B400091F803C0BCF1480F07D100F1080C4FF039
:100B5000010808FA0CF8C2F81080401C0828CED30F
:100B60005460BDE8F0814FF6FF7101800221817071
:100B70000421C17070470246002093680B400BB1FE
:100B8000012000E0002070470146886880B270476D
:100B900002460020D3680B400BB1012000E000208A
:100BA00070470146C86880B2704701617047416173
:100BB00070470AB1016100E041617047C160704750
:100BC0004FF480320A438261816182618269826965
:100BD000704702460020434B18684FF68073184058
:100BE00040EA021008433F4B186070473E49C86115
:100BF0007047F0B50A46002300240021002500F0CC
:100C00000046B6F1004F02D1364EF16901E0354E93
:100C10007168C0F3034583B200F44016B6F5401F77
:100C200008D121F070612F4E766826F070662D4F46
:100C30007E6012E000F48016B6F5801F06D1032610
:100C400006FA05F4A14341F0706106E0460D360155
:100C500003FA06F6B14341F0706122B1460D360148
:100C600003FA06F6314300F00046B6F1004F02D118
:100C70001C4EF16101E01B4E7160F0BD30B50022E9
:100C80008B071C0F0F2303FA04F2164B08338C104A
:100C900053F824309343134C08348D1044F8253016
:100CA00023468C1053F824308C07240F00FA04F4E8
:100CB00023430C4C08348D1044F8253030BD0A49CC
:100CC000DC3108607047000000080140000C014062
:100CD000001001400014014000180140001C0140B8
:100CE000002001400000014000002042DF48006871
:100CF00040F00100DD49086008464068DC490840D2
:100D0000DA49486008460068DA490840D74908606F
:100D10000846006820F4802008600846406820F4F7
:100D2000FE0048604FF41F0088607047CF49096893
:100D300021F48031CD4A11601146096821F48021E7
:100D40001160B0F5803F03D0B0F5802F0ED106E0E2
:100D5000C649096841F48031C44A116007E0C349BB
:100D6000096841F4A021C14A116000E000BF00BF42
:100D7000704710B501460022002300204A11012AC5
:100D800002D1BA4C236806E0022A02D1B74C236A8A
:100D900001E0B64C636A01F01F02012494401C403C
:100DA0000CB1012000E0002010BD38B500200090FB
:100DB0000024002500BF3120FFF7DBFF0546009827
:100DC000401C00900098B0F5A06F01D0002DF2D02B
:100DD0003120FFF7CEFF08B1012400E000242046B7
:100DE00038BD01460020A14A106820F0F80040EA12
:100DF000C10010607047A04908607047024600209B
:100E00009A4B586820F47C1042EA01031843974B30
:100E10005860704798490866704701460020934A19
:100E2000506820F003000843506070478F484068C6
:100E300000F00C007047014600208C4A506820F0FA
:100E4000F00008435060704701460020874A506810
:100E500020F4E06008435060704701460020834A58
:100E6000506820F4605040EAC1005060704729B1DA
:100E70007E4A527A02437D4B5A7204E07B4A527A90
:100E800082437A4B5A7270477B49D8310860704769
:100E900001460020754A506820F4404008435060E5
:100EA00070470021714A20321170704A82F8201078
:100EB000012802D004280AD104E001216B4A203223
:100EC000117005E00521694A2032117000E000BF71
:100ED00000BF70476949086070476449096A014367
:100EE000624A11627047654944390860704730B5FD
:100EF00000210022002400235C4D6D6805F00C01E8
:100F000021B1042905D0082923D105E05C4D0560F5
:100F100022E05B4D05601FE0544D6D6805F47012D2
:100F2000524D6D6805F48034022505EB92421CB9E0
:100F3000544D554305600BE04C4D6D6805F400358C
:100F40001DB1504D5543056002E04D4D55430560C0
:100F500002E04B4D056000BF00BF444D6D6805F0D9
:100F6000F0010909484D6B5C0568DD4045603F4D67
:100F70006D6805F4E061090A434D6B5C4568DD402E
:100F800085603A4D6D6805F46051C90A3E4D6B5C51
:100F90004568DD40C560354D6D6805F44041890BFD
:100FA0003A4D6B5CC568B5FBF3F5056130BD29B101
:100FB0002E4A526902432D4B5A6104E02B4A526972
:100FC00082432A4B5A61704729B1284A92690243E9
:100FD000264B9A6104E0254A92698243234B9A6129
:100FE000704729B1214AD2690243204BDA6104E0FB
:100FF0001E4AD26982431D4BDA61704729B11B4AF0
:10100000D2680243194BDA6004E0184AD26882437E
:10101000164BDA60704729B1144A12690243134B28
:101020001A6104E0114A12698243104B1A61704739
:1010300012494039086070470F49C86470470B492E
:10104000C87170470948406A40F08070074948629B
:10105000704701460020054A92680A400AB1012003
:1010600000E000207047014988727047001002407C
:101070000000FFF8FFFFF6FE0000424280044242FB
:1010800000127A0000093D00140000202400002016
:1010900010B50446FE48844208D10121C014FFF770
:1010A000ADFF0021E014FFF7A9FFC4E0B4F1804FC9
:1010B00008D101210846FFF7AEFF00210120FFF70C
:1010C000AAFFB8E0F348844208D101210220FFF7CB
:1010D000A2FF00210220FFF79EFFACE0EE48844211
:1010E00008D101210420FFF796FF00210420FFF71B
:1010F00092FFA0E0E948844208D101210820FFF7CF
:101100008AFF00210820FFF786FF94E0E44884422C
:1011100008D101211020FFF77EFF00211020FFF7EA
:101120007AFF88E0DF48844208D101212020FFF7C0
:1011300072FF00212020FFF76EFF7CE0DA48844236
:1011400008D101214014FFF759FF00216014FFF777
:1011500055FF70E0D548844209D10121C804FFF74A
:101160004DFF00214FF40020FFF748FF63E0D04817
:10117000844209D101210805FFF740FF00214FF407
:101180008010FFF73BFF56E0CA48844209D1012195
:101190004805FFF733FF00214FF40010FFF72EFF43
:1011A00049E0C548844208D101214020FFF733FFC0
:1011B00000214020FFF72FFF3DE0C048844208D1C6
:1011C00001218020FFF727FF00218020FFF723FF68
:1011D00031E0BB48844208D101218015FFF71BFF95
:1011E0000021A015FFF717FF25E0B648844209D17A
:1011F00001210804FFF702FF00214FF48030FFF7C0
:10120000FDFE18E0B048844209D101214804FFF7EF
:10121000F5FE00214FF40030FFF7F0FE0BE0AB4885
:10122000844208D101218804FFF7E8FE00214FF431
:101230008020FFF7E3FE10BD00220288944B984205
:101240000ED0994B98420BD0B0F1804F08D0914B03
:10125000984205D0904B984202D0904B984204D1CE
:101260004FF68F731A404B881A438D4B984207D024
:101270008C4B984204D04FF6FF431A40CB881A4358
:1012800002808B8883850B880385814B98420BD025
:10129000854B984208D08B4B984205D08A4B984298
:1012A00002D08A4B984201D10B7A038601238382B4
:1012B000704770B5002400220023058C4FF6FE769F
:1012C00035400584028C8388048B4FF68F752C4043
:1012D000B51E2C400D882C43751E2A400D892A43CB
:1012E0004D882A436A4DA8420BD06F4DA84208D0C2
:1012F000744DA84205D0744DA84202D0734DA84247
:1013000013D14FF6F7752A404D892A434FF6FB75E6
:101310002A408D882A434FF6FF652B404FF6FF5534
:101320002B408D892B43CD892B4383800483CD882B
:101330008586028470BD70B5002400220023058CD0
:101340004FF6EF7635400584028C8388048B48F68F
:10135000FF752C404FF6FF452C400D884FF6FF7669
:1013600006EA05252C434FF6DF752A400D8906EA6B
:1013700005152A434D8806EA05152A43444DA8421F
:1013800002D0494DA8421DD14FF67F752A404D89A4
:101390004FF6FF7606EA05152A434FF6BF752A4039
:1013A0008D8806EA05152A434FF6FF352B404FF28C
:1013B000FF752B408D8906EA85052B43CD8906EA0A
:1013C00085052B4383800483CD880587028470BD07
:1013D00070B5002400220023058C4FF6FF663540CF
:1013E0000584028C8388848B4FF68F752C404FF6D2
:1013F000FC752C400D882C434FF6FF552A400D8973
:101400004FF6FF7606EA05252A434D8806EA0525AC
:101410002A431F4DA84202D0234DA8421DD14FF2AE
:10142000FF752A404D894FF6FF7606EA05252A43C7
:101430004FF6FF352A408D8806EA05252A434EF6E9
:10144000FF752B404DF6FF752B408D8906EA05157B
:101450002B43CD8906EA05152B4383808483CD88F1
:101460008587028470BD70B5002200230024058C9E
:101470004EF6FF7635400584038C8488828B48F6CF
:10148000FF752A404FF6FF452A400D8820E00000F6
:10149000002C01400004004000080040000C004007
:1014A000001000400014004000340140004C014096
:1014B000005001400054014000180040001C004052
:1014C000002000400040014000440140004801402D
:1014D0004FF6FF7606EA05252A434DF6FF752B40A9
:1014E0000D8906EA05352B434D8806EA05352B4361
:1014F000FA4DA84202D0FA4DA84208D14BF6FF752A
:101500002C408D894FF6FF7606EA85152C438480A2
:101510008283CD88A0F84050038470BD828B4FF247
:10152000FF331A408283828B4FF6FF7303EA012355
:101530001A4382837047F0B50C46154600220021FD
:101540000026078C4EF6FF7C07EA0C070784828B87
:10155000018C4FF6FF7707EA043640F6FF473A4022
:101560004FF6FF7707EA05273A434FF6FF7707EA7A
:1015700003373A43D94FB8420ED0D94FB8420BD0B7
:10158000B0F1804F08D0D74FB84205D0D64FB842FF
:1015900002D0D64FB84206D14DF6FF77394046F417
:1015A0008057394305E047F6FF57394044F48057E8
:1015B000394382830184F0BD828B4FF6F3731A4066
:1015C0008283828B0A4382837047F0B50C461546AE
:1015D000002200210026078C4FF6FF6C07EA0C075B
:1015E0000784828B018C4FF6FF7707EA04264FF6BB
:1015F0000C773A404FF6FF7707EA03172F433A4339
:10160000B64FB8420ED0B64FB8420BD0B0F1804FB3
:1016100008D0B44FB84205D0B34FB84202D0B34F50
:10162000B84206D14FF6FF57394046F48077394328
:1016300005E04FF2FF57394044F480773943828305
:101640000184F0BD028B4FF2FF331A400283028BFC
:101650004FF6FF7303EA01231A4302837047F0B584
:101660000C461546002200210026078C4FF6EF7C21
:1016700007EA0C070784028B018C4FF6FF7707EA15
:10168000041640F6FF473A404FF6FF7707EA033764
:101690003A434FF6FF7707EA05273A438F4FB842A0
:1016A0000ED08F4FB8420BD0B0F1804F08D08D4F85
:1016B000B84205D08C4FB84202D08C4FB84206D108
:1016C0004FF6DF77394046F01007394305E04FF613
:1016D0005F77394044F01007394302830184F0BD3D
:1016E000028B4FF6F3731A400283028B0A43028384
:1016F0007047F0B50C46154600220021068C4FF6C7
:10170000FE773E400684028B018C4FF60C76324009
:101710007E1C06EA03162E433243704EB0420ED0B2
:101720006F4EB0420BD0B0F1804F08D06D4EB0423A
:1017300005D06D4EB04202D06C4EB04206D14FF68D
:10174000FD76314044F00106314305E04FF6F57671
:10175000314044F00106314302830184F0BD70B58D
:1017600005460C465D4885420ED05D4885420BD04B
:10177000B5F1804F08D05B48854205D05A48854274
:1017800002D05A48854200D100E000BF208850B9FD
:101790002389A28861882846FFF7ABFFE1882846A5
:1017A000FFF79EFF25E0208804280AD12389A2881C
:1017B00061882846FFF753FFE1882846FFF742FF7C
:1017C00017E0208808280AD12389A2886188284642
:1017D000FFF7FBFEE1882846FFF7EEFE09E02389CC
:1017E000A28861882846FFF7A6FEE1882846FFF711
:1017F00095FE70BD2DE9F04105460C4600260127F7
:10180000608808B9022600E00026A088012801D1DE
:10181000022700E001272088A0B92389A2886188D7
:101820002846FFF766FFE1882846FFF759FF23891E
:101830003A4631462846FFF712FFE1882846FFF76F
:1018400001FF13E02389A28861882846FFF707FF7C
:10185000E1882846FFF7F6FE23893A4631462846B6
:10186000FFF747FFE1882846FFF73AFFBDE8F08120
:101870000A884B881A438B881A43CB881A430B89F2
:101880001A434B891A438B891A43A0F844207047A6
:101890004FF6FF71818000210180C180418001727B
:1018A00070470021018041808180C1800181418198
:1018B0008181C181704700210180418001218180A7
:1018C0000021C18001817047002101804180818019
:1018D000C18001814181818170470000002C01405D
:1018E000003401400004004000080040000C0040AB
:1018F00021B1028842F00102028004E002884FF622
:10190000FE731A400280704731B1B0F8442042F4AF
:101910000042A0F8442005E0B0F84420C2F30E02D3
:10192000A0F8442070471AB183890B43838102E0F9
:1019300083898B43838170478182704741EA020328
:10194000A0F8483070471AB183890B43838102E0C5
:1019500083898B438381704701894FF6F872114068
:10196000018170470A46002101894FF68F731940A3
:1019700011430181704730B504460D462946204683
:10198000FFF7F0FF208940F00700208130BD2DE9EE
:10199000F04104460D4616461F46602D06D13B46D3
:1019A000012231462046FFF75AFE05E03B46012260
:1019B00031462046FFF79DFE29462046FFF7D2FF1D
:1019C000208940F007002081BDE8F08130B50C4649
:1019D00000210189C9B24FF6FF7505EA03251543B9
:1019E00025432943018130BD2DE9F04105460E46CE
:1019F00017469846002443463A4631462846FFF7A4
:101A0000E5FF2C894FF6F870044044F007044FF6C8
:101A10008F70044044F070042C81BDE8F081F0B573
:101A200004460D4616461F463B463246294620468A
:101A3000FFF7CCFF208940F480402081F0BD018574
:101A4000828270470A46002101884FF68F73194041
:101A5000114301807047F0B50C4615461E46002123
:101A6000002200230189028B038C4FF6F87739405E
:101A700021434FF6FC473A4040F201173A434FF6F4
:101A8000DD773B404FF6FF7707EA06172F433B43CE
:101A9000018102830384F0BD0A460021018B4FF6C9
:101AA0008F7319401143018370470A460021018B4F
:101AB00048F6FF7319404FF6FF7303EA02231943F8
:101AC000018370470A460021818B4FF68F731940BE
:101AD0001143818370470A460021818B48F6FF73CA
:101AE00019404FF6FF7303EA0223194381837047BD
:101AF00021B1028842F08002028004E002884FF6A1
:101B00007F731A400280704721B1828842F004023C
:101B1000828004E082884FF6FB731A40828070470F
:101B200021B1828842F00802828004E082884FF668
:101B3000F7731A408280704721B1828842F0010217
:101B4000828004E082884FF6FE731A4082807047DC
:101B50000A460021018B4FF6F773194011430183A8
:101B600070470A460021018B4FF2FF7319404FF670
:101B7000FF7303EA02231943018370470A460021D9
:101B8000818B4FF6F77319401143818370470A46E2
:101B90000021818B4FF2FF7319404FF6FF7303EA68
:101BA00002231943818370470A460021018B4FF6B7
:101BB000FB7319401143018370470A460021018BD2
:101BC0004FF6FF3319404FF6FF7303EA0223194320
:101BD000018370470A460021818B4FF6FB73194041
:101BE0001143818370470A460021818B4FF6FF33F2
:101BF00019404FF6FF7303EA0223194381837047AC
:101C00000A460021018B4FF67F731940114301836F
:101C100070470A460021018BC1F30E014FF6FF7396
:101C200003EA02231943018370470A460021818B8E
:101C30004FF67F7319401143818370470A46002194
:101C4000818BC1F30E014FF6FF7303EA02231943A0
:101C5000818370470A460021018C4FF6FD731940BD
:101C60001143018470470A460021018C4FF6F77337
:101C700019401143018470470A460021018C4FF638
:101C8000DF7319404FF6FF7303EA0213194301840F
:101C900070470A460021018C4FF67F7319404FF6BA
:101CA000FF7303EA02131943018470470A460021B7
:101CB000018C4FF6FF5319404FF6FF7303EA0223DE
:101CC0001943018470470A460021018C4FF2FF73CB
:101CD00019404FF6FF7303EA02231943018470474A
:101CE0000A460021018C4DF6FF7319404FF6FF7331
:101CF00003EA023319430184704730B500230124FD
:101D00008C40A3B2048C9C430484048C02FA01F539
:101D1000ADB22C43048430BD30B5002304248C4084
:101D2000A3B2048C9C430484048C02FA01F5ADB286
:101D30002C43048430BD70B50346002000241846AF
:101D4000183001258D40ACB21D8CA5431D8409B10E
:101D5000082909D100EB6100056825F070050560D0
:101D60000568154305600EE00D1FC5F34E052844B8
:101D7000056825F4E045056005684FF6FF7606EA3C
:101D800002263543056070BD21B1028842F002028F
:101D9000028004E002884FF6FD731A40028070470B
:101DA00021B1028842F00402028004E002884FF66A
:101DB000FB731A400280704721B1828842F0800292
:101DC000828004E082884FF67F731A4082807047D9
:101DD00002884FF6F7731A40028002880A43028095
:101DE000704782884FF68F731A40828082880A4338
:101DF0008280704702894FF6F8731A400281028987
:101E00000A430281704702894FF67F731A400281AC
:101E100002890A4302817047818470478185704737
:101E2000818670470187704781877047A0F840100E
:101E3000704702884FF6FF431A40028002880A4327
:101E4000028070470146888E70470146088F7047B0
:101E50000146888F70470146B1F84000704701463F
:101E6000888C70470146088D704702460020138A0F
:101E70000B400BB1012000E000207047CA430282F2
:101E8000704730B50246002000230024158A05EA79
:101E90000103958905EA010413B10CB1012000E0AA
:101EA000002030BDCA4302827047000010B50446CE
:101EB000FB48844209D101218803FFF79FF80021E4
:101EC0004FF48040FFF79AF832E0F648844209D197
:101ED00001214804FFF79FF800214FF40030FFF77D
:101EE0009AF825E0F048844209D101218804FFF7DF
:101EF00092F800214FF48020FFF78DF818E0EB48AE
:101F0000844209D10121C804FFF785F800214FF46C
:101F10000020FFF780F80BE0E548844208D101215A
:101F20000805FFF778F800214FF48010FFF773F8E9
:101F300010BD2DE9F04786B005460E460024A246A6
:101F400000BFA1460027B08900B100BF2F462C8AF0
:101F50004CF6FF700440F08804432C82AC894EF6A6
:101F6000F3100440B0883189084371890843044361
:101F7000AC81AC8A4FF6FF400440B0890443AC8288
:101F800001A8FEF7B4FFC648874202D1DDF810A0D1
:101F900001E0DDF80CA0A88900F4004040B10AEB94
:101FA000CA0000EB0A1031684900B0FBF1F807E005
:101FB0000AEBCA0000EB0A1031688900B0FBF1F8A7
:101FC0006420B8FBF0F004012009642101FB1089B2
:101FD000A88900F4004040B1322000EBC900B0FBFA
:101FE000F1F000F00700044308E0322000EB091094
:101FF0006421B0FBF1F000F00F0004432C8106B027
:10200000BDE8F0874FF41651016000218180C18046
:1020100001810C21418100218181704710B5024668
:102020000020108A4FF2FF0318400B884C8823438E
:102030008C882343CC8823431843108210BD002191
:10204000018041808180C180704721B1828942F442
:102050000052828104E082894DF6FF731A4082812A
:102060007047F0B50346002400260025002040F606
:102070006A17B94200D100BF1846C1F3421401F0FB
:102080001F06012707FA06F5012C01D10C3004E0E8
:10209000022C01D1103000E014301AB107682F4330
:1020A000076002E00768AF430760F0BD1AB1838A9A
:1020B0000B43838202E0838A8B4383827047028AC8
:1020C0004FF6F0731A400282028A0A430282704776
:1020D00082894FF2FF731A40828182890A4382818A
:1020E000704721B1828942F00202828104E0828934
:1020F0004FF6FD731A4082817047028A4FF6DF73F4
:102100001A400282028A0A430282704721B1028A7F
:1021100042F48042028204E0028A4BF6FF731A40C6
:1021200002827047C1F308028280704701468888A6
:10213000C0F308007047818941F001018181704737
:10214000028BD2B20283028B42EA012202837047E1
:10215000028B02F47F420283028B0A4302837047A0
:1021600021B1828A42F02002828204E0828A4FF604
:10217000DF731A408282704721B1828A42F01002D6
:10218000828204E0828A4FF6EF731A40828270479F
:1021900021B1828A42F00802828204E0828A4FF6EC
:1021A000F7731A408282704721B1828942F400425B
:1021B000828103E08289C2F30E028281704721B1DD
:1021C000828A42F40062828204E0828A4FF2FF73C4
:1021D0001A4082827047828A4FF6FB731A408282CD
:1021E000828A0A438282704721B1828A42F00202C7
:1021F000828204E0828A4FF6FD731A408282704721
:1022000002460020B1F5007F00D100BF13880B40CB
:102210000BB1012000E00020704701F40072B2F51C
:10222000007F00D100BFCA430280704770B50246EC
:10223000002400230025002040F66A16B14200D198
:1022400000BFC1F3421501F01F03012606FA03F394
:10225000012D02D19689334006E0022D02D1168A63
:10226000334001E0968A33400C12012606FA04F44A
:102270001688344013B10CB1012000E0002070BD7D
:1022800010B50022002340F66A14A14200D100BF1D
:102290000A1201249440A3B2DC43048010BD000064
:1022A000003801400044004000480040004C00401D
:1022B00000500040002400254FF4A060FEF744F8D1
:1022C00000F036FA00F0E2F800F09FF801F09EF816
:1022D00001F013FA002141F61F4000F06DFD00F0FF
:1022E000FFFA00F04CFB00F0E6FB00F097FB01F07A
:1022F0005BFA01F06FFC00F0B9FE00F05CFE4721D4
:102300004FF6FF7006F001F90AF08AFB04F00CFCAE
:102310004FF4004024490860C82000F0B3FA4FF49D
:1023200000402149091D086020480078012804D197
:10233000472142F20F7000F047FD03F085FA31218A
:1023400041F61F4000F0FFFC2CE004F0EDFB1848C4
:102350000078B8B108201749086101F049FC03F082
:1023600014FC04F02FFB00F09AFE0444681CC0B279
:10237000054605280BD1B4FBF0F00F490880002575
:10238000002404E008200B49486104F09CFB012074
:102390000A49087000200A49087000BF0748007801
:1023A0000028FBD1D1E700001008014031000020D7
:1023B00032000020001001402A00002029000020E7
:1023C00028000020704700BFFEE700BFFEE700BF07
:1023D000FEE700BFFEE770477047704710B500F09A
:1023E00028FA10BD01464906244A926942F00102CA
:1023F000224B9A61224A526822F0E062204B5A60D6
:102400001A4652680A435A60704708B50220FFF71F
:10241000E9FF0120FFF7E6FF01210420FEF7D4FDCC
:102420004FF40040ADF8000010208DF803000220AA
:102430008DF8020069461348FEF70AFB4FF400418D
:102440001048FEF7B4FB08BD28B94FF400410D4A0F
:102450001432116011E00C490968491C0A4A1160E4
:1024600081420ADB07490C31096881F40041054AC1
:102470000C3211600021044A1160704700100240C4
:1024800000000140000801405800002008B501216B
:102490001420FEF799FD0120ADF8000004208DF80E
:1024A000030069469548FEF7D3FA4FF40050ADF8A3
:1024B000000004208DF8030069469148FEF7C8FA31
:1024C00008BD70B504460D4629462046FEF753FB6D
:1024D000012808D100BF29462046FEF74CFB012801
:1024E000F9D0012070BD0020FCE710B585480078C8
:1024F000062875D2DFE800F0030F2C3E5D7D012138
:102500007E48FEF738FB012804D17E480078401C45
:102510007C49087082E07C480088401C80B27A497F
:102520000880052813D101217448FEF724FB0128F7
:1025300008D174480078401C724908700020724924
:10254000088004E00020704908806E49087065E04A
:1025500001216A48FEF70FFB012805D16A4800886F
:10256000401C6949088004E066480078401C6549C1
:10257000087053E064480088B0F5C87F06DD00208D
:102580006049087060490880022010BD5E480088DC
:10259000052808DD5B480078401C5A490870002077
:1025A0005949088004E000205649087056490880BF
:1025B00034E055480088401C80B2534908802628E2
:1025C00016D101214D48FEF7D6FA012809D14D4810
:1025D0000078401C4B49087000204B49088007E0F8
:1025E0001BE0002047490870474908800120CCE7DC
:1025F00014E001214148FEF7BEFA012805D1424806
:102600000088401C4049088006E000203E490880C0
:102610003C4908700320B8E700E000BF00BF00207D
:10262000B3E710B5FFF761FF012804D002282FD0CF
:1026300003285FD135E035480078401C33490870E5
:1026400008460078042802D106F00FFA1FE02F4850
:102650000078052807D106F07AFA4FF400402749A0
:102660001431086013E02948007806280FD10020B3
:1026700026490870264908602649086026494860AE
:10268000264948604FF400401C491431086032E08C
:102690002348007808B9012000E000202049087094
:1026A00029E01A480078042810D11E48007808B99B
:1026B000012000E000201B49087008460078C0B9DE
:1026C00040F6241118480AF0C1FC12E00F480078C7
:1026D00078B91648006808B9012000E000201349C5
:1026E00008600846006820B940F624110E480AF038
:1026F000ADFC00E000BF00BF10BD000000080140BD
:10270000001001405E0000205C000020C800002096
:10271000B4000020B000002054080020440800202D
:1027200032000020D0000020D212002054000020EF
:1027300008B501211020FEF747FC0420ADF8000089
:1027400010208DF8030002208DF80200694614481D
:10275000FEF77EF90820ADF8000069461048FEF744
:1027600077F904210E48FEF720FA08210C48FEF7FD
:102770001CFA08BD18B90421094A11610FE0094982
:102780000968491C074A1160814208DB0449C9688D
:1027900081F00401024AD1600021024A11607047B1
:1027A000001001406000002030B50146B1F1807F8B
:1027B00001D3012030BD21F07F40401E4FF0E022C8
:1027C000506150170F22002807DA13071D0E3E4BE9
:1027D00000F00F04241F1D5503E013071C0E3B4B94
:1027E0001C5400BF00204FF0E022906107201061D0
:1027F0000020DFE710B5364800683649B0FBF1F439
:102800002046FFF7D1FF08B100BFFEE710BD01B5BC
:102810003149009808604FF0E020006940F0010065
:102820004FF0E021086100BF2B4800680028FBD171
:1028300008BD2948006820B127480068401E264985
:102840000860704731B5224800682449B0FBF1F5B3
:102850002846FFF7A9FF002408E000BF4FF0E02062
:10286000006900F480300028F8D0641C009884428D
:10287000F3D34FF0E020006920F001004FF0E02199
:10288000086138BD31B5124800684FF47A71B0FB69
:10289000F1F52846FFF788FF002408E000BF4FF05D
:1028A000E020006900F480300028F8D0641C009813
:1028B0008442F3D34FF0E020006920F001004FF094
:1028C000E021086138BD000018ED00E000E400E000
:1028D00000000020A08601006400002040420F009C
:1028E00000B587B001210420FEF76EFB01218803AB
:1028F000FEF76AFB4FF40070ADF8180018208DF851
:102900001B0003208DF81A0006A9A848FEF7A0F8BE
:102910004FF48060ADF8180048208DF81B0006A920
:10292000A248FEF795F825208DF8140001208DF8B7
:1029300015008DF816008DF8170005A8FDF709FDA4
:102940004FF4E13001900020ADF80800ADF80A0026
:10295000ADF80C00ADF810000C20ADF80E0001A988
:102960009348FFF7E6FA012240F225519048FFF71D
:1029700078FB01218E48FFF768FB07B000BD00B56A
:1029800087B001210820FEF71FFB01218804FEF714
:1029900028FB4FF48060ADF8180018208DF81B005C
:1029A00003208DF81A0006A98248FEF751F84FF46B
:1029B0000060ADF8180004208DF81B0006A97D48C2
:1029C000FEF746F827208DF8140001208DF8150039
:1029D0008DF816008DF8170005A8FDF7BAFC4FF426
:1029E000165001900020ADF80800ADF80A00ADF8CF
:1029F0000C00ADF810000C20ADF80E0001A96E48D7
:102A0000FFF797FA012240F225516B48FFF729FBA7
:102A100001216948FFF719FB07B000BD00B587B079
:102A200001213020FEF7D0FA01210805FEF7D9FA7E
:102A30004FF48050ADF8180018208DF81B000320CB
:102A40008DF81A0006A95D48FEF702F80420ADF8DB
:102A500018008DF81B0006A95948FDF7F9FF35202D
:102A60008DF8140001208DF815008DF816008DF8F2
:102A7000170005A8FDF76DFC4FF4E1300190002030
:102A8000ADF80800ADF80A00ADF80C00ADF8100084
:102A90000C20ADF80E0001A94A48FFF74AFA0122BE
:102AA00040F225514748FFF7DCFA01214548FFF77E
:102AB000CCFA07B000BD00B587B001210420FEF7B5
:102AC00083FA01214804FEF78CFA0420ADF81800BF
:102AD00018208DF81B0003208DF81A0006A9334832
:102AE000FDF7B6FF0820ADF8180004208DF81B0094
:102AF00006A92E48FDF7ACFF26208DF81400012012
:102B00008DF815008DF816008DF8170005A8FDF753
:102B100020FC4FF4E13001900020ADF80800ADF842
:102B20000A00ADF80C00ADF810000C20ADF80E0056
:102B300001A92548FFF7FDF9012240F2255122485D
:102B4000FFF78FFA01212048FFF77FFA07B000BD99
:102B500070B504460D461D48007860B900BF80215D
:102B60001348FFF74DFB0028F9D0E1B21048FFF7FA
:102B7000D9FA204670BD00BF80210F48FFF740FB07
:102B80000028F9D0E1B20C48FFF7CCFA2046F1E773
:102B900010B5044600BF20210548FFF731FB00288F
:102BA000F9D00348FFF7C2FA10BD00000008014049
:102BB00000380140000C0140004800400010014076
:102BC000001401400050004000440040320000204A
:102BD00008B501210420FEF7F7F94020ADF8000008
:102BE00018208DF8030003208DF8020069466E4816
:102BF000FDF72EFF01210420FEF7E6F98020ADF855
:102C0000000018208DF8030003208DF802006946AB
:102C10006548FDF71DFF01210820FEF7D5F90120C9
:102C2000ADF8000018208DF8030003208DF8020095
:102C300069465E48FDF70CFF01210820FEF7C4F944
:102C40000220ADF8000018208DF8030003208DF855
:102C5000020069465548FDF7FBFE08BD30B587B058
:102C600005460C4601210220FEF7BBF9ADF81450D1
:102C7000ADF810400020ADF81200ADF8160004A920
:102C80004B48FEF7D9FA6020ADF800000120ADF8FE
:102C900002000020ADF80600ADF80800694644487F
:102CA000FEF707FB6020ADF800000120ADF8020040
:102CB0000020ADF80600ADF8080069463C48FEF774
:102CC0003AFB6020ADF800000120ADF802000020C2
:102CD000ADF80600ADF8080069463548FEF778FB08
:102CE0006020ADF800000120ADF802000020ADF832
:102CF0000600ADF8080069462D48FEF7B4FB082130
:102D00002B48FEF725FF08212948FEF72AFF082156
:102D10002748FEF733FF08212548FEF738FF012139
:102D20002348FEF7E5FE01212148FEF7E1FD07B04B
:102D300030BD70B504460D46FFF74AFF29462046D0
:102D4000FFF78CFF70BD7FB505460C4632208DF82D
:102D5000000002208DF8010001208DF802008DF89E
:102D600003006846FDF7F5FA01210820FEF739F95E
:102D7000ADF80850ADF804400020ADF80600ADF8FD
:102D80000A0001A90B48FEF757FA01210948FFF78D
:102D900075F8012211460748FEF7C5FD01210548D7
:102DA000FEF7A6FD7FBD000000080140000C0140B9
:102DB00000040040000C004070B504460D46294652
:102DC0002046FFF7B6FF70BD30B589B005460C460A
:102DD0000121C802FEF7F8F801210420FEF7F4F8FB
:102DE00018208DF823004FF48070ADF820000320E8
:102DF0008DF8220008A93748FDF72AFEADF81850D3
:102E0000ADF814400020ADF81600ADF81A0005A981
:102E10003148FEF711FA6020ADF804000120ADF84A
:102E200006000020ADF80A00ADF80C00ADF8100067
:102E300001A92948FEF73DFA08212748FEF788FE38
:102E400001212548FEF760FD01212348FEF750FED1
:102E500001212148FEF74CFD204800881E493431ED
:102E6000088009B030BD70B504460D461C48007896
:102E7000012805D11948008881B21748FEF7D0FF14
:102E8000002C08DA4FF4E1501649088004F5E150AF
:102E9000091D088008E04FF4E1501249091D08801F
:102EA000C4F5E150091F0880002D09DA4FF4E15004
:102EB0000C490831088005F5E150091D088008E03B
:102EC0004FF4E15007490C310880C5F5E150091F66
:102ED000088070BD00080140002C0140CC0000209B
:102EE000310000203404004008B501211020FEF715
:102EF0006BF80220ADF8000000208DF80300694651
:102F00008148FDF7A5FD08BD00B585B00121880207
:102F1000FEF75AF87D48FDF785FA002000908DF8FD
:102F200004008DF805004FF460200290002003900B
:102F300001208DF8100069467448FDF79AFA4FF4A5
:102F40004040FDF7A5FF072301220B216F48FDF745
:102F500028FB01224FF408716C48FDF7CCFA0121DF
:102F60006A48FDF7B2FA6948FDF7D1FA00BF674831
:102F7000FDF7D2FA0028FAD16448FDF7D7FA00BF6E
:102F80006248FDF7D8FA0028FAD101215F48FDF721
:102F9000DCFA05B000BD08B512208DF80000022053
:102FA0008DF8010001208DF802008DF803006846BD
:102FB000FDF7CFF908BD10B5FFF796FFFFF7A4FFA7
:102FC000FFF7E9FF10BD08B501211020FDF7FCFF58
:102FD0000120ADF8000000208DF8030069464A4842
:102FE000FDF736FD08BD00B585B001214802FDF7AB
:102FF000EBFF4748FDF716FA002000908DF804001B
:103000008DF805004FF4602002900020039001200D
:103010008DF8100069463E48FDF72BFA4FF400404A
:10302000FDF736FF072301220A213948FDF7B9FAD7
:1030300000224FF408713648FDF75DFA012134484B
:10304000FDF743FA3248FDF762FA00BF3048FDF75A
:1030500063FA0028FAD12E48FDF768FA00BF2C4821
:10306000FDF769FA0028FAD105B000BD10B5FFF7E9
:10307000AAFFFFF7B8FF10BD10B54FF40871234841
:10308000FDF7E0FB012809D12048FDF7F1FA2149BD
:1030900008804FF408711D48FDF7E6FB10BD2DE9CF
:1030A000F04101211948FDF750FA1A4800880AF04A
:1030B0003EFA804618490AF039F8074617490AF0DF
:1030C00035F8064616490AF031F805460AF06BFA5B
:1030D00084B22046BDE8F08110B5044607230122E2
:1030E00021460B48FDF75DFA01210948FDF72DFA4D
:1030F00000BF00BF02210648FDF798FB0028F9D069
:103100000348FDF7B5FA10BD00100140002801404A
:1031100000240140680000206740533A000030411D
:103120000000C84210B50A461AB10123FE4C2360C4
:1031300002E00023FC4C2360002115E00023FB4C3F
:10314000236000F0800323B10123F74C083423608F
:1031500003E00023F44C083423600123F34C236084
:103160004306180E4B1CD9B20829E7DB0123EE4CAD
:10317000236010BD30B500241CE004F1B001C8B2DA
:103180000021FFF7CFFF00210846FFF7CBFF00210A
:103190001020FFF7C7FF002508E0E54901EBC50156
:1031A000085D0121FFF7BEFF681CC5B2802DF4DB6E
:1031B000601CC4B2082CE0DB30BD00B500218D20BE
:1031C000FFF7B0FF00211420FFF7ACFF0021AF2074
:1031D000FFF7A8FF00BD00B500218D20FFF7A2FF7B
:1031E00000211020FFF79EFF0021AE20FFF79AFF7D
:1031F00000BD30B500240CE0002506E00020CC49DD
:1032000001EBC5010855681CC5B2802DF6DB601CBA
:10321000C4B2082CF0DBFFF7ADFF30BDF0B51446AB
:1032200000267F2801DC3F2900DDF0BD0B46CF17CB
:1032300001EB5777FF10C7F10707FAB2CF1701EB81
:103240005777FF10A1EBC707FDB2C5F107070123B0
:10325000BB40DEB24CB1B64B03EBC0039B5C3343C7
:10326000B34F07EBC007BB5408E0B14B03EBC003FF
:103270009B5CB343AE4F07EBC007BB5400BFD4E722
:103280002DE9F04F80460C4615461E46A346A5F193
:103290002000C5B200273EE00C2E07D105EB45000B
:1032A000A44901EB800010F8079004E0A24800EB6D
:1032B000051010F807904FF0000A26E009F0800092
:1032C00028B121464046099AFFF7A8FF09E009986E
:1032D00008B9012000E00020024621464046FFF7E1
:1032E0009DFF4FEA49604FEA1069601CC4B2A4EB2D
:1032F0000B00B04205D15C4608F1010000F0FF0868
:1033000006E00AF1010000F0FF0ABAF1080FD5DB70
:1033100000BF781CC7B2B742BEDBBDE8F08F10B566
:103320000246012000E050430B00A1F10104E1B28C
:10333000F9D110BD2DE9FF4F81B0074691461E46D9
:103340000E9D4FF0000A002439E0301B401EC1B230
:103350000A20FFF7E4FFB9FBF0F00A21B0FBF1F21D
:1033600001FB1208BAF1000F16D1701EA04213DD46
:10337000B8F1000F0ED10120AB4605EBDB7149100F
:1033800001FB04710090C8B22B4620220299FFF77E
:1033900077FF12E04FF0010A0120AB4605EBDB712D
:1033A000491001FB04710090C8B208F13001CAB2A3
:1033B0002B460299FFF764FF00BF601CC4B2B44201
:1033C000C3DB05B0BDE8F08F78B505460E46144660
:1033D00018E07A2D03DD002506F11000C6B23A2E62
:1033E00004DD002005460646FFF703FF012000909C
:1033F00022780C2331462846FFF742FF05F10800EA
:10340000C5B2641C20780028E3D178BD08B502203D
:10341000FEF7E8FF0120FEF7E5FF01211820FDF788
:10342000D3FD01210820FDF7CFFD4FF48040ADF81A
:10343000000010208DF8030003208DF8020069467B
:103440003E48FDF705FB2020ADF8000010208DF868
:10345000030003208DF8020069463948FDF7F8FAA9
:103460001020ADF800008DF8030003208DF8020055
:1034700069463348FDF7ECFA0820ADF8000010204B
:103480008DF8030003208DF8020069462C48FDF7F3
:10349000DFFA00202449091D08606420FFF7F2F9D3
:1034A00001202849C1F890010021AE20FFF73AFE23
:1034B0000021D520FFF736FE00215020FFF732FE15
:1034C0000021A820FFF72EFE00213F20FFF72AFE53
:1034D0000021D320FFF726FE00210846FFF722FE39
:1034E00000214020FFF71EFE00218D20FFF71AFE6D
:1034F00000211420FFF716FE00212020FFF712FE06
:1035000000210220FFF70EFE0021A120FFF70AFE96
:103510000021C020FFF706FE0021DA20FFF702FE9F
:103520000021122010E000008C812142B8012242CB
:10353000C00300208CF3000800F8000800100140D0
:10354000000C014000802142FFF7ECFD00218120AA
:10355000FFF7E8FD0021EF20FFF7E4FD0021D9206F
:10356000FFF7E0FD0021F120FFF7DCFD0021DB206B
:10357000FFF7D8FD00213020FFF7D4FD0021A42063
:10358000FFF7D0FD0021A620FFF7CCFD0021AF20E2
:10359000FFF7C8FDFFF72DFE08BD10B50021002282
:1035A000C306190E0CE0002206E00023074C04EBD2
:1035B000C2046354531CDAB2802AF6DB4B1CD9B226
:1035C000431CB1EBC30FEEDB10BD0000C0030020B5
:1035D00008B501211820FDF7F7FCC020ADF8000068
:1035E00004208DF8030069466A48FDF731FAC020CF
:1035F000ADF8000004208DF8030069466648FDF729
:1036000027FA08BD08B51E208DF8000001208DF8AE
:1036100003008DF8010003208DF802006846FCF7D6
:1036200098FE2C208DF8000001208DF803008DF805
:10363000010003208DF802006846FCF78AFE08BDF1
:1036400000B587B001210420FDF7CBFC0121480320
:10365000FDF7BAFC04A8FEF71BF90020ADF8100036
:103660004FF6FF70ADF814000020ADF81600ADF86D
:10367000120004A94948FDF7DFFD04A94848FDF7F9
:10368000DBFD00231A4603214448FEF7E4F901A8B4
:10369000FEF711F90A20ADF80C0001A93F48FEF72A
:1036A0005EF801213D48FEF7E9FB012211463B4847
:1036B000FEF739F901213948FEF71AF900231A46B5
:1036C00003213748FEF7C7F901A8FEF7F4F80A20EE
:1036D000ADF80C0001A93248FEF741F8012130484D
:1036E000FEF7CCFB012211462D48FEF71CF9012103
:1036F0002B48FEF7FDF807B000BD10B5FFF768FFD7
:10370000FFF780FFFFF79CFF10BD0146022906D09E
:1037100003290DD0042912D0082922D118E04FF036
:103720008042928C10B200224FF080439A841AE0BB
:103730001C4A128810B200221A4B1A8013E0174A52
:103740002432128810B20022144B24331A800AE06B
:10375000134A2432128810B20022114B24331A80EB
:1037600001E0002000BF00BF704710B501210B48E9
:10377000FEF77BFB01210948FEF794FB10BD10B555
:1037800001210748FEF771FB01210548FEF78AFB7E
:1037900010BD0000000C0140001001400008004076
:1037A000003401402404004008B501211820FDF731
:1037B0000BFC01211020FDF707FC48208DF80300C9
:1037C0004FF48070ADF800006946F948FDF740F904
:1037D00010208DF803004001ADF8000003208DF8A3
:1037E00002006946F348FDF733F910208DF8030015
:1037F000ADF8000003208DF802006946ED48FDF7A2
:1038000027F910208DF803000001ADF80000032017
:103810008DF802006946E748FDF71AF908BD38B58A
:103820000446012000900020E349487001200090E8
:103830002EE0BDF80000204018B10120DF490860EB
:1038400002E00020DD4908600120DC49091F086012
:103850000520FEF7F7FF0020D949C1F8A001052097
:10386000FEF7F0FF0120D649C1F8A001D548D0F8F5
:10387000200130B1D0484078BDF800100843CE494F
:103880004870BDF800004FF6FF7101EA400000905B
:10389000BDF80000FF28CCDD1020FEF7D3FF38BDB7
:1038A00010B50020C54914390860C7490878FFF7EA
:1038B000B6FFC5494878FFF7B2FF0120C049C1F8FB
:1038C0009001BD484078732801D1002010BD01202F
:1038D000FCE71CB500200190012000900020B749B2
:1038E00014390860B8490878FFF799FFB649487855
:1038F000FFF795FF0220019036E00120009027E0BD
:103900000120AE49091F08600520FEF79BFF00203B
:10391000AB49C1F8A0010520FEF794FF0120A8499A
:10392000C1F8A001A748D0F8200150B1A2489DF8E5
:103930000410405CBDF8001008439F499DF8042026
:103940008854BDF800004FF6FF7101EA4000009076
:10395000BDF80000FF28D3DD1020FEF773FF9DF8AF
:103960000400401CC0B201909DF804000928C4DB8B
:1039700001209249143908601CBD002004E0002198
:103980008D4A1154411CC8B20928F8DB704710B5A4
:10399000FFF7F3FFFFF79DFF8748C0788649097955
:1039A00040EA01208949088000240FE0884810F887
:1039B0001400401E012101FA00F0844909880840E2
:1039C00010B9601CC0B210BD601CC4B2102CEDDB7D
:1039D0000020F8E701467848405C704770B505461E
:1039E0000C4600207549143908601020FEF72AFFA4
:1039F0000120FFF714FF4220FFF711FF0020FFF71F
:103A00000EFF2846FFF70BFF2046FFF708FF0020B8
:103A1000FFF705FF0020FFF702FF0020FFF7FFFE82
:103A20000020FFF7FCFE01206549C1F8900110203D
:103A3000FEF708FF70BD10B500206049143908601A
:103A40001020FEF7FFFE0120FFF7E9FE4220FFF7FE
:103A5000E6FE0020FFF7E3FE0020FFF7E0FE002077
:103A6000FFF7DDFE01205649C1F890011020FEF756
:103A7000E9FE10BD10B5002050491439086010202F
:103A8000FEF7E0FE0120FFF7CAFE4320FFF7C7FE66
:103A90000020FFF7C4FE0120FFF7C1FE0020FFF762
:103AA000BEFE0020FFF7BBFE0020FFF7B8FE00209F
:103AB000FFF7B5FE0020FFF7B2FE01204049C1F834
:103AC00090011020FEF7BEFE10BD10B500203B494E
:103AD000143908600120FFF7A2FE4420FFF79FFE83
:103AE0000020FFF79CFE0120FFF799FE0320FFF75F
:103AF00096FE0020FFF793FE0020FFF790FE0020C7
:103B0000FFF78DFE0020FFF78AFE01202C49C1F847
:103B100090011020FEF796FE10BD10B50020274939
:103B2000143908601020FEF78DFE0120FFF777FEA4
:103B30004D20FFF774FE0020FFF771FE0020FFF715
:103B40006EFE0120FFF76BFE01201D49C1F89001B8
:103B50001020FEF777FE10BD10B50020174914396C
:103B600008601020FEF76EFE0120FFF758FE43208C
:103B7000FFF755FE0020FFF752FE0020FFF74FFE33
:103B80005A20FFF74CFE5A20FFF749FE5A20FFF754
:103B900046FE5A20FFF743FE5A20FFF740FE012061
:103BA0000749C1F890011020FEF74CFE10BD00003F
:103BB000000C014000100140C0070020A401224277
:103BC00000002242008021426E0000206C00002094
:103BD0007000002010B5FFF72EFFFFF72CFFFFF756
:103BE0002AFFFFF747FFFFF770FFFFF7B5FF10BD94
:103BF00010B5FFF7CCFE214908600720FFF7EAFE69
:103C00001F4908600820FFF7E5FE1E4908600520EF
:103C1000FFF7E0FE1C4908600620FFF7DBFE1B49AA
:103C2000086016480068042805D11948007810B9C2
:103C300001201849086017480068F0B11148006871
:103C400076281ADA12480078B8B9012010490870AD
:103C50000020114908701149087011490870114875
:103C60001149086011480078012803D11048114912
:103C7000086002E00E480F49086010BDA000002057
:103C80009000002094000020980000209C0000205C
:103C90002D000020A40000202E0000202F00002076
:103CA000300000200000AF43C000002031000020A1
:103CB000DB0F493FC400002030B503461C788C540C
:103CC0005D78541C0D559D78941C0D55DD78D41CE1
:103CD0000D5530BD13B50C460A2C00DC04B91CBDD3
:103CE0000B2C43D2DFE804F042060C12181E242AE3
:103CF00030363C00012244496846FFF7DDFF35E0DD
:103D0000052241496846FFF7D7FF2FE009223E49C7
:103D10006846FFF7D1FF29E00D223B496846FFF7CF
:103D2000CBFF23E0112238496846FFF7C5FF1DE0AD
:103D3000152235496846FFF7BFFF17E019223249BF
:103D40006846FFF7B9FF11E01D222F496846FFF7CB
:103D5000B3FF0BE021222C496846FFF7ADFF05E0D9
:103D6000252229496846FFF7A7FF00BF00BF00BF13
:103D7000B5E701460A2900DC09B900207047242074
:103D8000214A10700B293CD2DFE801F03B060B10F2
:103D9000151A1F24292F350005201B4A50710620B3
:103DA000ECE70920184A50720A20E7E70D20164A6E
:103DB00050730E20E2E71120134A50741220DDE701
:103DC0001520114A50751620D8E719200E4A507652
:103DD0001A20D3E71D200C4A50771E20CEE7212061
:103DE000094A82F821002220C8E72520064A82F8E5
:103DF00025002620C2E72920034A82F829002A202C
:103E0000BCE70020BAE70000C907002010B5024651
:103E10000B460020012B08D1002104E0FE4C645C1D
:103E200060404C1CE1B29142F8DB43B9002104E050
:103E3000FA4C645C60404C1CE1B29142F8DB10BD6E
:103E40002DE9F0477B20F44908767D21F24880F87F
:103E50002E10F3480078002837D0012804D002281B
:103E600064D0032830D192E0EE4A1168EE4A10681F
:103E700009F004F906464FF0804109F089F904463B
:103E8000EA4909F053F9054609F074FB01B2E2482A
:103E9000418300218183E44A1168E24A106809F0F5
:103EA0003FF9824609F0B2FB8046E14AE14B09F056
:103EB000C6FA06460022E04B09F04FFA044609F024
:103EC00086FB01B2D448C18392E0D64A1168D64A33
:103ED000106809F0D3F806464FF0804109F058F910
:103EE0000546D24909F022F9044609F043FB01B224
:103EF000C948418300218183CB4A1168C94A1068AF
:103F000009F00EF9824609F081FB8046CB4ACC4B82
:103F100009F095FA06460022C74B09F01EFA04463E
:103F200009F055FB01B2BC48C18361E0BD4A11688C
:103F3000BD4A106809F0A2F806464FF0804109F02A
:103F400027F90446B94909F0F1F8054609F012FBD2
:103F500001B2B148418300218183B34A1168B14A5B
:103F6000106809F0DDF8824609F050FB8046B54A3A
:103F7000B54B09F064FA06460022AF4B09F0EDF9A3
:103F8000044609F024FB01B2A348C18330E0A54AEE
:103F90001168A54A106809F071F806464FF0804193
:103FA00009F0F6F80546A14909F0C0F8044609F001
:103FB000E1FA01B298484183002181839A4A11684D
:103FC000984A106809F0ACF8824609F01FFB0646D3
:103FD0009E4A9F4B09F033FA80460022964B09F027
:103FE000BCF9044609F0F3FA01B28B48C18300BF63
:103FF00000BF9848B0F9001087484184964800886F
:10400000404201B2844881849448B0F9001082484B
:10401000C1849348B0F900107F4801859148008819
:10402000404201B27C4841858F48007828B98F48CA
:10403000B0F900107848818502E00021764881853A
:104040008B4800884FF47A71484301B2724801846A
:10405000007E714908708448007848700846408B9B
:10406000000A88700846807EC8700846808B000A67
:1040700008710846007F48710846C08B000A8871A5
:104080000846807FC8710846408C000A08720846BE
:1040900090F8220048720846808C000A8872084610
:1040A00090F82400C8720846C08C000A08730846BD
:1040B00090F8260048730846008D000A8873084669
:1040C00090F82800C8730846408D000A0874084616
:1040D00090F82A0048740846808D000A88740846C3
:1040E00090F82C00C8740846008C000A0875084631
:1040F00090F82000487501211620FFF787FE4649F9
:104100008875084690F82E00C875BDE8F0875949B3
:10411000088000BF5749091F098801F040010029A4
:10412000F8D0704700B5002200BF05E03A49885C2E
:10413000FFF7EDFF501CC2B2182AF7DB00BD2DE9D6
:10414000F0470446894609EB042108B209F0F4F966
:1041500007460022384B09F072F9054609F09AFA31
:1041600082465046BDE8F08710B50446002120463F
:1041700009F0B6FA01D8204610BD84F00040FBE7F4
:104180002DE9F34F85B08B463B48029000215846FD
:1041900009F09CFA7ED00021059809F097FA79D0B1
:1041A0005946059808F0F4FF0546FFF7DDFF044681
:1041B000029909F08BFA17D80021584609F090FAB5
:1041C00008D20598FFF7D0FF0446029908F0E0FFF7
:1041D000834609E00598FFF7C7FF80F000442046BA
:1041E000029908F0D5FF83465946059808F0D0FF9C
:1041F0000390039809F00AFA06460D4A1F4B09F08E
:1042000005F802460B46CDE900014FF000401C497D
:1042100009F015F9044636E0F407002024080020D0
:1042200031000020540800204408002000007A4497
:1042300023DBF97E6ABCC43F00408F400E2DB29D47
:10424000EFA7C63F48E17A14AE47C13F6DE7FBA92F
:10425000F1D2CD3FE8000020EC000020EA00002071
:10426000F6000020F20000202C000020F4000020C6
:104270002A000020043801403333B33E6ABCB43F07
:10428000976EC23F06E00AF07DF9804609F002FA17
:10429000824601E04FF0000A504607B0BDE8F08FBB
:1042A00070B540F225513848FDF7C0FF002869D0AD
:1042B00040F225513448FDF7E3FF3348FDF736FF60
:1042C000C4B20120314908700020314908703149D9
:1042D00008703149087031483149097844547B2CC1
:1042E00003D02F480078002805DD2D480078401CB9
:1042F0002B49087002E000202949087028480078FE
:104300000B283FD10020264908702448807A7D2858
:1043100038D100210920FFF779FD2049497A8842E8
:1043200030D11E4A1179D078FFF709FF1D49086086
:104330001A4A117AD079FFF702FF05461A48007829
:1043400001280FD1294617480068FFF719FF1749C0
:104350000860174A17491548006800F0F0F813493B
:1043600008600EE00D4A117AD079FFF7E8FE0F4998
:1043700008600F4A0F490D48006800F0E0F80B494B
:10438000086000BF002070BD003801402F000020F1
:104390002E0000202D0000203000002024080020E6
:1043A000AC000020B000002031000020B40000204C
:1043B000920A863F920A86BF2DE9F04105460E46D5
:1043C00014462F463146384609F08AF900D237465E
:1043D0002146384609F07AF900D227463846BDE82A
:1043E000F0812DE9F04705460027012408E0FE484A
:1043F00050F82410601EFC4A42F82010601CC4B221
:104400000A2CF4DBF8484562002408E0F64850F82E
:104410002410384608F032FE0746601CC4B20A2C4D
:10442000F4DBF249384608F0B3FE814609F0A2F801
:10443000804609F073F806463046BDE8F0872DE95E
:10444000F04705460027012408E0E94850F8241009
:10445000601EE74A42F82010601CC4B20A2CF4DB4C
:10446000E3484562002408E0E14850F8241038464B
:1044700008F004FE0746601CC4B20A2CF4DBDB49DA
:10448000384608F085FE814609F074F8804609F048
:1044900045F806463046BDE8F08710B5D54A916824
:1044A000106802F0E1FD044609F038F8D14948608F
:1044B000D14A9168106802F00AFE044609F02EF80D
:1044C000CD494860CD48007818B1CC48007807281D
:1044D0000BD1C8494868FFF7B2FFC6494860C649D2
:1044E0004868FFF77EFFC4494860C249C44A48682B
:1044F000C449FFF761FFBF494860BF49C04A4868E7
:10450000C049FFF759FFBC49486010BD10B50024F1
:10451000BD480068BD490870BD480088B0F57A7F85
:1045200004DA3220FEF726F9012402E0C820FEF763
:1045300021F9B648007800B10124204610BD70B5BD
:1045400006460D4614462946304609F0BFF801D20A
:10455000284670BD2146304609F0C2F801D22046F7
:10456000F7E73046F5E703468B4201DA0846704725
:10457000934201DD1046FAE71846F8E72DE9FF5FA0
:1045800005460E460027B846B946BA46FA200390BB
:104590004FF4AF7002909F480078012803D14FF488
:1045A000C870029006E09B480078032802D14FF4BF
:1045B000FA700290002472E004EB4401964A02EB88
:1045C0004101D1F80200954909F08AF80AD304EBB9
:1045D0004401914A02EB4101D1F80200904909F0EF
:1045E00075F85BD204EB44008B4901EB4000008876
:1045F000002853DD04EB440001EB400001880298E1
:1046000081424BDA781CC7B204EB4401824A02EBC8
:104610004101D1F80200824909F058F812D2484607
:1046200008F07CFF019004EB44007B4A02EB400061
:10463000D0F80210019808F021FD834608F09AFF97
:10464000814620E004EB4401734A02EB4101D1F8BA
:104650000200724909F044F815D204EB44016E4A95
:1046600002EB4101D1F802006E4908F059FD0190BA
:10467000404608F053FF0090019908F0FFFC834684
:1046800008F078FF804604EB4400634901EB4000EA
:1046900001880398814201DA0AF1010A641C624828
:1046A0000068844288DB082F34DB0021286809F089
:1046B00017F82FD2BAF1040F08DB5C49286808F01C
:1046C00035FD286000205A49086023E009EB080006
:1046D000002810DD4FF07C51286808F027FD286085
:1046E0004C480078012802D15248306012E04FF067
:1046F0007E5030600EE04FF07C51286808F016FDC7
:10470000286044480078012802D14B48306001E01D
:104710004A483060BDE8FF9F2DE9F34F8DB0484C0B
:104720003648007850B947480068012806D1464805
:10473000007818B10EA90DA8FFF720FF434A44499D
:1047400044480068FFF7FBFE42490860424A43497B
:1047500037480068FFF7F3FE354908602D480078B8
:1047600001283FD13E480C900E9E304608F04EFF87
:10477000CDE908010AF0D8FD02460B46CDE90A0151
:104780004FF00040374908F05AFE0746364A374B8B
:1047900008F0DDFD824608F07DFF0546344A3549C4
:1047A0003046FFF7CCFE06460021304608F08EFF6B
:1047B00069D03149284608F0B3FC80460D9908F0CD
:1047C000B5FC0746294608F0E3FC0A4988602A49F7
:1047D000284608F053FC80460D9908F0A7FC0746D0
:1047E00029464BE0C3E04EE08C0800200000204149
:1047F000640800204408002054080020C80000205D
:1048000000A0D7C500A0D745340122422C000020CB
:104810002A00002031000020D21200200000964320
:10482000000070420000B44344000020000040BF7C
:10483000B4000020C3B8323FC3B832BF000080BF0D
:104840000000604054000020410000209A99993FE8
:104850009A9999BFB0000020920A863F920A86BFBB
:10486000AE271F44976EC23F23DBF97E6ABCB43F7C
:104870000AD7A33E0AD7A3BE54E3A53D08F088FC9F
:10488000FE49886005E0FE490D988860FB490D9857
:1048900088603146FB4808F049FC074608F0B6FE40
:1048A000CDE90601304608F0B1FE074600224FF080
:1048B00080430AF037F882460022F34B08F04DFDA2
:1048C000CDE90201304608F0A1FE07460022EF4B79
:1048D0000AF028F882464FF00042ED4B08F03DFD0B
:1048E000CDE90001DDE9022308F090FCCDE90401E7
:1048F000DDE9062308F02BFD0022E64BCDE9080197
:1049000008F084FCCDE90A0108F0C4FE8146E249C2
:10491000484608F005FC82460C9908F007FC8046E2
:10492000DE4908F0ABFB074608F024FEDC490860CE
:1049300084F00047D249224688683946FFF7FFFDD8
:10494000CF49886084F00047CC49224688683946C0
:10495000FFF7F5FDC949886040F698024FF44871A9
:10496000CF480068FFF7FFFDCD490860CDE0CD4896
:104970000078002840D100210D9808F0A7FE04D24D
:104980000E9880F000400E9001E00E980E90C64800
:1049900001680E9808F0CAFB06464FF0804108F007
:1049A000F7FB05460D9908F0BEFBB5498860BE4887
:1049B00001680E9808F0BAFB06464FF0804108F0F7
:1049C000E7FB05460D9908F059FBAC49886084F077
:1049D0000045AB49224688682946FFF7B0FDA84943
:1049E000886084F00045A549224688682946FFF77B
:1049F000A6FDA249886088E0AA480078022840D134
:104A000000210D9808F062FE04D20E9880F000405C
:104A10000E9001E00E980E90A34801680E9808F0E1
:104A200085FB06464FF0804108F0B2FB05460D9924
:104A300008F079FB924988609B4801680E9808F05D
:104A400075FB06464FF0804108F0A2FB05460D9924
:104A500008F014FB8949886084F0004588492246A3
:104A600088682946FFF76BFD8549886084F000451A
:104A70008249224688682946FFF761FD7F498860A0
:104A800043E08848007803283FD100210D9808F0C2
:104A90001DFE04D20E9880F000400E9001E00E98AA
:104AA0000E90814801680E9808F040FB06464FF0D2
:104AB000804108F06DFB05460D9908F034FB704904
:104AC0008860794801680E9808F030FB06464FF080
:104AD000804108F05DFB05460D9908F0CFFA674963
:104AE000886084F000456649224688682946FFF7B9
:104AF00026FD6349886084F0004560492246886845
:104B00002946FFF71CFD5D4988600FB0BDE8F08FB6
:104B100070B5002437E004EB4401644A02EB410124
:104B2000D1F80200624908F0DBFD2BD204EB44010E
:104B30005E4A02EB4101D1F802005E4908F0C6FD71
:104B400020D25D48006860B904EB4400574901EB8E
:104B5000400000885949086057480068401C564981
:104B6000086004EB4400514901EB400001885348C0
:104B700000686430814205D204EB44004B4901EBEC
:104B800040000588641C4E4800688442C3DB4FF037
:104B90007A504C4908604948006808F0C8FC04464F
:104BA000284608F0C4FC0646214602F0C3FA80F00D
:104BB0000040454908603B480078012808D1434A35
:104BC000434941480068FFF7BAFC3F4908600AE0E2
:104BD0003448007838B93F4A3F493B480068FFF7FE
:104BE000AEFC3949086070BD2DE9F04100264FF652
:104BF000FF75002425E004EB44002C4901EB400044
:104C0000008864281CDD04EB440001EB40000088B0
:104C1000B0F5C86F14DA761C04EB440001EB4000D9
:104C20000088A8420CDA04EB440001EB4000058840
:104C300004EB440001EB4000D0F802002749086073
:104C4000641C1F4800688442D5DB2549234800685E
:104C500008F046FD06D223492048006808F060FAB3
:104C60001E490860204801681C48006808F058FA8E
:104C700007461E4908F034FD45D339E054080020AA
:104C800044080020E5D0E23FD34DF43F0000084047
:104C90009318E4BF022BF93F4C37C93F0080BB4457
:104CA000CC0000203100002038000020D21200206B
:104CB00000009A4200009E421401002010010020D2
:104CC00044000020B0000020B4000020DB0F493F6A
:104CD000DB0F49BF7CD9203F7CD920BF04010020D5
:104CE000000034430000B4430801002000002041CC
:104CF000FE480168FE48006808F012FA0746FD49C0
:104D000008F0E4FC0ED2FC480078401CC0B2FA491E
:104D100008703C280DD100200870F5480068F34960
:104D2000086006E00020F4490870F1480068EF4987
:104D30000860062E12DAF1480088282804DAEF48C5
:104D40000088401CED490880EC48008828286FDB6B
:104D50000020EB490860EB49086069E00020E74962
:104D60000880E9480078012838D1E849E04800681F
:104D700008F0B6FC05D2E649DD48006808F0A6FC5C
:104D80000BD3E449DA48006808F0AAFC15D2E249DE
:104D9000D748006808F09AFC0FD2B5F5FA7F0CDA14
:104DA000DE48D74908600021D048006802F0A8FA20
:104DB00080F00040D34908603AE0284608F0B7FB8D
:104DC0000746D74902F0D1FBCD4908600021C7480A
:104DD000006802F095FACB49086029E0D149C4483F
:104DE000006808F07DFC05D3CF49C148006808F091
:104DF0006DFC0DD2B5F5C87F0ADDBC480168CB4813
:104E000008F094F9BF4908600020BD4908600FE030
:104E1000284608F08CFB0746C14902F0A6FBB849BA
:104E200008600021B148006802F06AFAB5490860DC
:104E3000BF4AC049B3480068FFF781FBB149086029
:104E4000BD4ABE49AE480068FFF779FBAC4908602F
:104E5000BDE8F0812DE9F04F85B000240026A14681
:104E600000254FF4AF700490A7480078012803D1C3
:104E70004FF4C870049006E0A3480078032802D1DC
:104E80004FF4FA700490002463E004EB4401AC4A50
:104E900002EB4101D1F80200AA4908F021FC0AD333
:104EA00004EB4401A64A02EB4101D1F802009D49FE
:104EB00008F00CFC4CD204EB4400A14901EB40008B
:104EC0000088002844DD04EB440001EB4000018829
:104ED000049881423CDA701CC6B204EB4401984A43
:104EE00002EB4101D1F802008E4908F0EFFB0BD232
:104EF00004EB4400924A02EB4000D0F8021048460E
:104F000008F0BCF8814619E004EB44018C4A02EB3E
:104F10004101D1F802008B4908F0E2FB0ED204EB0C
:104F20004401874A02EB4101D1F80200864908F0AA
:104F3000F7F80746494608F0A1F8814604EB44001B
:104F40007F4901EB40000088C82801DA681CC5B21F
:104F5000641C7E480068844297DB082E20DA68488B
:104F6000006808F053FB0746794A7A4B08F04EF97F
:104F7000CDE9000108F08EFB61498246086008F027
:104F800045FB4FF03332744BCDE9020108F06AFB68
:104F900002D872485A49086000205A49086087E0E0
:104FA00059480078012831D1082D06DD6C48544954
:104FB00008600020534908607AE05148006808F012
:104FC00025FB0746624A634B08F0C1F9CDE90001B1
:104FD00008F060FB4A490860039008F017FB82461E
:104FE0004FF033325F4B08F025FB02D85E4844494E
:104FF00008600021484608F073FB03D25B48414932
:10500000086055E05A483F49086051E0082D06DD28
:1050100053483B49086000203A49086048E0384856
:10502000006808F0F3FA0746494A4A4B08F08FF93E
:10503000824608F02FFB32490860019008F0E6FA3A
:105040004FF03332474BCDE9020108F0F3FA02D8B2
:1050500045482B4908600021484608F041FB12D220
:105060002948007818B943482649086020E02648B6
:105070000078022803D13F482249086018E03D48E3
:105080002049086014E02048007820B94FF07E5095
:105090001C4908600CE01C480078022804D14FF03D
:1050A0007E501849086003E04FF07E5015490860B3
:1050B0001448006880F000401249086005B0BDE85F
:1050C000F08F10B52C4800680D4908602A484068E8
:1050D0000C4908604FF080410A48006808F026F843
:1050E0000446264908F054F8064949E00801002022
:1050F00004010020000020C10C010020020100205A
:10510000B0000020B40000203100002000007041F9
:1051100000003443000034C3000070C1CDCC4CBE4D
:105120000000C84300004842000048C2211FF4BCF0
:10513000920A063F920A06BFCDCCCC3ECDCCCCBE67
:10514000D212002000009B430000B4434400002022
:105150009A9999999999B93F3333D33F9A99993E3E
:105160009A9999BE3333C33F9A99193E7CD920BF8F
:105170007CD9203F000080BFB408002000002041FF
:105180000860F849F848006808F002F8F649086035
:10519000F648006880F00040F449086010BD2DE931
:1051A000FF478246BAF1010F02D107F0E9F90CE19D
:1051B0004421D02006F0BBFE04464321D02006F057
:1051C000B6FE04EB002000B2E94908804621D02059
:1051D00006F0ADFE04464521D02006F0A8FE04EB03
:1051E000002000B2E34908804821D02006F09FFE4D
:1051F00004464721D02006F09AFE04EB002000B2BE
:10520000DD4908803C21D02006F091FE04463B2178
:10521000D02006F08CFE04EB002000B2D7490880B5
:105220003E21D02006F083FE04463D21D02006F02A
:105230007EFE04EB002000B2D14908804021D0203E
:1052400006F075FE04463F21D02006F070FE04EB08
:10525000002000B2CB4908800846B0F9000008F0F1
:105260006BF9CDE90001C648B0F9000008F064F917
:105270000646DDE9002309F095FA0022C24BCDE98C
:10528000020108F06AF804464FF0C042BF4B08F034
:10529000D6F8804608F09BF900B2BD490880B948AD
:1052A000B0F9000008F048F9CDE90001B348B0F9C1
:1052B000000008F041F90646DDE9002309F072FA22
:1052C00080460022B04B08F048F804464FF0C04238
:1052D000AE4B08F0B4F8CDE9020108F078F900B25D
:1052E000AC490880A248B0F9000008F025F904464E
:1052F0000022A94B08F0A3F8064608F068F900B2AE
:105300009B4908809B48B0F9000008F015F9044655
:105310000022A14B08F093F8064608F058F900B2B5
:1053200094490880BAF1020F26D19148B0F90000E3
:1053300008F0F4F804469648B0F9000008F0EEF8DA
:105340000546214607F074FB80F000409349086051
:105350008848B0F9000008F0E1F804468D48B0F93B
:10536000000008F0DBF80546214607F0A1FC80F0BC
:1053700000408B49086028E0BAF1030F25D17C4832
:10538000B0F9000008F0CAF804468148B0F90000FE
:1053900008F0C4F80546214607F061FC80F00040A3
:1053A0007E4908607348B0F9000008F0B7F8044679
:1053B0007848B0F9000008F0B1F80546214607F03A
:1053C000CBFD80F0004076490860BDE8FF872DE9FD
:1053D000F0410420FEF799F9724908600820FEF7B1
:1053E00094F9704948607048007890B1012804D061
:1053F00002281AD0032830D123E06A49086808F04F
:105400008DF8054667494968484208F087F806461E
:1054100023E06449086808F081F805466149496855
:10542000484208F07BF8064617E05E49086808F035
:1054300075F805465B494968484208F06FF806462A
:105440000BE05849086808F069F80546554949686D
:10545000484208F063F8064600BF00BF534928469B
:1054600007F064FE074652480168384607F05EFEC2
:105470000446504907F08CFE4F4908604B493046BE
:1054800007F054FE07464A480168384607F04EFECA
:105490000446484907F07CFE48490860BDE8F081B1
:1054A00070B501214648FCF7ECFC002859D00121D9
:1054B0004348FCF7F7FCFFF78AFFFDF7B2F84148D5
:1054C0000078A8B140480078401CC0B23E4908703E
:1054D0000A2804D1002008703A49087008E03A48C8
:1054E00000780A2804DD0020374908703549087023
:1054F00036480078401CC0B234490870142806D1E0
:105500000020334908703149087032490860324838
:105510000078C0B931480078401CC0B22F490870EB
:105520000A280DD10220FFF73AFE01F09AFB01F0A4
:1055300044FCFEF785FCFEF7F5FD002027490870C6
:10554000FFF7BFFD6EE024480078012802D1FFF785
:1055500081FC67E020480078022841D1FFF744FB36
:1055600060E084E000007A44B0000020B400002035
:10557000F2000020F6000020F4000020EC000020E3
:10558000E8000020EA00002000806640FB2109407E
:10559000EE000020F00000200060504008030020D2
:1055A0000C030020E00000203100002000004843F0
:1055B000340000200000C3444408002054080020A8
:1055C000000C00402900002028000020DD00002001
:1055D0004100002054000020C8000020DC00002012
:1055E000FE480078032802D1FFF792FA1AE0FB4840
:1055F0000078042802D103F0ECFA13E0F8480078B0
:10560000401CC0B2F6490870042804D1002008707C
:1056100003F0B3FC06E0F2480078042802DD002025
:10562000EF490870EF480168EF480068FFF774F829
:10563000FEF76CFF10B9FEF730FF08E00020EB49E1
:105640004860EB49486040F2DC50EA490860E849AC
:10565000486807F08FFF0646E448406880F0004540
:10566000284607F087FF04463146FDF7FCFB002083
:1056700070BD2DE9F05F1424DF480068C0F1800997
:10568000DE480068C0F1800A6042814503DDA14523
:1056900001DA4FF000096042824503DDA24501DADC
:1056A0004FF0000A484607F039FF05464FF08641A3
:1056B000D348006807F06CFD0646294607F036FD22
:1056C000C9490860CF480078012809D1504607F041
:1056D00025FF0546CC4907F029FDC249086028E0AE
:1056E0000021C148006807F0FBFF12D8504607F0C0
:1056F00015FF06464FF08641C448006807F048FD94
:1057000080F000453146284607F010FDB549086095
:105710000FE0504607F002FF05464FF08641BB48B8
:10572000006807F035FD0646294607F0FFFCAD4945
:105730000860B74800680B2838D1B6480078401C8C
:10574000C0B2B449087014286FD10020B049086075
:10575000B0490870B049AA48006807F08FFCA84912
:1057600005460860AD4907F0BBFF02D2AB48A4492B
:105770000860A4480078012857D0A448006807F0C2
:1057800045FF0746A64AA74B07F040FD054607F030
:1057900081FF9E49834608604FF07E5107F0A0FFCD
:1057A00043D24FF07E50994908603EE09848006827
:1057B0000C2836D19C480078401CC0B29A49087029
:1057C000142832D100209249086097490870924904
:1057D0008B48006807F0A4FC894905460860934996
:1057E00007F074FF02D29148854908608548007827
:1057F00001281AD08548006807F008FF0546884A46
:10580000884B07F0A4FD074607F044FF7F49834615
:105810000860874907F05AFF07D285487B4908602E
:1058200003E0002080490870087082496E480068D3
:1058300007F0AEFC6C4908606A48006880F00040E0
:1058400068490860BDE8F09F6E48007818B16D485F
:105850000078012806D17848784908607848794965
:10586000086010E067480078022806D1764873493E
:10587000086076487349086005E075486F4908601C
:10588000744870490860704710B500205549086099
:1058900002F047FE70480088C8280FDA6F49524866
:1058A000006807F03DFC5049044608606C4907F069
:1058B0000DFF43D26A484C4908603FE066480088C3
:1058C000B0F5877F15DD6448008840F2EE218842FC
:1058D0000FDA62494448006807F0D0FB42490446A9
:1058E0000860524907F0FCFE28D250483E49086043
:1058F00024E000213C48006807F0F2FE0FD259492D
:105900003948006807F00CFC37490446086000215C
:1059100007F0DCFE12D20020334908600EE0514946
:105920003148006807F0AAFB2F49044608600021AF
:1059300007F0D6FE02D200202B49086010BD2DE9E9
:10594000FC5F64244FF4AF7001904FF4FA62511081
:1059500045480068FEF707FE434908604FF4FA62C5
:10596000511042480068FEF7FEFD404908600846B5
:105970000068A0F2DC593C480068A0F2DC5A6042A2
:10598000814503DDA14501DA4FF0000960428245FF
:1059900003DDA24501DA4FF0000A484607F0BEFDDC
:1059A00011490860CAF1000007F0B8FD0D49086010
:1059B0000D48006807F02AFE07462D4A2D4B07F0D8
:1059C000CCFC054607F066FE074908600D480078E4
:1059D000012863D12849034800684FE0C80000202F
:1059E000FE000020B4000020B00000204408002089
:1059F00054080020CC0000209400002098000020D3
:105A0000C000002031000020920A86BBC4000020A4
:105A1000A0000020FF0000200000C8410000484412
:105A20009A9999999999B93F000100200000524331
:105A30007CD9203E00007A44D589573E34000020AE
:105A40007D3F353E38000020A3540A3E713D0A3E9A
:105A5000308C0D3E8D976E3EA0020020000040402D
:105A6000000052C30000A041880200208C020020E8
:105A7000CDCCCCCCCCCCF43FDB0FC93E07F056FBF1
:105A8000834607F0C3FD054600221B4B07F0D7FCF9
:105A9000074607F0FFFD1949086016E04FF0804106
:105AA0001648006807F042FB1549009007F03EFBDE
:105AB000834607F0ABFD054600220F4B07F0BFFC05
:105AC000074607F0E7FD0D4908600E490E480068DB
:105AD00007F05EFB0C4908600C480078002808DDE0
