:020000040800F2
:10000000B822002049010008C5230008C7230008C2
:10001000CB230008CF230008D323000800000000F2
:10002000000000000000000000000000D7230008CE
:10003000D923000800000000DB230008DD230008AE
:100040006301000863010008630100086301000800
:1000500063010008630100086301000863010008F0
:1000600063010008630100086301000863010008E0
:1000700063010008630100086301000863010008D0
:100080006301000863010008D92F0008630100081C
:1000900063010008630100086301000863010008B0
:1000A000630100088988000863010008D3870008FD
:1000B0001F86000863010008CB36000863010008B2
:1000C0006301000863010008630100086301000880
:1000D000630100080142000863010008B16C0008D8
:1000E0006301000863010008630100086301000860
:1000F000DF3600086301000863010008630100089F
:1001000063010008630100083F580008630100080C
:1001100063010008D77D000863010008630100083F
:10012000630100086301000863010008630100081F
:10013000DFF810D00DF0D4FB00480047B9220008CA
:10014000AFF30080B82200200648804706480047E9
:10015000FEE7FEE7FEE7FEE7FEE7FEE7FEE7FEE777
:10016000FEE7FEE74B020008310100080CB5002055
:10017000019000906C48006840F480306A49086043
:1001800000BF6948006800F4003000900198401CEE
:100190000190009818B90198B0F5A06FF1D16248AC
:1001A000006800F4003010B10120009001E0002050
:1001B00000900098012843D15C48006840F010008E
:1001C0005A4908600846006820F0030008600846A5
:1001D000006840F002000860534840685249486097
:1001E0000846406848600846406840F480604860BF
:1001F0000846406820F47C1048600846406840F497
:10020000E81048600846006840F08070086000BF51
:100210004548006800F000700028F9D04248406866
:1002200020F00300404948600846406840F0020062
:10023000486000BF3C48406800F00C000828F9D135
:100240000CBD10B5FFF792FF10BD10B53648006821
:1002500040F00100344908600846406834490840CD
:100260003149486008460068324908402E49086014
:100270000846006820F4802008600846406820F4A2
:10028000FE0048604FF41F008860FFF7DAFF4FF070
:1002900000602949086010BD10B50021002000222F
:1002A000214B5B6803F00C0121B1042906D0082919
:1002B00028D107E0214B224C236027E01F4B204C24
:1002C000236023E0184B5B6803F47010164B5B68E7
:1002D00003F48032022303EB904022B9194B4343CD
:1002E000174C23600DE0104B5B6803F4003323B11F
:1002F000144B4343124C236003E0104B4343104C18
:10030000236003E00D4B0E4C236000BF00BF064B83
:100310005B68C3F303130C4CE15C094B1B68CB40D7
:10032000074C236010BD0000001002400020024076
:100330000000FFF8FFFFF6FE08ED00E000127A0073
:100340000000002000093D00040000203149014365
:10035000314A1160704770B5002100230F22C47824
:1003600004B32D4C246804F4E064C4F5E064210A6D
:10037000C1F10403CA40447804FA03F184781440BC
:1003800021430901254C0678A155047804F01F0586
:100390000124AC4005786D11AD0005F1E025C5F8EC
:1003A000004109E0047804F01F050124AC401C4D15
:1003B0000678761145F8264070BD1A4A0A40024375
:1003C000154B1B1F1A60704739B1134A121D126872
:1003D0000243114B1B1D1A6006E00F4A121D1268E2
:1003E00082430D4B1B1D1A607047042808D14FF043
:1003F000E021096941F004014FF0E022116107E0BA
:100400004FF0E021096921F004014FF0E022116171
:10041000704700000000FA050CED00E000E400E089
:1004200080E100E080FFFF1F10B50446FA488442D7
:1004300008D10121401500F0E3FD0021601500F016
:10044000DFFD17E0F548844208D10121001500F0D6
:10045000D7FD0021201500F0D3FD0BE0F0488442C9
:1004600008D10121C80300F0CBFD00214FF400406A
:1004700000F0C6FD10BD30B50246002000235068D4
:10048000E84C20400D790C6844EA05242043506074
:100490009068E54C2040D1E902542C434D7944EA60
:1004A000450420439060D06A20F470000C7C641EE8
:1004B000E4B2234340EA0350D06230BD0021016022
:1004C000017141718160C16001210174704721B1E6
:1004D000826842F00102826003E0826822F0010239
:1004E0008260704721B1826842F48072826003E0CA
:1004F000826822F480728260704710B50023CBB20C
:100500001AB144681C43446002E044689C43446060
:1005100010BD816841F008018160704701460020EC
:100520008A6802F008020AB1012000E0002070474A
:10053000816841F0040181607047014600208A68AB
:1005400002F004020AB1012000E00020704721B14E
:10055000826842F4A002826003E0826822F4A00272
:1005600082607047014600208A6802F480020AB166
:10057000012000E00020704710B50A46002100234A
:10058000416821F46041531E41EA4331416010BD8E
:1005900021B1426842F40062426003E0426822F402
:1005A000006242607047F0B504460D46002000210D
:1005B000092D11DDE068A5F10A0606EB46070726BE
:1005C00006FA07F18843A5F10A0606EB460603FA88
:1005D00006F10843E0600CE0206905EB45070726BB
:1005E00006FA07F1884305EB450603FA06F10843CE
:1005F0002061072A0FDA606B561E06EB86071F265E
:1006000006FA07F18843561E06EB860605FA06F140
:100610000843606322E00D2A0FDA206BD61F06EB39
:1006200086071F2606FA07F18843D61F06EB8606C3
:1006300005FA06F10843206310E0E06AA2F10D0616
:1006400006EB86071F2606FA07F18843A2F10D067E
:1006500006EB860605FA06F10843E062F0BD21B11B
:10066000826842F48012826003E0826822F4801281
:10067000826070470146C86C80B2704766484C3053
:100680000068704721B1426842F48062426003E032
:10069000426822F480624260704721B1426842F4AD
:1006A0008052426003E0426822F480524260704708
:1006B0000A460021816821F4E041114381607047BE
:1006C00021B1826842F40042826003E0826822F431
:1006D00000428260704721B1826842F40212826057
:1006E00003E0826822F40212826070470146002013
:1006F0008A6802F400120AB1012000E0002070476D
:10070000F0B504461546002000220026092911DD17
:10071000E068A1F10A0707EB470C072707FA0CF27C
:100720009043A1F10A0707EB470703FA07F21043CA
:10073000E0600CE0206901EB410C072707FA0CF29E
:10074000904301EB410703FA07F210432061A06BCD
:10075000C0F30156EF1C06F1010CA7EB0C0707EBE9
:10076000870C1F2707FA0CF29043EF1C06F1010CCF
:10077000A7EB0C0707EB870701FA07F21043A0630A
:10078000F0BD10B50A4600210023816B21F4401111
:10079000531E41EA0351816310BD08B50023009345
:1007A0000090009B0B440093009B1A6008BD08B5A5
:1007B000024600200090009201F12800009B18449E
:1007C00000900098006880B208BD0A460021416888
:1007D000164B194011434160704741628262704775
:1007E0000A460021416821F01F0111434160704712
:1007F00040B109490831096841F40001064A08324C
:10080000116007E004490831096821F40001024A37
:1008100008321160704700000024014000280140A8
:10082000003C0140FFFEF0FFFDF7F1FFFFFD3FFF41
:100830000246002013680B400BB1012000E00020AD
:100840007047CA430260704770B50246002000231B
:1008500000240B125568CEB205EA060415681D4047
:1008600015B10CB1012000E0002070BD00220A1279
:10087000D343036070470000002044490860091D0D
:100880000860091D0860091D086041483F4914318E
:100890000860704700213D498279002A3AD00A4613
:1008A000126803689A430B461A600A1D12680368AF
:1008B0009A430B1D1A60027911440A6803681A43AF
:1008C0000A60324A0832126803689A432F4B083391
:1008D0001A601A1D126803689A432C4B0C331A6075
:1008E0004279102A0ED11A1F126803681A43274B47
:1008F00008331A601A1D126803681A43234B0C331D
:100900001A600DE02149427911440A6803681A43CC
:100910000A6005E0027911440A6803689A430A6094
:1009200070470021016001710C214171002181712A
:1009300070471649103109680143144A103211609A
:10094000704701460020114A143212680A400AB169
:10095000012000E0002070470C4914310860704706
:10096000014600200022094B1B6803EA0102074BE5
:1009700014331B680B4013B10AB1012000E00020C2
:1009800070470249143108607047000000040140BC
:10099000FFFF0F0010B50446CC48844208D1012166
:1009A000042000F02DFB0021042000F029FB46E08C
:1009B000C748844208D10121082000F021FB002112
:1009C000082000F01DFB3AE0C248844208D1012112
:1009D000102000F015FB0021102000F011FB2EE08C
:1009E000BD48844208D10121202000F009FB0021EC
:1009F000202000F005FB22E0B848844208D1012104
:100A0000402000F0FDFA0021402000F0F9FA16E045
:100A1000B348844208D10121802000F0F1FA00217E
:100A2000802000F0EDFA0AE0AE48844207D10121AF
:100A3000801500F0E5FA0021A01500F0E1FA10BDE4
:100A400010B50121084600F0DBFA0021012000F07A
:100A5000D7FA10BD2DE9F0410246002500260020FE
:100A600000230024002791F803C00CF00F0591F833
:100A700003C00CF0100CBCF1000F03D091F802C0C1
:100A80004CEA050591F800C0BCF1000F31D01468A4
:100A900000202BE04FF0010C0CFA00F3B1F800C07D
:100AA0000CEA03069E4220D183004FF00F0C0CFA93
:100AB00003F7BC4305FA03FC4CEA040491F803C0B5
:100AC000BCF1280F06D14FF0010C0CFA00FCC2F863
:100AD00014C00AE091F803C0BCF1480F05D14FF0F3
:100AE000010C0CFA00FCC2F810C0401C0828D1D33D
:100AF0001460B1F800C0BCF1FF0F34DD5468002071
:100B00002EE000F1080C4FF0010808FA0CF3B1F8E0
:100B100000C00CEA03069E4221D183004FF00F0C67
:100B20000CFA03F7BC4305FA03FC4CEA040491F801
:100B300003C0BCF1280F05D100F1080C08FA0CF82D
:100B4000C2F8148091F803C0BCF1480F07D100F13E
:100B5000080C4FF0010808FA0CF8C2F81080401C8D
:100B60000828CED35460BDE8F0814FF6FF710180B4
:100B7000022181700421C1707047024600209368F1
:100B80000B400BB1012000E000207047014688684F
:100B900080B2704702460020D3680B400BB10120A1
:100BA00000E0002070470146C86880B270470161CC
:100BB0007047416170470AB1016100E041617047CF
:100BC000C16070474FF480320A4382618161826163
:100BD00082698269704702460020434B18684FF6CD
:100BE0008073184040EA021008433F4B186070477A
:100BF0003E49C8617047F0B50A4600230024002131
:100C0000002500F00046B6F1004F02D1364EF169E2
:100C100001E0354E7168C0F3034583B200F440161D
:100C2000B6F5401F08D121F070612F4E766826F08E
:100C300070662D4F7E6012E000F48016B6F5801FBE
:100C400006D1032606FA05F4A14341F0706106E0DF
:100C5000460D360103FA06F6B14341F0706122B148
:100C6000460D360103FA06F6314300F00046B6F1B0
:100C7000004F02D11C4EF16101E01B4E7160F0BDCE
:100C800030B500228B071C0F0F2303FA04F2164B1A
:100C900008338C1053F824309343134C08348D10D0
:100CA00044F8253023468C1053F824308C07240F49
:100CB00000FA04F423430C4C08348D1044F825301A
:100CC00030BD0A49DC31086070470000000801406F
:100CD000000C0140001001400014014000180140C8
:100CE000001C0140002001400000014000002042A3
:100CF000DF48006840F00100DD49086008464068B0
:100D0000DC490840DA49486008460068DA4908408A
:100D1000D74908600846006820F48020086008462B
:100D2000406820F4FE0048604FF41F008860704760
:100D3000CF49096821F48031CD4A11601146096814
:100D400021F480211160B0F5803F03D0B0F5802FF1
:100D50000ED106E0C649096841F48031C44A1160E9
:100D600007E0C349096841F4A021C14A116000E0CD
:100D700000BF00BF704710B50146002200230020CD
:100D80004A11012A02D1BA4C236806E0022A02D194
:100D9000B74C236A01E0B64C636A01F01F020124DC
:100DA00094401C400CB1012000E0002010BD38B57B
:100DB000002000900024002500BF3120FFF7DBFF5A
:100DC00005460098401C00900098B0F5A06F01D037
:100DD000002DF2D03120FFF7CEFF08B1012400E052
:100DE0000024204638BD01460020A14A106820F0AA
:100DF000F80040EAC10010607047A04908607047E1
:100E0000024600209A4B586820F47C1042EA010305
:100E10001843974B586070479849086670470146D9
:100E20000020934A506820F0030008435060704748
:100E30008F48406800F00C007047014600208C4A43
:100E4000506820F0F00008435060704701460020D1
:100E5000874A506820F4E0600843506070470146BC
:100E60000020834A506820F4605040EAC10050607E
:100E7000704729B17E4A527A02437D4B5A7204E090
:100E80007B4A527A82437A4B5A7270477B49D831F7
:100E90000860704701460020754A506820F44040C1
:100EA0000843506070470021714A20321170704A27
:100EB00082F82010012802D004280AD104E0012180
:100EC0006B4A2032117005E00521694A2032117009
:100ED00000E000BF00BF704769490860704764497F
:100EE000096A0143624A11627047654944390860E2
:100EF000704730B500210022002400235C4D6D684E
:100F000005F00C0121B1042905D0082923D105E001
:100F10005C4D056022E05B4D05601FE0544D6D683F
:100F200005F47012524D6D6805F48034022505EB0E
:100F300092421CB9544D554305600BE04C4D6D6811
:100F400005F400351DB1504D5543056002E04D4D8F
:100F50005543056002E04B4D056000BF00BF444DA6
:100F60006D6805F0F0010909484D6B5C0568DD40CE
:100F700045603F4D6D6805F4E061090A434D6B5CC7
:100F80004568DD4085603A4D6D6805F46051C90AD9
:100F90003E4D6B5C4568DD40C560354D6D6805F4C0
:100FA0004041890B3A4D6B5CC568B5FBF3F50561B3
:100FB00030BD29B12E4A526902432D4B5A6104E0DB
:100FC0002B4A526982432A4B5A61704729B1284AF9
:100FD00092690243264B9A6104E0254A9269824352
:100FE000234B9A61704729B1214AD2690243204BB1
:100FF000DA6104E01E4AD26982431D4BDA61704710
:1010000029B11B4AD2680243194BDA6004E0184A3E
:10101000D2688243164BDA60704729B1144A1269CC
:101020000243134B1A6104E0114A12698243104BC8
:101030001A61704712494039086070470F49C86407
:1010400070470B49C87170470948406A40F080708A
:1010500007494862704701460020054A92680A40E5
:101060000AB1012000E000207047014988727047F2
:10107000001002400000FFF8FFFFF6FE00004242B1
:101080008004424200127A0000093D001400002052
:101090002400002010B50446FE48844208D10121F6
:1010A000C014FFF7ADFF0021E014FFF7A9FFC4E073
:1010B000B4F1804F08D101210846FFF7AEFF0021AF
:1010C0000120FFF7AAFFB8E0F348844208D10121CC
:1010D0000220FFF7A2FF00210220FFF79EFFACE0F5
:1010E000EE48844208D101210420FFF796FF002139
:1010F0000420FFF792FFA0E0E948844208D10121D3
:101100000820FFF78AFF00210820FFF786FF94E000
:10111000E448844208D101211020FFF77EFF00211E
:101120001020FFF77AFF88E0DF48844208D10121D0
:101130002020FFF772FF00212020FFF76EFF7CE0E8
:10114000DA48844208D101214014FFF759FF0021F9
:101150006014FFF755FF70E0D548844209D10121A2
:10116000C804FFF74DFF00214FF40020FFF748FFB0
:1011700063E0D048844209D101210805FFF740FF10
:1011800000214FF48010FFF73BFF56E0CA4884422D
:1011900009D101214805FFF733FF00214FF400106A
:1011A000FFF72EFF49E0C548844208D101214020C5
:1011B000FFF733FF00214020FFF72FFF3DE0C0483D
:1011C000844208D101218020FFF727FF00218020E1
:1011D000FFF723FF31E0BB48844208D1012180158D
:1011E000FFF71BFF0021A015FFF717FF25E0B6480A
:1011F000844209D101210804FFF702FF00214FF4C6
:101200008030FFF7FDFE18E0B048844209D101218B
:101210004804FFF7F5FE00214FF40030FFF7F0FE21
:101220000BE0AB48844208D101218804FFF7E8FEB7
:1012300000214FF48020FFF7E3FE10BD002202885A
:10124000944B98420ED0994B98420BD0B0F1804FFE
:1012500008D0914B984205D0904B984202D0904BC9
:10126000984204D14FF68F731A404B881A438D4B26
:10127000984207D08C4B984204D04FF6FF431A4057
:10128000CB881A4302808B8883850B880385814B2A
:1012900098420BD0854B984208D08B4B984205D092
:1012A0008A4B984202D08A4B984201D10B7A03862E
:1012B00001238382704770B5002400220023058C2F
:1012C0004FF6FE7635400584028C8388048B4FF6FA
:1012D0008F752C40B51E2C400D882C43751E2A405E
:1012E0000D892A434D882A436A4DA8420BD06F4D81
:1012F000A84208D0744DA84205D0744DA84202D02F
:10130000734DA84213D14FF6F7752A404D892A43F1
:101310004FF6FB752A408D882A434FF6FF652B4018
:101320004FF6FF552B408D892B43CD892B4383806E
:101330000483CD888586028470BD70B500240022A8
:101340000023058C4FF6EF7635400584028C8388A8
:10135000048B48F6FF752C404FF6FF452C400D8856
:101360004FF6FF7606EA05252C434FF6DF752A4037
:101370000D8906EA05152A434D8806EA05152A4314
:10138000444DA84202D0494DA8421DD14FF67F7569
:101390002A404D894FF6FF7606EA05152A434FF697
:1013A000BF752A408D8806EA05152A434FF6FF359A
:1013B0002B404FF2FF752B408D8906EA85052B43A4
:1013C000CD8906EA85052B4383800483CD88058774
:1013D000028470BD70B5002400220023058C4FF6F6
:1013E000FF6635400584028C8388848B4FF68F75A9
:1013F0002C404FF6FC752C400D882C434FF6FF55C2
:101400002A400D894FF6FF7606EA05252A434D88C6
:1014100006EA05252A431F4DA84202D0234DA842C3
:101420001DD14FF2FF752A404D894FF6FF7606EA2F
:1014300005252A434FF6FF352A408D8806EA052503
:101440002A434EF6FF752B404DF6FF752B408D89D4
:1014500006EA05152B43CD8906EA05152B43838043
:101460008483CD888587028470BD70B500220023F7
:101470000024058C4EF6FF7635400584038C848865
:10148000828B48F6FF752A404FF6FF452A400D88AB
:1014900020E00000002C0140000400400008004053
:1014A000000C0040001000400014004000340140D7
:1014B000004C014000500140005401400018004021
:1014C000001C00400020004000400140004401405A
:1014D000004801404FF6FF7606EA05252A434DF6FF
:1014E000FF752B400D8906EA05352B434D8806EA2A
:1014F00005352B43FA4DA84202D0FA4DA84208D137
:101500004BF6FF752C408D894FF6FF7606EA851560
:101510002C4384808283CD88A0F84050038470BD22
:10152000828B4FF2FF331A408283828B4FF6FF7318
:1015300003EA01231A4382837047F0B50C4615462F
:10154000002200210026078C4EF6FF7C07EA0C07DC
:101550000784828B018C4FF6FF7707EA043640F64A
:10156000FF473A404FF6FF7707EA05273A434FF621
:10157000FF7707EA03373A43D94FB8420ED0D94F25
:10158000B8420BD0B0F1804F08D0D74FB84205D049
:10159000D64FB84202D0D64FB84206D14DF6FF77AB
:1015A000394046F48057394305E047F6FF57394044
:1015B00044F48057394382830184F0BD828B4FF617
:1015C000F3731A408283828B0A4382837047F0B59B
:1015D0000C461546002200210026078C4FF6FF6CB2
:1015E00007EA0C070784828B018C4FF6FF7707EA26
:1015F00004264FF60C773A404FF6FF7707EA0317B9
:101600002F433A43B64FB8420ED0B64FB8420BD034
:10161000B0F1804F08D0B44FB84205D0B34FB842B4
:1016200002D0B34FB84206D14FF6FF57394046F4C7
:101630008077394305E04FF2FF57394044F4807713
:10164000394382830184F0BD028B4FF2FF331A408D
:101650000283028B4FF6FF7303EA01231A430283CE
:101660007047F0B50C461546002200210026078C75
:101670004FF6EF7C07EA0C070784028B018C4FF6CC
:10168000FF7707EA041640F6FF473A404FF6FF7728
:1016900007EA03373A434FF6FF7707EA05273A434D
:1016A0008F4FB8420ED08F4FB8420BD0B0F1804F61
:1016B00008D08D4FB84205D08C4FB84202D08C4F25
:1016C000B84206D14FF6DF77394046F0100739436C
:1016D00005E04FF65F77394044F010073943028345
:1016E0000184F0BD028B4FF6F3731A400283028B24
:1016F0000A4302837047F0B50C46154600220021CC
:10170000068C4FF6FE773E400684028B018C4FF626
:101710000C7632407E1C06EA03162E433243704E8E
:10172000B0420ED06F4EB0420BD0B0F1804F08D017
:101730006D4EB04205D06D4EB04202D06C4EB042FC
:1017400006D14FF6FD76314044F00106314305E005
:101750004FF6F576314044F00106314302830184AF
:10176000F0BD70B505460C465D4885420ED05D481B
:1017700085420BD0B5F1804F08D05B48854205D03B
:101780005A48854202D05A48854200D100E000BF45
:10179000208850B92389A28861882846FFF7ABFFCB
:1017A000E1882846FFF79EFF25E0208804280AD11B
:1017B0002389A28861882846FFF753FFE1882846DD
:1017C000FFF742FF17E0208808280AD12389A28862
:1017D00061882846FFF7FBFEE1882846FFF7EEFE0A
:1017E00009E02389A28861882846FFF7A6FEE188E0
:1017F0002846FFF795FE70BD2DE9F04105460C46E1
:1018000000260127608808B9022600E00026A0888B
:10181000012801D1022700E001272088A0B92389EF
:10182000A28861882846FFF766FFE1882846FFF70F
:1018300059FF23893A4631462846FFF712FFE188CF
:101840002846FFF701FF13E02389A2886188284614
:10185000FFF707FFE1882846FFF7F6FE23893A469F
:1018600031462846FFF747FFE1882846FFF73AFF51
:10187000BDE8F0810A884B881A438B881A43CB88CD
:101880001A430B891A434B891A438B891A43A0F8D0
:10189000442070474FF6FF71818000210180C18094
:1018A0004180017270470021018041808180C180A8
:1018B000018141818181C181704700210180418086
:1018C000012181800021C1800181704700210180B8
:1018D00041808180C1800181418181817047000008
:1018E000002C01400034014000040040000800408A
:1018F000000C004021B1028842F00102028004E0A5
:1019000002884FF6FE731A400280704731B1B0F87A
:10191000442042F40042A0F8442005E0B0F84420FE
:10192000C2F30E02A0F8442070471AB183890B431A
:10193000838102E083898B43838170478182704772
:1019400041EA0203A0F8483070471AB183890B437B
:10195000838102E083898B438381704701894FF63D
:10196000F8721140018170470A46002101894FF643
:101970008F73194011430181704730B504460D46FD
:1019800029462046FFF7F0FF208940F0070020811C
:1019900030BD2DE9F04104460D4616461F46602D28
:1019A00006D13B46012231462046FFF75AFE05E0AC
:1019B0003B46012231462046FFF79DFE2946204640
:1019C000FFF7D2FF208940F007002081BDE8F081B9
:1019D00030B50C4600210189C9B24FF6FF7505EA02
:1019E0000325154325432943018130BD2DE9F041ED
:1019F00005460E4617469846002443463A46314669
:101A00002846FFF7E5FF2C894FF6F870044044F0B4
:101A100007044FF68F70044044F070042C81BDE839
:101A2000F081F0B504460D4616461F463B46324649
:101A300029462046FFF7CCFF208940F480402081D2
:101A4000F0BD0185828270470A46002101884FF669
:101A50008F731940114301807047F0B50C4615464D
:101A60001E460021002200230189028B038C4FF6C1
:101A7000F877394021434FF6FC473A4040F20117CE
:101A80003A434FF6DD773B404FF6FF7707EA0617FC
:101A90002F433B43018102830384F0BD0A460021AA
:101AA000018B4FF68F7319401143018370470A462B
:101AB0000021018B48F6FF7319404FF6FF7303EACC
:101AC00002231943018370470A460021818B4FF698
:101AD0008F7319401143818370470A460021818B1F
:101AE00048F6FF7319404FF6FF7303EA02231943C8
:101AF0008183704721B1028842F08002028004E0B5
:101B000002884FF67F731A400280704721B18288A5
:101B100042F00402828004E082884FF6FB731A4090
:101B20008280704721B1828842F00802828004E0FE
:101B300082884FF6F7731A408280704721B18288FD
:101B400042F00102828004E082884FF6FE731A4060
:101B5000828070470A460021018B4FF6F7731940C7
:101B60001143018370470A460021018B4FF2FF7336
:101B700019404FF6FF7303EA0223194301837047AC
:101B80000A460021818B4FF6F77319401143818378
:101B900070470A460021818B4FF2FF7319404FF6C0
:101BA000FF7303EA02231943818370470A46002129
:101BB000018B4FF6FB7319401143018370470A46AE
:101BC0000021018B4FF6FF3319404FF6FF7303EAF4
:101BD00002231943018370470A460021818B4FF687
:101BE000FB7319401143818370470A460021818BA2
:101BF0004FF6FF3319404FF6FF7303EA02231943F0
:101C0000818370470A460021018B4FF67F7319408C
:101C10001143018370470A460021018BC1F30E0175
:101C20004FF6FF7303EA02231943018370470A4604
:101C30000021818B4FF67F731940114381837047D8
:101C40000A460021818BC1F30E014FF6FF7303EAB0
:101C500002231943818370470A460021018C4FF605
:101C6000FD7319401143018470470A460021018C1D
:101C70004FF6F77319401143018470470A4600215B
:101C8000018C4FF6DF7319404FF6FF7303EA02131E
:101C90001943018470470A460021018C4FF67F7377
:101CA00019404FF6FF7303EA02131943018470478A
:101CB0000A460021018C4FF6FF5319404FF6FF737F
:101CC00003EA02231943018470470A460021018C6C
:101CD0004FF2FF7319404FF6FF7303EA02231943D3
:101CE000018470470A460021018C4DF6FF731940AC
:101CF0004FF6FF7303EA023319430184704730B58E
:101D0000002301248C40A3B2048C9C430484048CE3
:101D100002FA01F5ADB22C43048430BD30B5002386
:101D200004248C40A3B2048C9C430484048C02FAE7
:101D300001F5ADB22C43048430BD70B503460020DC
:101D400000241846183001258D40ACB21D8CA543E7
:101D50001D8409B1082909D100EB6100056825F04F
:101D6000700505600568154305600EE00D1FC5F39D
:101D70004E052844056825F4E045056005684FF6E2
:101D8000FF7606EA02263543056070BD21B1028860
:101D900042F00202028004E002884FF6FD731A400E
:101DA0000280704721B1028842F00402028004E000
:101DB00002884FF6FB731A400280704721B1828877
:101DC00042F08002828004E082884FF67F731A40DE
:101DD0008280704702884FF6F7731A4002800288AB
:101DE0000A430280704782884FF68F731A408280C0
:101DF00082880A438280704702894FF6F8731A403E
:101E0000028102890A430281704702894FF67F737B
:101E10001A40028102890A43028170478184704717
:101E20008185704781867047018770478187704739
:101E3000A0F84010704702884FF6FF431A40028016
:101E400002880A43028070470146888E7047014627
:101E5000088F70470146888F70470146B1F84000EF
:101E600070470146888C70470146088D70470246CE
:101E70000020138A0B400BB1012000E000207047C6
:101E8000CA430282704730B5024600200023002476
:101E9000158A05EA0103958905EA010413B10CB11D
:101EA000012000E0002030BDCA43028270470000DC
:101EB00010B50446FB48844209D101218803FFF78D
:101EC0009FF800214FF48040FFF79AF832E0F6487F
:101ED000844209D101214804FFF79FF800214FF403
:101EE0000030FFF79AF825E0F048844209D101213B
:101EF0008804FFF792F800214FF48020FFF78DF857
:101F000018E0EB48844209D10121C804FFF785F8A5
:101F100000214FF40020FFF780F80BE0E5488442F1
:101F200008D101210805FFF778F800214FF480104F
:101F3000FFF773F810BD2DE9F04786B005460E4651
:101F40000024A24600BFA1460027B08900B100BF0F
:101F50002F462C8A4CF6FF700440F08804432C82F4
:101F6000AC894EF6F3100440B0883189084371897A
:101F700008430443AC81AC8A4FF6FF400440B0896B
:101F80000443AC8201A8FEF7B4FFC648874202D1E1
:101F9000DDF810A001E0DDF80CA0A88900F40040F5
:101FA00040B10AEBCA0000EB0A1031684900B0FBEF
:101FB000F1F807E00AEBCA0000EB0A10316889006B
:101FC000B0FBF1F86420B8FBF0F0040120096421B3
:101FD00001FB1089A88900F4004040B1322000EBD9
:101FE000C900B0FBF1F000F00700044308E0322024
:101FF00000EB09106421B0FBF1F000F00F00044386
:102000002C8106B0BDE8F0874FF416510160002125
:102010008180C18001810C21418100218181704733
:1020200010B502460020108A4FF2FF0318400B88BB
:102030004C8823438C882343CC8823431843108245
:1020400010BD0021018041808180C180704721B195
:10205000828942F40052828104E082894DF6FF7346
:102060001A4082817047F0B50346002400260025FF
:10207000002040F66A17B94200D100BF1846C1F3EC
:10208000421401F01F06012707FA06F5012C01D1C1
:102090000C3004E0022C01D1103000E014301AB1F1
:1020A00007682F43076002E00768AF430760F0BD91
:1020B0001AB1838A0B43838202E0838A8B43838233
:1020C0007047028A4FF6F0731A400282028A0A436E
:1020D0000282704782894FF2FF731A40828182899F
:1020E0000A438281704721B1828942F002028281D3
:1020F00004E082894FF6FD731A4082817047028A9C
:102100004FF6DF731A400282028A0A430282704746
:1021100021B1028A42F48042028204E0028A4BF634
:10212000FF731A4002827047C1F308028280704731
:1021300001468888C0F308007047818941F0010199
:1021400081817047028BD2B20283028B42EA012264
:1021500002837047028B02F47F420283028B0A43A0
:102160000283704721B1828A42F02002828204E019
:10217000828A4FF6DF731A408282704721B1828AC9
:1021800042F01002828204E0828A4FF6EF731A4016
:102190008282704721B1828A42F00802828204E082
:1021A000828A4FF6F7731A408282704721B1828982
:1021B00042F40042828103E08289C2F30E028281EE
:1021C000704721B1828A42F40062828204E0828AEE
:1021D0004FF2FF731A4082827047828A4FF6FB7378
:1021E0001A408282828A0A438282704721B1828A9F
:1021F00042F00202828204E0828A4FF6FD731A40A6
:102200008282704702460020B1F5007F00D100BFF6
:1022100013880B400BB1012000E00020704701F44F
:102220000072B2F5007F00D100BFCA430280704740
:1022300070B50246002400230025002040F66A16EF
:10224000B14200D100BFC1F3421501F01F030126C6
:1022500006FA03F3012D02D19689334006E0022DE0
:1022600002D1168A334001E0968A33400C120126CF
:1022700006FA04F41688344013B10CB1012000E0D2
:10228000002070BD10B50022002340F66A14A14260
:1022900000D100BF0A1201249440A3B2DC430480A1
:1022A00010BD0000003801400044004000480040DC
:1022B000004C004000500040002400254FF4A06076
:1022C000FEF744F800F034FA00F0E0F800F09DF872
:1022D00001F04CF801F0C1F9002141F61F4000F077
:1022E0001BFD00F0FDFA00F04AFB00F097FB01F047
:1022F0000BFA01F01FFC00F069FE00F00CFE472114
:102300004FF6FF7006F0D3F80AF05CFB04F040FCD7
:102310004FF4004024490860C82000F0B3FA4FF49D
:1023200000402149091D086020480078012804D197
:10233000472142F20F7000F0F7FC03F079FB3121E6
:1023400041F61F4000F0AFFC2CE004F021FC1848DF
:102350000078B8B108201749086101F0F9FB03F0D3
:1023600048FC04F063FB00F04AFE0444681CC0B261
:10237000054605280BD1B4FBF0F00F490880002575
:10238000002404E008200B49486104F0D0FB012040
:102390000A49087000200A49087000BF0748007801
:1023A0000028FBD1D1E700001008014031000020D7
:1023B00032000020001001402A00002029000020E7
:1023C00028000020704700BFFEE700BFFEE700BF07
:1023D000FEE700BFFEE770477047704710B500F09A
:1023E00028FA10BD01464906244A926942F00102CA
:1023F000224B9A61224A526822F0E062204B5A60D6
:102400001A4652680A435A60704708B50220FFF71F
:10241000E9FF0120FFF7E6FF01210420FEF7D6FDCA
:102420004FF40040ADF8000010208DF803000220AA
:102430008DF8020069461348FEF70CFB4FF400418B
:102440001048FEF7B6FB08BD28B94FF400410D4A0D
:102450001432116011E00C490968491C0A4A1160E4
:1024600081420ADB07490C31096881F40041054AC1
:102470000C3211600021044A1160704700100240C4
:1024800000000140000801405800002008B501216B
:102490001420FEF79BFD0120ADF8000004208DF80C
:1024A000030069469548FEF7D5FA4FF40050ADF8A1
:1024B000000004208DF8030069469148FEF7CAFA2F
:1024C00008BD70B504460D4629462046FEF755FB6B
:1024D000012808D100BF29462046FEF74EFB0128FF
:1024E000F9D0012070BD0020FCE710B585480078C8
:1024F000062875D2DFE800F0030F2C3E5D7D012138
:102500007E48FEF73AFB012804D17E480078401C43
:102510007C49087082E07C480088401C80B27A497F
:102520000880052813D101217448FEF726FB0128F5
:1025300008D174480078401C724908700020724924
:10254000088004E00020704908806E49087065E04A
:1025500001216A48FEF711FB012805D16A4800886D
:10256000401C6949088004E066480078401C6549C1
:10257000087053E064480088B0F5C87F06DD00208D
:102580006049087060490880022010BD5E480088DC
:10259000052808DD5B480078401C5A490870002077
:1025A0005949088004E000205649087056490880BF
:1025B00034E055480088401C80B2534908802628E2
:1025C00016D101214D48FEF7D8FA012809D14D480E
:1025D0000078401C4B49087000204B49088007E0F8
:1025E0001BE0002047490870474908800120CCE7DC
:1025F00014E001214148FEF7C0FA012805D1424804
:102600000088401C4049088006E000203E490880C0
:102610003C4908700320B8E700E000BF00BF00207D
:10262000B3E710B5FFF761FF012804D002282FD0CF
:1026300003285FD135E035480078401C33490870E5
:1026400008460078042802D106F0E1F91FE02F487F
:102650000078052807D106F04CFA4FF400402749CE
:102660001431086013E02948007806280FD10020B3
:1026700026490870264908602649086026494860AE
:10268000264948604FF400401C491431086032E08C
:102690002348007808B9012000E000202049087094
:1026A00029E01A480078042810D11E48007808B99B
:1026B000012000E000201B49087008460078C0B9DE
:1026C00040F6241118480AF093FC12E00F480078F5
:1026D00078B91648006808B9012000E000201349C5
:1026E00008600846006820B940F624110E480AF038
:1026F0007FFC00E000BF00BF10BD000000080140EB
:10270000001001405E0000205C000020C800002096
:10271000B4000020B00000204C0800203C0800203D
:1027200032000020D0000020B6120020540000200B
:1027300008B501211020FEF749FC0420ADF8000087
:1027400010208DF8030002208DF80200694614481D
:10275000FEF780F90820ADF8000069461048FEF742
:1027600079F904210E48FEF722FA08210C48FEF7F9
:102770001EFA08BD18B90421094A11610FE0094980
:102780000968491C074A1160814208DB0449C9688D
:1027900081F00401024AD1600021024A11607047B1
:1027A000001001406000002030B50146B1F1807F8B
:1027B00001D3012030BD21F07F40401E4FF0E022C8
:1027C000506150170F22002807DA13071D0E3E4BE9
:1027D00000F00F04241F1D5503E013071C0E3B4B94
:1027E0001C5400BF00204FF0E022906107201061D0
:1027F0000020DFE710B5364800683649B0FBF1F439
:102800002046FFF7D1FF08B100BFFEE710BD01B5BC
:102810003149009808604FF0E020006940F0010065
:102820004FF0E021086100BF2B4800680028FBD171
:1028300008BD2948006820B127480068401E264985
:102840000860704731B5224800682449B0FBF1F5B3
:102850002846FFF7A9FF002408E000BF4FF0E02062
:10286000006900F480300028F8D0641C009884428D
:10287000F3D34FF0E020006920F001004FF0E02199
:10288000086138BD31B5124800684FF47A71B0FB69
:10289000F1F52846FFF788FF002408E000BF4FF05D
:1028A000E020006900F480300028F8D0641C009813
:1028B0008442F3D34FF0E020006920F001004FF094
:1028C000E021086138BD000018ED00E000E400E000
:1028D00000000020A08601006400002040420F009C
:1028E00000B587B001210420FEF770FB01218803A9
:1028F000FEF76CFB4FF40070ADF8180018208DF84F
:102900001B0003208DF81A0006A98148FEF7A2F8E3
:102910004FF48060ADF8180048208DF81B0006A920
:102920007B48FEF797F825208DF8140001208DF8DC
:1029300015008DF816008DF8170005A8FDF70BFDA2
:102940004FF4E13001900020ADF80800ADF80A0026
:10295000ADF80C00ADF810000C20ADF80E0001A988
:102960006C48FFF7E8FA012240F225516948FFF769
:102970007AFB01216748FFF76AFB07B000BD00B58D
:1029800087B001210820FEF721FB01218804FEF712
:102990002AFB4FF48060ADF8180018208DF81B005A
:1029A00003208DF81A0006A95B48FEF753F84FF490
:1029B0000060ADF8180004208DF81B0006A95648E9
:1029C000FEF748F827208DF8140001208DF8150037
:1029D0008DF816008DF8170005A8FDF7BCFC4FF424
:1029E000165001900020ADF80800ADF80A00ADF8CF
:1029F0000C00ADF810000C20ADF80E0001A94748FE
:102A0000FFF799FA012240F225514448FFF72BFBCA
:102A100001214248FFF71BFB07B000BD00B587B09E
:102A200001213020FEF7D2FA01210805FEF7DBFA7A
:102A30004FF48050ADF8180018208DF81B000320CB
:102A40008DF81A0006A93648FEF704F80420ADF800
:102A500018008DF81B0006A93248FDF7FBFF352052
:102A60008DF8140001208DF815008DF816008DF8F2
:102A7000170005A8FDF76FFC4FF4E130019000202E
:102A8000ADF80800ADF80A00ADF80C00ADF8100084
:102A90000C20ADF80E0001A92348FFF74CFA0122E3
:102AA00040F225512048FFF7DEFA01211E48FFF7CA
:102AB000CEFA07B000BD70B504460D461B4800783D
:102AC00060B900BF80211348FFF79CFB0028F9D0B4
:102AD000E1B21048FFF728FB204670BD00BF8021FF
:102AE0000E48FFF78FFB0028F9D0E1B20B48FFF743
:102AF0001BFB2046F1E710B5044600BF2021054826
:102B0000FFF780FB0028F9D00248FFF711FB10BD4A
:102B10000008014000380140000C0140004800401E
:102B2000001001400014014000500040320000201D
:102B300008B501210420FEF749FA4020ADF8000055
:102B400018208DF8030003208DF8020069466E48B6
:102B5000FDF780FF01210420FEF738FA8020ADF850
:102B6000000018208DF8030003208DF8020069464C
:102B70006548FDF76FFF01210820FEF727FA0120C5
:102B8000ADF8000018208DF8030003208DF8020036
:102B900069465E48FDF75EFF01210820FEF716FA40
:102BA0000220ADF8000018208DF8030003208DF8F6
:102BB000020069465548FDF74DFF08BD30B587B0A6
:102BC00005460C4601210220FEF70DFAADF814501F
:102BD000ADF810400020ADF81200ADF8160004A9C1
:102BE0004B48FEF72BFB6020ADF800000120ADF84C
:102BF00002000020ADF80600ADF808006946444820
:102C0000FEF759FB6020ADF800000120ADF802008E
:102C10000020ADF80600ADF8080069463C48FEF714
:102C20008CFB6020ADF800000120ADF80200002010
:102C3000ADF80600ADF8080069463548FEF7CAFB56
:102C40006020ADF800000120ADF802000020ADF8D2
:102C50000600ADF8080069462D48FEF706FC08217D
:102C60002B48FEF777FF08212948FEF77CFF082153
:102C70002748FEF785FF08212548FEF78AFF012136
:102C80002348FEF737FF01212148FEF733FE07B046
:102C900030BD70B504460D46FFF74AFF2946204671
:102CA000FFF78CFF70BD7FB505460C4632208DF8CE
:102CB000000002208DF8010001208DF802008DF83F
:102CC00003006846FDF747FB01210820FEF78BF95A
:102CD000ADF80850ADF804400020ADF80600ADF89E
:102CE0000A0001A90B48FEF7A9FA01210948FFF7DC
:102CF000C7F8012211460748FEF717FE01210548D3
:102D0000FEF7F8FD7FBD000000080140000C014007
:102D100000040040000C004070B504460D462946F2
:102D20002046FFF7B6FF70BD30B589B005460C46AA
:102D30000121C802FEF74AF901210420FEF746F9F5
:102D400018208DF823004FF48070ADF82000032088
:102D50008DF8220008A93748FDF77CFEADF8185021
:102D6000ADF814400020ADF81600ADF81A0005A922
:102D70003148FEF763FA6020ADF804000120ADF899
:102D800006000020ADF80A00ADF80C00ADF8100008
:102D900001A92948FEF78FFA08212748FEF7DAFE35
:102DA00001212548FEF7B2FD01212348FEF7A2FECE
:102DB00001212148FEF79EFD204800881E4934313C
:102DC000088009B030BD70B504460D461C48007837
:102DD000012805D11948008881B21748FFF722F869
:102DE000002C08DA4FF4E1501649088004F5E15050
:102DF000091D088008E04FF4E1501249091D0880C0
:102E0000C4F5E150091F0880002D09DA4FF4E150A4
:102E10000C490831088005F5E150091D088008E0DB
:102E20004FF4E15007490C310880C5F5E150091F06
:102E3000088070BD00080140002C0140CC0000203B
:102E4000310000203404004008B501211020FEF7B5
:102E5000BDF80220ADF8000000208DF8030069469F
:102E60008148FDF7F7FD08BD00B585B00121880256
:102E7000FEF7ACF87D48FDF7D7FA002000908DF8FA
:102E800004008DF805004FF46020029000200390AC
:102E900001208DF8100069467448FDF7ECFA4FF4F4
:102EA0004040FDF7F7FF072301220B216F48FDF794
:102EB0007AFB01224FF408716C48FDF71EFB0121DB
:102EC0006A48FDF704FB6948FDF723FB00BF67482C
:102ED000FDF724FB0028FAD16448FDF729FB00BF69
:102EE0006248FDF72AFB0028FAD101215F48FDF76F
:102EF0002EFB05B000BD08B512208DF800000220A1
:102F00008DF8010001208DF802008DF8030068465D
:102F1000FDF721FA08BD10B5FFF796FFFFF7A4FFF4
:102F2000FFF7E9FF10BD08B501211020FEF74EF8AC
:102F30000120ADF8000000208DF8030069464A48E2
:102F4000FDF788FD08BD00B585B001214802FEF7F8
:102F50003DF84748FDF768FA002000908DF804001E
:102F60008DF805004FF460200290002003900120AE
:102F70008DF8100069463E48FDF77DFA4FF4004099
:102F8000FDF788FF072301220A213948FDF70BFBD3
:102F900000224FF408713648FDF7AFFA012134489A
:102FA000FDF795FA3248FDF7B4FA00BF3048FDF757
:102FB000B5FA0028FAD12E48FDF7BAFA00BF2C481E
:102FC000FDF7BBFA0028FAD105B000BD10B5FFF738
:102FD000AAFFFFF7B8FF10BD10B54FF408712348E2
:102FE000FDF732FC012809D12048FDF743FB2149B8
:102FF00008804FF408711D48FDF738FC10BD2DE91D
:10300000F04101211948FDF7A2FA1A4800880AF098
:1030100060FA804618490AF05BF8074617490AF03B
:1030200057F8064616490AF053F805460AF08DFA95
:1030300084B22046BDE8F08110B504460723012282
:1030400021460B48FDF7AFFA01210948FDF77FFA49
:1030500000BF00BF02210648FDF7EAFB0028F9D0B7
:103060000348FDF707FB10BD001001400028014098
:1030700000240140680000206740533A00003041BE
:103080000000C84210B50A461AB10123FE4C236065
:1030900002E00023FC4C2360002115E00023FB4CE0
:1030A000236000F0800323B10123F74C0834236030
:1030B00003E00023F44C083423600123F34C236025
:1030C0004306180E4B1CD9B20829E7DB0123EE4C4E
:1030D000236010BD30B500241CE004F1B001C8B27B
:1030E0000021FFF7CFFF00210846FFF7CBFF0021AB
:1030F0001020FFF7C7FF002508E0E54901EBC501F7
:10310000085D0121FFF7BEFF681CC5B2802DF4DB0E
:10311000601CC4B2082CE0DB30BD00B500218D205E
:10312000FFF7B0FF00211420FFF7ACFF0021AF2014
:10313000FFF7A8FF00BD00B500218D20FFF7A2FF1B
:1031400000211020FFF79EFF0021AE20FFF79AFF1D
:1031500000BD30B500240CE0002506E00020CC497D
:1031600001EBC5010855681CC5B2802DF6DB601C5B
:10317000C4B2082CF0DBFFF7ADFF30BDF0B514464C
:1031800000267F2801DC3F2900DDF0BD0B46CF176C
:1031900001EB5777FF10C7F10707FAB2CF1701EB22
:1031A0005777FF10A1EBC707FDB2C5F10707012351
:1031B000BB40DEB24CB1B64B03EBC0039B5C334368
:1031C000B34F07EBC007BB5408E0B14B03EBC003A0
:1031D0009B5CB343AE4F07EBC007BB5400BFD4E7C3
:1031E0002DE9F04F80460C4615461E46A346A5F134
:1031F0002000C5B200273EE00C2E07D105EB4500AC
:10320000A44901EB800010F8079004E0A24800EB0D
:10321000051010F807904FF0000A26E009F0800032
:1032200028B121464046099AFFF7A8FF09E009980E
:1032300008B9012000E00020024621464046FFF781
:103240009DFF4FEA49604FEA1069601CC4B2A4EBCD
:103250000B00B04205D15C4608F1010000F0FF0808
:1032600006E00AF1010000F0FF0ABAF1080FD5DB11
:1032700000BF781CC7B2B742BEDBBDE8F08F10B507
:103280000246012000E050430B1EA1F10104E1B20F
:10329000F9D110BD2DE9FF4F81B0074691461E467A
:1032A0000E9D4FF0000A002439E0301B401EC1B2D1
:1032B0000A20FFF7E4FFB9FBF0F00A21B0FBF1F2BE
:1032C00001FB1208BAF1000F16D1701EA04213DDE7
:1032D000B8F1000F0ED10120AB4605EBDB714910B0
:1032E00001FB04710090C8B22B4620220299FFF71F
:1032F00077FF12E04FF0010A0120AB4605EBDB71CE
:10330000491001FB04710090C8B208F13001CAB243
:103310002B460299FFF764FF00BF601CC4B2B442A1
:10332000C3DB05B0BDE8F08F78B505460E46144600
:1033300018E07A2D03DD002506F11000C6B23A2E02
:1033400004DD002005460646FFF703FF012000903C
:1033500022780C2331462846FFF742FF05F108008A
:10336000C5B2641C20780028E3D178BD08B50220DE
:10337000FFF738F80120FFF735F801211820FDF795
:1033800025FE01210820FDF721FE4FF48040ADF815
:10339000000010208DF8030003208DF8020069461C
:1033A0003E48FDF757FB2020ADF8000010208DF8B7
:1033B000030003208DF8020069463948FDF74AFBF7
:1033C0001020ADF800008DF8030003208DF80200F6
:1033D00069463348FDF73EFB0820ADF80000102099
:1033E0008DF8030003208DF8020069462C48FDF794
:1033F00031FB00202449091D08606420FFF742FAD0
:1034000001202849C1F890010021AE20FFF73AFEC3
:103410000021D520FFF736FE00215020FFF732FEB5
:103420000021A820FFF72EFE00213F20FFF72AFEF3
:103430000021D320FFF726FE00210846FFF722FED9
:1034400000214020FFF71EFE00218D20FFF71AFE0D
:1034500000211420FFF716FE00212020FFF712FEA6
:1034600000210220FFF70EFE0021A120FFF70AFE37
:103470000021C020FFF706FE0021DA20FFF702FE40
:103480000021122010E000008C812142B80122426C
:10349000B80300206CF30008E0F7000800100140BA
:1034A000000C014000802142FFF7ECFD002181204B
:1034B000FFF7E8FD0021EF20FFF7E4FD0021D92010
:1034C000FFF7E0FD0021F120FFF7DCFD0021DB200C
:1034D000FFF7D8FD00213020FFF7D4FD0021A42004
:1034E000FFF7D0FD0021A620FFF7CCFD0021AF2083
:1034F000FFF7C8FDFFF72DFE08BD10B50021002223
:10350000C306190E0CE0002206E00023074C04EB72
:10351000C2046354531CDAB2802AF6DB4B1CD9B2C6
:10352000431CB1EBC30FEEDB10BD0000B80300205D
:1035300008B501211820FDF749FDC020ADF80000B5
:1035400004208DF8030069466A48FDF783FAC0201D
:10355000ADF8000004208DF8030069466648FDF7C9
:1035600079FA08BD08B51E208DF8000001208DF8FD
:1035700003008DF8010003208DF802006846FCF777
:10358000EAFE2C208DF8000001208DF803008DF854
:10359000010003208DF802006846FCF7DCFE08BD40
:1035A00000B587B001210420FDF71DFD012148036E
:1035B000FDF70CFD04A8FEF76DF90020ADF8100032
:1035C0004FF6FF70ADF814000020ADF81600ADF80E
:1035D000120004A94948FDF731FE04A94848FDF747
:1035E0002DFE00231A4603214448FEF736FA01A8AF
:1035F000FEF763F90A20ADF80C0001A93F48FEF779
:10360000B0F801213D48FEF73BFC012211463B4842
:10361000FEF78BF901213948FEF76CF900231A46B1
:1036200003213748FEF719FA01A8FEF746F90A20E8
:10363000ADF80C0001A93248FEF793F8012130489B
:10364000FEF71EFC012211462D48FEF76EF90121FE
:103650002B48FEF74FF907B000BD10B5FFF768FF24
:10366000FFF780FFFFF79CFF10BD0146022906D03F
:1036700003290DD0042912D0082922D118E04FF0D7
:103680008042928C10B200224FF080439A841AE05C
:103690001C4A128810B200221A4B1A8013E0174AF3
:1036A0002432128810B20022144B24331A800AE00C
:1036B000134A2432128810B20022114B24331A808C
:1036C00001E0002000BF00BF704710B501210B488A
:1036D000FEF7CDFB01210948FEF7E6FB10BD10B552
:1036E00001210748FEF7C3FB01210548FEF7DCFB7B
:1036F00010BD0000000C0140001001400008004017
:10370000003401402404004008B501211820FDF7D1
:103710005DFC01211020FDF759FC48208DF80300C5
:103720004FF48070ADF800006946F948FDF792F952
:1037300010208DF803004001ADF8000003208DF843
:1037400002006946F348FDF785F910208DF8030063
:10375000ADF8000003208DF802006946ED48FDF742
:1037600079F910208DF803000001ADF80000032066
:103770008DF802006946E748FDF76CF908BD38B5D9
:103780000446012000900020E34948700120009089
:103790002EE0BDF80000204018B10120DF4908608C
:1037A00002E00020DD4908600120DC49091F0860B3
:1037B0000520FFF747F80020D949C1F8A0010520EE
:1037C000FFF740F80120D649C1F8A001D548D0F84C
:1037D000200130B1D0484078BDF800100843CE49F0
:1037E0004870BDF800004FF6FF7101EA40000090FC
:1037F000BDF80000FF28CCDD1020FFF723F838BD0E
:1038000010B50020C54914390860C7490878FFF78A
:10381000B6FFC5494878FFF7B2FF0120C049C1F89B
:103820009001BD484078732801D1002010BD0120CF
:10383000FCE71CB500200190012000900020B74952
:1038400014390860B8490878FFF799FFB6494878F5
:10385000FFF795FF0220019036E00120009027E05D
:103860000120AE49091F08600520FEF7EBFF00208C
:10387000AB49C1F8A0010520FEF7E4FF0120A849EB
:10388000C1F8A001A748D0F8200150B1A2489DF886
:103890000410405CBDF8001008439F499DF80420C7
:1038A0008854BDF800004FF6FF7101EA4000009017
:1038B000BDF80000FF28D3DD1020FEF7C3FF9DF800
:1038C0000400401CC0B201909DF804000928C4DB2C
:1038D00001209249143908601CBD002004E0002139
:1038E0008D4A1154411CC8B20928F8DB704710B545
:1038F000FFF7F3FFFFF79DFF8748C07886490979F6
:1039000040EA01208949088000240FE0884810F827
:103910001400401E012101FA00F084490988084082
:1039200010B9601CC0B210BD601CC4B2102CEDDB1D
:103930000020F8E701467848405C704770B50546BE
:103940000C4600207549143908601020FEF77AFFF4
:103950000120FFF714FF4220FFF711FF0020FFF7BF
:103960000EFF2846FFF70BFF2046FFF708FF002059
:10397000FFF705FF0020FFF702FF0020FFF7FFFE23
:103980000020FFF7FCFE01206549C1F890011020DE
:10399000FEF758FF70BD10B500206049143908606B
:1039A0001020FEF74FFF0120FFF7E9FE4220FFF74E
:1039B000E6FE0020FFF7E3FE0020FFF7E0FE002018
:1039C000FFF7DDFE01205649C1F890011020FEF7F7
:1039D00039FF10BD10B5002050491439086010207F
:1039E000FEF730FF0120FFF7CAFE4320FFF7C7FEB6
:1039F0000020FFF7C4FE0120FFF7C1FE0020FFF703
:103A0000BEFE0020FFF7BBFE0020FFF7B8FE00203F
:103A1000FFF7B5FE0020FFF7B2FE01204049C1F8D4
:103A200090011020FEF70EFF10BD10B500203B499D
:103A3000143908600120FFF7A2FE4420FFF79FFE23
:103A40000020FFF79CFE0120FFF799FE0320FFF7FF
:103A500096FE0020FFF793FE0020FFF790FE002067
:103A6000FFF78DFE0020FFF78AFE01202C49C1F8E8
:103A700090011020FEF7E6FE10BD10B5002027498A
:103A8000143908601020FEF7DDFE0120FFF777FEF5
:103A90004D20FFF774FE0020FFF771FE0020FFF7B6
:103AA0006EFE0120FFF76BFE01201D49C1F8900159
:103AB0001020FEF7C7FE10BD10B5002017491439BD
:103AC00008601020FEF7BEFE0120FFF758FE4320DD
:103AD000FFF755FE0020FFF752FE0020FFF74FFED4
:103AE0005A20FFF74CFE5A20FFF749FE5A20FFF7F5
:103AF00046FE5A20FFF743FE5A20FFF740FE012002
:103B00000749C1F890011020FEF79CFE10BD00008F
:103B1000000C014000100140B8070020A40122421F
:103B200000002242008021426E0000206C00002034
:103B30007000002010B5FFF72EFFFFF72CFFFFF7F6
:103B40002AFFFFF747FFFFF770FFFFF7B5FF10BD34
:103B500010B5FFF7CCFE214908600720FFF7EAFE09
:103B60001F4908600820FFF7E5FE1E490860052090
:103B7000FFF7E0FE1C4908600620FFF7DBFE1B494B
:103B8000086016480068042805D11948007810B963
:103B900001201849086017480068F0B11148006812
:103BA00076281ADA12480078B8B90120104908704E
:103BB0000020114908701149087011490870114816
:103BC0001149086011480078012803D110481149B3
:103BD000086002E00E480F49086010BDA0000020F8
:103BE0009000002094000020980000209C000020FD
:103BF0002D000020A40000202E0000202F00002017
:103C0000300000200000AF43C00000203100002041
:103C1000DB0F493FC400002030B503461C788C54AC
:103C20005D78541C0D559D78941C0D55DD78D41C81
:103C30000D5530BD13B50C460A2C00DC04B91CBD73
:103C40000B2C43D2DFE804F042060C12181E242A83
:103C500030363C00012244496846FFF7DDFF35E07D
:103C6000052241496846FFF7D7FF2FE009223E4968
:103C70006846FFF7D1FF29E00D223B496846FFF770
:103C8000CBFF23E0112238496846FFF7C5FF1DE04E
:103C9000152235496846FFF7BFFF17E01922324960
:103CA0006846FFF7B9FF11E01D222F496846FFF76C
:103CB000B3FF0BE021222C496846FFF7ADFF05E07A
:103CC000252229496846FFF7A7FF00BF00BF00BFB4
:103CD000B5E701460A2900DC09B900207047242015
:103CE000214A10700B293CD2DFE801F03B060B1093
:103CF000151A1F24292F350005201B4A5071062054
:103D0000ECE70920184A50720A20E7E70D20164A0E
:103D100050730E20E2E71120134A50741220DDE7A1
:103D20001520114A50751620D8E719200E4A5076F2
:103D30001A20D3E71D200C4A50771E20CEE7212001
:103D4000094A82F821002220C8E72520064A82F885
:103D500025002620C2E72920034A82F829002A20CC
:103D6000BCE70020BAE70000C107002010B50246FA
:103D70000B460020012B08D1002104E0FE4C645CBE
:103D800060404C1CE1B29142F8DB43B9002104E0F1
:103D9000FA4C645C60404C1CE1B29142F8DB10BD0F
:103DA0002DE9F0477B20F44908767D21F24880F820
:103DB0002E10F3480078002837D0012804D00228BC
:103DC00064D0032830D192E0EE4A1168EE4A1068C0
:103DD00009F026F906464FF0804109F0ABF9044698
:103DE000EA4909F075F9054609F096FB01B2E24887
:103DF000418300218183E44A1168E24A106809F096
:103E000061F9824609F0D4FB8046E14AE14B09F0B2
:103E1000E8FA06460022E04B09F071FA044609F080
:103E2000A8FB01B2D448C18392E0D64A1168D64AB1
:103E3000106809F0F5F806464FF0804109F07AF96C
:103E40000546D24909F044F9044609F065FB01B280
:103E5000C948418300218183CB4A1168C94A10684F
:103E600009F030F9824609F0A3FB8046CB4ACC4BDF
:103E700009F0B7FA06460022C74B09F040FA04469B
:103E800009F077FB01B2BC48C18361E0BD4A11680B
:103E9000BD4A106809F0C4F806464FF0804109F0A9
:103EA00049F90446B94909F013F9054609F034FB0C
:103EB00001B2B148418300218183B34A1168B14AFC
:103EC000106809F0FFF8824609F072FB8046B54A97
:103ED000B54B09F086FA06460022AF4B09F00FFAFF
:103EE000044609F046FB01B2A348C18330E0A54A6D
:103EF0001168A54A106809F093F806464FF0804112
:103F000009F018F90546A14909F0E2F8044609F05C
:103F100003FB01B298484183002181839A4A1168CA
:103F2000984A106809F0CEF8824609F041FB06462F
:103F30009E4A9F4B09F055FA80460022964B09F0A5
:103F4000DEF9044609F015FB01B28B48C18300BFBE
:103F500000BF9848B0F9001087484184964800880F
:103F6000404201B2844881849448B0F900108248EC
:103F7000C1849348B0F900107F48018591480088BA
:103F8000404201B27C4841858F48007828B98F486B
:103F9000B0F900107848818502E0002176488185DB
:103FA0008B4800884FF47A71484301B2724801840B
:103FB000007E714908708448007848700846408B3C
:103FC000000A88700846807EC8700846808B000A08
:103FD00008710846007F48710846C08B000A887146
:103FE0000846807FC8710846408C000A087208465F
:103FF00090F8220048720846808C000A88720846B1
:1040000090F82400C8720846C08C000A087308465D
:1040100090F8260048730846008D000A8873084609
:1040200090F82800C8730846408D000A08740846B6
:1040300090F82A0048740846808D000A8874084663
:1040400090F82C00C8740846008C000A08750846D1
:1040500090F82000487501211620FFF787FE464999
:104060008875084690F82E00C875BDE8F087594954
:10407000088000BF5749091F098801F04001002945
:10408000F8D0704700B5002200BF05E03A49885CCF
:10409000FFF7EDFF501CC2B2182AF7DB00BD2DE977
:1040A000F0470446894609EB042108B209F016FAE4
:1040B00007460022384B09F094F9054609F0BCFA8E
:1040C00082465046BDE8F08710B5044600212046E0
:1040D00009F0D8FA01D8204610BD84F00040FBE773
:1040E0002DE9F34F85B08B463B480290002158469E
:1040F00009F0BEFA7ED00021059809F0B9FA79D00E
:104100005946059809F016F80546FFF7DDFF044605
:10411000029909F0ADFA17D80021584609F0B2FA11
:1041200008D20598FFF7D0FF0446029909F002F87B
:10413000834609E00598FFF7C7FF80F0004420465A
:10414000029908F0F7FF83465946059808F0F2FFF8
:104150000390039809F02CFA06460D4A1F4B09F00C
:1041600027F802460B46CDE900014FF000401C49FC
:1041700009F037F9044636E0EC0700201C0800205F
:10418000310000204C0800203C08002000007A4448
:1041900023DBF97E6ABCC43F00408F400E2DB29DE8
:1041A000EFA7C63F48E17A14AE47C13F6DE7FBA9D0
:1041B000F1D2CD3FE8000020EC000020EA00002012
:1041C000F6000020F20000202C000020F400002067
:1041D0002A000020043801403333B33E6ABCB43FA8
:1041E000976EC23F06E00AF09FF9804609F024FA74
:1041F000824601E04FF0000A504607B0BDE8F08F5C
:1042000070B540F225513848FEF712F8002869D001
:1042100040F225513448FEF735F83348FDF788FF62
:10422000C4B2012031490870002031490870314979
:1042300008703149087031483149097844547B2C61
:1042400003D02F480078002805DD2D480078401C59
:104250002B49087002E0002029490870284800789E
:104260000B283FD10020264908702448807A7D28F9
:1042700038D100210920FFF779FD2049497A884289
:1042800030D11E4A1179D078FFF709FF1D49086027
:104290001A4A117AD079FFF702FF05461A480078CA
:1042A00001280FD1294617480068FFF719FF174961
:1042B0000860174A17491548006800F0F0F81349DC
:1042C00008600EE00D4A117AD079FFF7E8FE0F4939
:1042D00008600F4A0F490D48006800F0E0F80B49EC
:1042E000086000BF002070BD003801402F00002092
:1042F0002E0000202D000020300000201C0800208F
:10430000AC000020B000002031000020B4000020EC
:10431000920A863F920A86BF2DE9F04105460E4675
:1043200014462F463146384609F0ACF900D23746DC
:104330002146384609F09CF900D227463846BDE8A8
:10434000F0812DE9F04705460027012408E0FE48EA
:1043500050F82410601EFC4A42F82010601CC4B2C1
:104360000A2CF4DBF8484562002408E0F64850F8CF
:104370002410384608F054FE0746601CC4B20A2CCC
:10438000F4DBF249384608F0D5FE814609F0C4F85E
:10439000804609F095F806463046BDE8F0872DE9DD
:1043A000F04705460027012408E0E94850F82410AA
:1043B000601EE74A42F82010601CC4B20A2CF4DBED
:1043C000E3484562002408E0E14850F824103846EC
:1043D00008F026FE0746601CC4B20A2CF4DBDB4959
:1043E000384608F0A7FE814609F096F8804609F0A5
:1043F00067F806463046BDE8F08710B5D54A9168A3
:10440000106802F003FE044609F05AF8D1494860EA
:10441000D14A9168106802F02CFE044609F050F869
:10442000CD494860CD48007818B1CC4800780728BD
:104430000BD1C8494868FFF7B2FFC6494860C64972
:104440004868FFF77EFFC4494860C249C44A4868CB
:10445000C449FFF761FFBF494860BF49C04A486887
:10446000C049FFF759FFBC49486010BD10B5002492
:10447000BD480068BD490870BD480088B0F57A7F26
:1044800004DA3220FEF776F9012402E0C820FEF7B4
:1044900071F9B648007800B10124204610BD70B50E
:1044A00006460D4614462946304609F0E1F801D289
:1044B000284670BD2146304609F0E4F801D2204676
:1044C000F7E73046F5E703468B4201DA08467047C6
:1044D000934201DD1046FAE71846F8E72DE9FF5F41
:1044E00005460E460027B846B946BA46FA2003905C
:1044F0004FF4AF7002909F480078012803D14FF429
:10450000C870029006E09B480078032802D14FF45F
:10451000FA700290002472E004EB4401964A02EB28
:104520004101D1F80200954909F0ACF80AD304EB37
:104530004401914A02EB4101D1F80200904909F08F
:1045400097F85BD204EB44008B4901EB40000088F4
:10455000002853DD04EB440001EB40000188029881
:1045600081424BDA781CC7B204EB4401824A02EB69
:104570004101D1F80200824909F07AF812D2484686
:1045800008F09EFF019004EB44007B4A02EB4000E0
:10459000D0F80210019808F043FD834608F0BCFFF4
:1045A000814620E004EB4401734A02EB4101D1F85B
:1045B0000200724909F066F815D204EB44016E4A14
:1045C00002EB4101D1F802006E4908F07BFD019039
:1045D000404608F075FF0090019908F021FD8346E0
:1045E00008F09AFF804604EB4400634901EB400069
:1045F00001880398814201DA0AF1010A641C6248C9
:104600000068844288DB082F34DB0021286809F029
:1046100039F82FD2BAF1040F08DB5C49286808F09A
:1046200057FD286000205A49086023E009EB080084
:10463000002810DD4FF07C51286808F049FD286003
:104640004C480078012802D15248306012E04FF007
:104650007E5030600EE04FF07C51286808F038FD45
:10466000286044480078012802D14B48306001E0BE
:104670004A483060BDE8FF9F2DE9F34F8DB0484CAC
:104680003648007850B947480068012806D14648A6
:10469000007818B10EA90DA8FFF720FF434A44493E
:1046A00044480068FFF7FBFE42490860424A43491C
:1046B00037480068FFF7F3FE354908602D48007859
:1046C00001283FD13E480C900E9E304608F070FF06
:1046D000CDE908010AF018FE02460B46CDE90A01B1
:1046E0004FF00040374908F07CFE0746364A374B0A
:1046F00008F0FFFD824608F09FFF0546344A354921
:104700003046FFF7CCFE06460021304608F0B0FFE9
:1047100069D03149284608F0D5FC80460D9908F04B
:10472000D7FC0746294608F005FD0A4988602A4952
:10473000284608F075FC80460D9908F0C9FC07462C
:1047400029464BE0C3E04EE08408002000002041F1
:104750005C0800203C0800204C080020C800002015
:1047600000A0D7C500A0D745340122422C0000206C
:104770002A00002031000020B612002000009643DD
:10478000000070420000B44344000020000040BF1D
:10479000B4000020C3B8323FC3B832BF000080BFAE
:1047A0000000604054000020410000209A99993F89
:1047B0009A9999BFB0000020920A863F920A86BF5C
:1047C000AE271F44976EC23F23DBF97E6ABCB43F1D
:1047D0000AD7A33E0AD7A3BE54E3A53D08F0AAFC1E
:1047E000FE49886005E0FE490D988860FB490D98F8
:1047F00088603146FB4808F06BFC074608F0D8FE9D
:10480000CDE90601304608F0D3FE074600224FF0FE
:1048100080430AF067F882460022F34B08F06FFDF0
:10482000CDE90201304608F0C3FE07460022EF4BF7
:104830000AF058F882464FF00042ED4B08F05FFD59
:10484000CDE90001DDE9022308F0B2FCCDE9040165
:10485000DDE9062308F04DFD0022E64BCDE9080115
:1048600008F0A6FCCDE90A0108F0E6FE8146E2491F
:10487000484608F027FC82460C9908F029FC80463F
:10488000DE4908F0CDFB074608F046FEDC4908602B
:1048900084F00047D249224688683946FFF7FFFD79
:1048A000CF49886084F00047CC4922468868394661
:1048B000FFF7F5FDC949886040F698024FF448714A
:1048C000CF480068FFF7FFFDCD490860CDE0CD4837
:1048D0000078002840D100210D9808F0C9FE04D2CC
:1048E0000E9880F000400E9001E00E980E90C648A1
:1048F00001680E9808F0ECFB06464FF0804108F086
:1049000019FC05460D9908F0E0FBB5498860BE48E2
:1049100001680E9808F0DCFB06464FF0804108F075
:1049200009FC05460D9908F07BFBAC49886084F0D2
:104930000045AB49224688682946FFF7B0FDA849E3
:10494000886084F00045A549224688682946FFF71B
:10495000A6FDA249886088E0AA480078022840D1D4
:1049600000210D9808F084FE04D20E9880F00040DB
:104970000E9001E00E980E90A34801680E9808F082
:10498000A7FB06464FF0804108F0D4FB05460D9981
:1049900008F09BFB924988609B4801680E9808F0DC
:1049A00097FB06464FF0804108F0C4FB05460D9981
:1049B00008F036FB8949886084F000458849224622
:1049C00088682946FFF76BFD8549886084F00045BB
:1049D0008249224688682946FFF761FD7F49886041
:1049E00043E08848007803283FD100210D9808F063
:1049F0003FFE04D20E9880F000400E9001E00E9829
:104A00000E90814801680E9808F062FB06464FF050
:104A1000804108F08FFB05460D9908F056FB704960
:104A20008860794801680E9808F052FB06464FF0FE
:104A3000804108F07FFB05460D9908F0F1FA6749BF
:104A4000886084F000456649224688682946FFF759
:104A500026FD6349886084F00045604922468868E5
:104A60002946FFF71CFD5D4988600FB0BDE8F08F57
:104A700070B5002437E004EB4401644A02EB4101C5
:104A8000D1F80200624908F0FDFD2BD204EB44018D
:104A90005E4A02EB4101D1F802005E4908F0E8FDF0
:104AA00020D25D48006860B904EB4400574901EB2F
:104AB000400000885949086057480068401C564922
:104AC000086004EB4400514901EB40000188534861
:104AD00000686430814205D204EB44004B4901EB8D
:104AE00040000588641C4E4800688442C3DB4FF0D8
:104AF0007A504C4908604948006808F0EAFC0446CE
:104B0000284608F0E6FC0646214602F0E5FA80F069
:104B10000040454908603B480078012808D1434AD5
:104B2000434941480068FFF7BAFC3F4908600AE082
:104B30003448007838B93F4A3F493B480068FFF79E
:104B4000AEFC3949086070BD2DE9F04100264FF6F2
:104B5000FF75002425E004EB44002C4901EB4000E4
:104B6000008864281CDD04EB440001EB4000008851
:104B7000B0F5C86F14DA761C04EB440001EB40007A
:104B80000088A8420CDA04EB440001EB40000588E1
:104B900004EB440001EB4000D0F802002749086014
:104BA000641C1F4800688442D5DB254923480068FF
:104BB00008F068FD06D223492048006808F082FA10
:104BC0001E490860204801681C48006808F07AFA0D
:104BD00007461E4908F056FD45D339E04C08002031
:104BE0003C080020E5D0E23FD34DF43F00000840F0
:104BF0009318E4BF022BF93F4C37C93F0080BB44F8
:104C0000CC0000203100002038000020B612002027
:104C100000009A4200009E42140100201001002072
:104C200044000020B0000020B4000020DB0F493F0A
:104C3000DB0F49BF7CD9203F7CD920BF0401002075
:104C4000000034430000B44308010020000020416C
:104C5000FE480168FE48006808F034FA0746FD493E
:104C600008F006FD0ED2FC480078401CC0B2FA499C
:104C700008703C280DD100200870F5480068F34901
:104C8000086006E00020F4490870F1480068EF4928
:104C90000860062E12DAF1480088282804DAEF4866
:104CA0000088401CED490880EC48008828286FDB0C
:104CB0000020EB490860EB49086069E00020E74903
:104CC0000880E9480078012838D1E849E0480068C0
:104CD00008F0D8FC05D2E649DD48006808F0C8FCB9
:104CE0000BD3E449DA48006808F0CCFC15D2E2495D
:104CF000D748006808F0BCFC0FD2B5F5FA7F0CDA93
:104D0000DE48D74908600021D048006802F0CAFA9E
:104D100080F00040D34908603AE0284608F0D9FB0B
:104D20000746D74902F0F3FBCD4908600021C74888
:104D3000006802F0B7FACB49086029E0D149C448BD
:104D4000006808F09FFC05D3CF49C148006808F00F
:104D50008FFC0DD2B5F5C87F0ADDBC480168CB4891
:104D600008F0B6F9BF4908600020BD4908600FE0AF
:104D7000284608F0AEFB0746C14902F0C8FBB84917
:104D800008600021B148006802F08CFAB54908605B
:104D9000BF4AC049B3480068FFF781FBB1490860CA
:104DA000BD4ABE49AE480068FFF779FBAC490860D0
:104DB000BDE8F0812DE9F04F85B000240026A14622
:104DC00000254FF4AF700490A7480078012803D164
:104DD0004FF4C870049006E0A3480078032802D17D
:104DE0004FF4FA700490002463E004EB4401AC4AF1
:104DF00002EB4101D1F80200AA4908F043FC0AD3B2
:104E000004EB4401A64A02EB4101D1F802009D499E
:104E100008F02EFC4CD204EB4400A14901EB400009
:104E20000088002844DD04EB440001EB40000188C9
:104E3000049881423CDA701CC6B204EB4401984AE3
:104E400002EB4101D1F802008E4908F011FC0BD2AF
:104E500004EB4400924A02EB4000D0F802104846AE
:104E600008F0DEF8814619E004EB44018C4A02EBBD
:104E70004101D1F802008B4908F004FC0ED204EB8A
:104E80004401874A02EB4101D1F80200864908F04B
:104E900019F90746494608F0C3F8814604EB440077
:104EA0007F4901EB40000088C82801DA681CC5B2C0
:104EB000641C7E480068844297DB082E20DA68482C
:104EC000006808F075FB0746794A7A4B08F070F9DC
:104ED000CDE9000108F0B0FB61498246086008F0A6
:104EE00067FB4FF03332744BCDE9020108F08CFBC5
:104EF00002D872485A49086000205A49086087E081
:104F000059480078012831D1082D06DD6C485449F4
:104F100008600020534908607AE05148006808F0B2
:104F200047FB0746624A634B08F0E3F9CDE900010D
:104F300008F082FB4A490860039008F039FB82467A
:104F40004FF033325F4B08F047FB02D85E484449CC
:104F500008600021484608F095FB03D25B484149B0
:104F6000086055E05A483F49086051E0082D06DDC9
:104F700053483B49086000203A49086048E03848F7
:104F8000006808F015FB0746494A4A4B08F0B1F99A
:104F9000824608F051FB32490860019008F008FB96
:104FA0004FF03332474BCDE9020108F015FB02D830
:104FB00045482B4908600021484608F063FB12D29F
:104FC0002948007818B943482649086020E0264857
:104FD0000078022803D13F482249086018E03D4884
:104FE0002049086014E02048007820B94FF07E5036
:104FF0001C4908600CE01C480078022804D14FF0DE
:105000007E501849086003E04FF07E501549086053
:105010001448006880F000401249086005B0BDE8FF
:10502000F08F2DE9FC5F64244FF4AF7001904FF4D2
:10503000FA62511028480068FFF745FA26490860CF
:105040004FF4FA6251102548006849E00801002039
:1050500004010020000020C10C01002002010020FA
:10506000B0000020B400002031000020000070419A
:1050700000003443000034C3000070C1CDCC4CBEEE
:105080000000C84300004842000048C2211FF4BC91
:10509000920A063F920A06BFCDCCCC3ECDCCCCBE08
:1050A000B612002000009B430000B44344000020DF
:1050B0009A9999999999B93F3333D33F9A99993EDF
:1050C0009A9999BE3333C33F9A99193E7CD920BF30
:1050D0007CD9203F000080BF800200208402002095
:1050E000FFF7F1F9F749086008460068A0F2DC59BB
:1050F000F5480068A0F2DC5A6042814503DDA14515
:1051000001DA4FF000096042824503DDA24501DA71
:105110004FF0000A484608F0D3F9EC490860CAF19C
:10512000000008F0CDF9EA490860E848006808F096
:105130003FFA0746E74AE84B08F0E1F8054608F071
:105140007BFAE2490860E5480078012812D1E44979
:10515000DF48006807F0BCFF834608F029FA0546DF
:105160000022E04B08F03DF9074608F065FAD849FF
:10517000086016E04FF08041D548006807F0A8FFAE
:10518000D949009007F0A4FF834608F011FA0546BC
:105190000022D44B08F025F9074608F04DFACC4917
:1051A0000860D249C948006807F0C4FFC7490860D1
:1051B000CF480078002808DD00200860C449086056
:1051C000CB480078401ECA490870BDE8FC9F2DE915
:1051D000F05F1424C7480068C0F18009C648006821
:1051E000C0F1800A6042814503DDA14501DA4FF03C
:1051F00000096042824503DDA24501DA4FF0000A52
:10520000484608F05DF905464FF08641BB48006806
:1052100007F090FF0646294607F05AFFAB490860A1
:10522000AE480078012809D1504608F049F90546F2
:10523000B34907F04DFFA649086028E00021A348C4
:10524000006808F01FFA12D8504608F039F90646EF
:105250004FF08641AB48006807F06CFF80F00045D6
:105260003146284607F034FF994908600FE0504660
:1052700008F026F905464FF08641A248006807F07D
:1052800059FF0646294607F023FF914908609E48CA
:1052900000680B2838D19D480078401CC0B29B495B
:1052A000087014286FD1002097490860974908704A
:1052B00097499248006807F0B3FE90490546086098
:1052C000944908F0DFF902D292488C49086083487B
:1052D0000078012857D08B48006808F069F9074624
:1052E0008D4A8E4B07F064FF054608F0A5F9854905
:1052F000834608604FF07E5108F0C4F943D24FF066
:105300007E50804908603EE07F4800680C2836D116
:1053100083480078401CC0B281490870142832D1FB
:105320000020794908607E4908707949734800680F
:1053300007F0C8FE7149054608607A4908F098F9F7
:1053400002D278486D4908606448007801281AD074
:105350006C48006808F02CF905466F4A6F4B07F05F
:10536000C8FF074608F068F96649834608606E4939
:1053700008F07EF907D26C486249086003E000201B
:1053800067490870087059495048006807F0D2FE14
:105390004E4908604E48006880F000404C49086063
:1053A000BDE8F09F10B56148007828B90020474952
:1053B00008604749086068E05C480078012807D128
:1053C0004E480068414908600020414908605CE09F
:1053D00056480078022807D1484800683B490860D1
:1053E00053483B49086050E050480078032806D1F4
:1053F0000020364908604E483549086045E04B4872
:105400000078042809D13D48006880F000402F4909
:10541000086047482E49086037E04448007805286E
:1054200009D13648006880F0004028490860002013
:105430002749086029E03D480078062809D12F480F
:10544000006880F00040214908603A48204908601F
:105450001BE036480078072806D100201B49086069
:1054600034481B49086010E030480078082807D10C
:1054700022480068154908602E481549086004E074
:105480000020124908601249086014480078012879
:105490000AD181070E48006807F01AFE0446264923
:1054A00007F048FE0A49086010490848006807F0FC
:1054B00041FE064908600648006880F00040044943
:1054C000086010BD8402002080020020B00000208F
:1054D000B4000020CDCCCCCCCCCCF43F31000020AB
:1054E000DB0FC93E00E07540DB0F493F00007A4406
:1054F000180100209400002098000020C000002027
:10550000920A86BBC4000020A0000020FF000020FB
:105510000000C841000048449A9999999999B93F67
:1055200000010020000052437CD9203E1D010020D4
:10553000DB0FC93FDB0FC9BF000020412DE9FF474A
:105540008246BAF1010F02D106F0ECFF0CE14421D2
:10555000D02006F0BEFC04464321D02006F0B9FC62
:1055600004EB002000B2FB4908804621D02006F061
:10557000B0FC04464521D02006F0ABFC04EB002033
:1055800000B2F54908804821D02006F0A2FC04466C
:105590004721D02006F09DFC04EB002000B2EF492B
:1055A00008803C21D02006F094FC04463B21D0200A
:1055B00006F08FFC04EB002000B2E94908803E2190
:1055C000D02006F086FC04463D21D02006F081FC68
:1055D00004EB002000B2E34908804021D02006F00F
:1055E00078FC04463F21D02006F073FC04EB002039
:1055F00000B2DD4908800846B0F9000007F06EFFF0
:10560000CDE90001D748B0F9000007F067FF064672
:10561000DDE9002309F098F80022D44BCDE902011E
:1056200007F06DFE04464FF0C042D14B07F0D9FEA3
:10563000804607F09EFF00B2CE490880CA48B0F904
:10564000000007F04BFFCDE90001C548B0F90000AC
:1056500007F044FF0646DDE9002309F075F88046AF
:105660000022C24B07F04BFE04464FF0C042C04B35
:1056700007F0B7FECDE9020107F07BFF00B2BE499B
:105680000880B448B0F9000007F028FF0446002263
:10569000BA4B07F0A6FE064607F06BFF00B2AD4915
:1056A0000880AD48B0F9000007F018FF044600225A
:1056B000B24B07F096FE064607F05BFF00B2A64924
:1056C0000880BAF1020F26D1A248B0F9000007F015
:1056D000F7FE0446A748B0F9000007F0F1FE0546C2
:1056E000214607F077F980F00040A54908609A4804
:1056F000B0F9000007F0E4FE04469F48B0F900004E
:1057000007F0DEFE0546214607F0A4FA80F00040CF
:105710009C49086028E0BAF1030F25D18D48B0F903
:10572000000007F0CDFE04469248B0F9000007F0F3
:10573000C7FE0546214607F064FA80F00040904914
:1057400008608548B0F9000007F0BAFE04468A48B0
:10575000B0F9000007F0B4FE0546214607F0CEFB85
:1057600080F0004087490860BDE8FF872DE9F041DF
:105770000420FDF77AFF844908600820FDF775FFD3
:10578000814948608148007890B1012804D00228FE
:105790001AD0032830D123E07B49086807F090FE37
:1057A000054679494968484207F08AFE064623E0E3
:1057B0007549086807F084FE054673494968484200
:1057C00007F07EFE064617E06F49086807F078FE8E
:1057D00005466D494968484207F072FE06460BE0EF
:1057E0006949086807F06CFE054667494968484200
:1057F00007F066FE064600BF00BF6549284607F071
:1058000067FC074663480168384607F061FC0446B8
:10581000614907F08FFC614908605D49304607F037
:1058200057FC07465B480168384607F051FC0446C0
:10583000594907F07FFC5A490860BDE8F08170B50E
:1058400001215848FCF71FFB00286ED00121554864
:10585000FCF72AFBFFF78AFFFCF7E3FE52480078CB
:10586000A8B152480078401CC0B2504908700A28BC
:1058700004D1002008704C49087008E04B480078BB
:105880000A2804DD00204949087047490870484843
:105890000078401CC0B246490870142806D1002088
:1058A00044490870424908704349086043480078F9
:1058B00030BB43480078401CC0B2414908700A28F8
:1058C00009D10220FFF73AFEFEF76AFAFEF7DAFB8B
:1058D00000203B4908703B480078012802D1FFF7BF
:1058E00061FD7EE038480078012802D1FFF76FFCA7
:1058F00077E036480078012873D1FFF792FB70E01B
:105900002E480078012802D1FFF754FA69E02B48AD
:105910000078022802D1FFF717F962E027480078E3
:10592000032803D1FFF7A4F85BE07FE02348007869
:10593000042802D103F01FF953E025480078401CE9
:10594000C0B223490870042844D10020087003F035
:10595000E6FA46E0F2000020F6000020F400002005
:10596000EC000020E8000020EA00002000806640F3
:10597000FB210940EE000020F000002000605040B4
:105980000003002004030020E0000020310000207C
:1059900000004843340000200000C3443C080020BD
:1059A0004C080020000C00402900002028000020A6
:1059B000DD0000204100002054000020C80000202D
:1059C000DC0000202E0000202D00002030000020F0
:1059D000FE00002054480078042802DD00205249CF
:1059E00008705248016852480068FEF745FEFEF70D
:1059F0003DFD10B9FEF701FD08E000204D4948606B
:105A00004D49486040F2DC504C4908604A494868BA
:105A100007F082FD06464748406880F0004528466A
:105A200007F07AFD04463146FDF7CDF9002070BD40
:105A30004348007818B142480078012806D141480F
:105A40004149086041484249086010E03C480078FC
:105A5000022806D13F483C4908603F483C4908605D
:105A600005E03E48384908603D48394908607047BC
:105A700010B500202D49086002F025FD3948008846
:105A8000C8280FDA38492A48006807F01BFB284964
:105A900004460860354907F0EBFD43D233482449FA
:105AA00008603FE02F480088B0F5877F15DD2D485E
:105AB000008840F2EE2188420FDA2B491C4800682A
:105AC00007F0AEFA1A4904460860294907F0DAFDE2
:105AD00028D227481649086024E0002114480068AD
