:020000040800F2
:10000000F843002089010008E31D00084F1C000888
:10001000E11D0008B1050008A92700080000000044
:100020000000000000000000000000002122000885
:10003000F705000800000000E51D00082322000865
:10004000A3010008A3010008A3010008A301000800
:10005000A3010008A3010008A3010008A3010008F0
:10006000A3010008A3010008A3010008A3010008E0
:10007000A3010008B5050008A3010008A3010008BA
:10008000C1050008A3010008A3010008A30100089E
:10009000A3010008A3010008A3010008A3010008B0
:1000A000A3010008A3010008A3010008A3010008A0
:1000B000A3010008A3010008A3010008A301000890
:1000C000A3010008A3010008A3010008A301000880
:1000D000A3010008A30100089D270008A301000850
:1000E000A3010008A3010008A301000800F002F822
:1000F00000F03AF80AA090E8000C82448344AAF188
:100100000107DA4501D100F02FF8AFF2090EBAE885
:100110000F0013F0010F18BFFB1A43F0010318473B
:10012000AC2C0000CC2C0000103A24BF78C878C159
:10013000FAD8520724BF30C830C144BF04680C60ED
:10014000704700000023002400250026103A28BF35
:1001500078C1FBD8520728BF30C148BF0B60704739
:100160001FB51FBD10B510BD00F08FF91146FFF788
:10017000F7FF02F0A7FC00F0ADF903B4FFF7F2FFC0
:1001800003BC00F0B5F90000094880470948004762
:10019000FEE7FEE7FEE7FEE7FEE7FEE7FEE7FEE737
:1001A000FEE7FEE704480549054A064B7047000094
:1001B00085220008ED000008F8370020F8430020F1
:1001C000F83B0020F83B002010B5431C02E010F87B
:1001D000011B71B18107FAD14FF0013202C88C1AAC
:1001E0008C4314EAC211F9D0C01A0A0603D0C01E0B
:1001F00010BDC01A10BD0A0401D0801E10BD090236
:10020000FCD0401E10BD032A40F2308010F0030CD9
:1002100000F0158011F8013BBCF1020F624498BF59
:1002200011F801CB00F8013B38BF11F8013BA2F1F6
:10023000040298BF00F801CB38BF00F8013B11F071
:10024000030300F06780083AC0F0088051F8043BCF
:10025000083A51F804CBA0E80810F5E7121D5CBF7E
:1002600051F8043B40F8043BAFF30080D20724BFB1
:1002700011F8013B11F801CB48BF11F8012B24BF45
:1002800000F8013B00F801CB48BF00F8012B704794
:10029000431A28BF9A427FF6B6AF032A104411448E
:1002A00040F2268010F0030F1EBF11F8013D521ED0
:1002B00000F8013D10F0030F7FF4F6AF11F00303D7
:1002C00000F0B980083AC0F00B8051F8043D083ABC
:1002D00051F804CD40F8043D40F804CDFFF7F3BFDA
:1002E000121D5CBF51F8043D40F8043DAFF300809F
:1002F000D20724BF11F8013D11F801CD48BF11F814
:10030000012C24BF00F8013D00F801CD48BF00F8E2
:10031000012C704710B5203AC0F00B80B1E818509E
:10032000203AA0E81850B1E81850A0E81850BFF4DF
:10033000F5AF5FEA027C24BFB1E81850A0E818507E
:1003400044BF18C918C0BDE810405FEA827C24BFD2
:1003500051F8043B40F8043B08BF7047D20728BF60
:1003600031F8023B48BF11F8012B28BF20F8023BAF
:1003700048BF00F8012B70474FF000020429C0F07D
:10038000128010F0030C00F01B80CCF1040CBCF1C7
:10039000020F18BF00F8012BA8BF20F8022BA1EB19
:1003A0000C0100F00DB85FEAC17C24BF00F8012BFE
:1003B00000F8012B48BF00F8012B70474FF00002F6
:1003C00000B5134694469646203922BFA0E80C504B
:1003D000A0E80C50B1F12001BFF4F7AF090728BF26
:1003E000A0E80C5048BF0CC05DF804EB890028BFA2
:1003F00040F8042B08BF704748BF20F8022B11F0CB
:10040000804F18BF00F8012B704770477047704746
:10041000431A28BF9A427FF67DAF104410F0030FB5
:1004200011441EBF11F8013D521E00F8013D10F0AD
:10043000030F7FF4F6AF103AC0F00A8010B531E92F
:100440001850103A20E91850BFF4F9AFBDE8104039
:10045000530724BF31E9081020E9081044BF51F8C0
:10046000043D40F8043D12F0030F08BF7047D20767
:1004700028BF31F8023D48BF11F8012C28BF20F8F1
:10048000023D48BF00F8012C7047754600F02CF87B
:10049000AE4605006946534620F00700854618B071
:1004A00020B5FFF77FFEBDE820404FF000064FF07B
:1004B00000074FF000084FF0000B21F00701AC4699
:1004C000ACE8C009ACE8C009ACE8C009ACE8C009B8
:1004D0008D46704710B50446AFF300802046BDE856
:1004E0001040FFF74ABE00000048704794370020D4
:1004F00001491820ABBEFEE726000200704700004D
:1005000010B50BA002F0EAF901F06CFD01F036FE27
:1005100001F042FF00F086F800F020FC0949486035
:1005200000200870BDE8104007A002F0D7B9000015
:1005300049522063616D65726120626F6F740D0AAC
:10054000000000000000002047592D4D4355393070
:100550003634302072656365697665207374617224
:100560007465640D0A00000010B50F4800F08EF8A5
:100570000E4C48B104F108010B4801F085FE00F073
:10058000EDFB606000200DE0207800280BD100F02A
:10059000E5FB6168401A40F6B831884203D901F0A2
:1005A000D7FE0120207010BD940100200000002023
:1005B000FEE70000014800F0B9B900007C0000200F
:1005C000014800F0B3B900005001002030B590F8A8
:1005D00040500124AC40C56B6C60046863604368A4
:1005E000102B036803D099600068C26030BD9A6028
:1005F0000068C16030BD704772B6FEE7074910B5AC
:1006000088420AD106484169491C4161034801F00A
:10061000A9F8BDE8104002F03FBA10BD0801002063
:100620009407002010B572B6002114480170418073
:1006300062B620211248FFF7C1FE124801F092F87D
:1006400010494FF4E1304860084601F0FBF91420EE
:1006500000F07CFA04210C4802F016FA322000F077
:1006600075FA09480421001D02F00EFA322000F04C
:100670006DFABDE8104002F00FBA00000E00002035
:100680009407002008010020042D00082DE9F04106
:10069000070042D043480178A1B372B644884FF4B2
:1006A0004160844200D904463F49224601F5416039
:1006B000FFF730FE62B64FF4C16084422DD3A4F53B
:1006C000C1623A49002592B208E04B5D5A2B03D132
:1006D0004B195B785A2B04D06D1CADB2AA42F4D2F0
:1006E0002546334E314AA54210D3B068401CB06055
:1006F000012C12D9101910F8010C5A2803D02046E9
:1007000002F0A4F909E0641EA0B2F9E7611B89B206
:10071000814205D20DB12846F2E70020BDE8F08104
:1007200050194188A1F5C063023B03D0F068401C1A
:10073000F06015E00023194640F2066405EB010C59
:100740009444891CBCF800C089B263449BB2A142A6
:10075000F4D3B0F806168B4205D03069401C3061E6
:10076000AD1CA8B2CCE7021D00214FF4407400BFBD
:1007700002EB41031B8827F81130491C89B2A142C2
:10078000F6D3B0F80406B08300F0E8FAB061706800
:1007900005F5C165401C7060A8B202F057F9012050
:1007A000BCE700000E000020F40D0020041A002019
:1007B000940700202DE9F0410D46204988423AD1A6
:1007C0001F480168491C0160C5831C4800F0CAFF2E
:1007D0004FF4C860854201D9054600E03DB3194C8D
:1007E0006088194F284480B2B0F5416F13D96088F2
:1007F0002844A0F5416086B26088864201D300207B
:1008000008E06088B919801B82B20F48FFF740FDED
:100810006088801B60806088094938442A462031FE
:10082000FFF7F1FC60882844608001202070BDE85B
:10083000F04102F031B9BDE8F0810000080100206C
:10084000940700200E000020F40D002010B590F851
:1008500021100022022905D00421816380F8202084
:10086000012010BD01680B6823F00E030B600168C6
:100870000B6823F001030B6090F84030C46B01213A
:1008800001FA03F3636080F8211080F820201046FD
:1008900010BD000010B590F821100024022903D0EB
:1008A0000421816301243DE001680A6822F00E0200
:1008B0000A6001680A6822F001020A601A4A0168A7
:1008C000914201D1012121E0174A1432914201D114
:1008D00010211BE0144A2832914201D1891515E0FC
:1008E000114A3C32914201D189140FE00E4A503234
:1008F000914202D14FF4803108E00B4A64329142B8
:1009000002D14FF4801101E04FF08071064A083A9D
:100910005160012180F82110002180F82010416BE6
:1009200001B18847204610BD080002402DE9F05F64
:10093000C16B0C6801680B68D0F840C0042202FA51
:100940000CF2494DDFF824A1494E4A4FDFF828B197
:10095000DFF828E122422CD05A072AD50A689206ED
:1009600003D40A6822F004020A600168A94201D196
:10097000042219E0514501D1402215E0B14202D1D3
:100980004FF4806210E0B94202D14FF480420BE094
:10099000594502D14FF4802206E0714502D14FF44F
:1009A000800201E04FF080622F4908394A60C16A35
:1009B0003BE04FF0020808FA0CF818EA040F4FF079
:1009C00000094FF0010235D05FEA837832D50B6819
:1009D0009B0605D40B6823F00A030B6080F82120E6
:1009E0000168A94201D1022219E0514501D120221A
:1009F00015E0B14202D14FF4007210E0B94202D1C9
:100A00004FF400520BE0594502D14FF4003206E09A
:100A1000714502D14FF4001201E04FF0007212490B
:100A200008394A6080F82090816A00291AD0BDE810
:100A3000F05F0847082505FA0CF5254212D01B0780
:100A400010D50B6823F00E030B6090F84010C36BB9
:100A500002FA01F15960826380F8212080F8209029
:100A6000016BE2E7BDE8F09F080002401C00024075
:100A70003000024044000240580002406C00024036
:100A800030B528B308C8134914221944B1FBF2F158
:100A90008900C16310498163022141771A6843F6D6
:100AA000F0718A43D0E900142143D0E902452C4378
:100AB000214304692143446921438469214311434B
:100AC000196000214163012242770177084630BD59
:100AD000012030BDF8FFFDBF0000024070B50446A4
:100AE00090F82000002501280CD0012084F8200077
:100AF00094F821600020012E06D084F82000022501
:100B0000284670BD022070BD022684F82160A063D3
:100B10002068066826F0010606602046FFF756FDAD
:100B2000E06A00282068016802D041F00E0106E06A
:100B300021F0040101602068016841F00A010160B0
:100B40002068016841F001010160D9E770B50446F1
:100B500000F004F90546601C02D004480078044403
:100B600000F0FCF8401BA042FAD370BD1400002036
:100B70002DE9F84FDFF8B8910024A9F1040B2346C2
:100B80000F2709F1040AABF1040EC9E00125A540C5
:100B90002A40AA427DD1674ED1F804C0ACEB0608CA
:100BA000B44532D014DCBCF1030F3AD009DCBCF1FF
:100BB000000F2AD0BCF1010F1CD0BCF1020F31D1C3
:100BC0001DE0BCF1110F17D0BCF1120F2AD119E0B2
:100BD000B8F5881F19D006DCB8F5803F15D0B8F5F8
:100BE000801F1FD111E0B8F5001F0ED0B8F5041F0B
:100BF00018D10AE0CB6815E0CB681B1D12E0CB686A
:100C000008330FE0CB680C330CE08B682BB1012B61
:100C10004FF0080303D0456104E0042302E00561BE
:100C200000E00023FF2A01D8064601E000F1040697
:100C30004FEA840501D9A5F12005D6F8008007FA0E
:100C400005FC28EA0C0803FA05F548EA0508C6F889
:100C500000804D68ED0062D5374DAE6946F0010663
:100C6000AE61AD6924F0030605F001050095334D32
:100C700006EB050CDCF80850A607360F07FA06F855
:100C800025EA0805DFF8B880404503D14FF0000899
:100C900017E044E0DFF8AC80404502D14FF0010896
:100CA0000FE0DFF8A480404502D14FF0020808E0D1
:100CB000DFF89880404502D14FF0030801E04FF083
:100CC000040808FA06F848EA0508CCF808804D68D8
:100CD000D9F80060ED024D4601D5164300E0964379
:100CE0002E604D68DAF80060AD02554601D5164316
:100CF00000E096432E604D68DBF80060AD035D4672
:100D000001D5164300E096432E604D68DEF8006082
:100D1000ED03754601D5164300E096432E60641C32
:100D20000D682A46E5407FF431AFBDE8F88F00003A
:100D300008040140000011100010024000000140B2
:100D400000080140000C0140001001400014014067
:100D50000AB1016170470904FBE70000014880689F
:100D60007047000014000020024881680278114496
:100D70008160704714000020074810B5016841F0F9
:100D800010010160032000F075F80F2000F006F854
:100D900000F024F8002010BD0020024070B50D4D79
:100DA00004464FF47A712878B1FBF0F00A490968DB
:100DB000B1FBF0F000F09BFC48B9102C07D20022E8
:100DC0002146501E00F036F800206C6070BD0120F6
:100DD00070BD000014000020200000200C4808B561
:100DE000816941F001018161816901F00101009196
:100DF000C16941F08051C161C06900F0805000902C
:100E00000448416821F0E06141F00071416008BD93
:100E10000010024000000140002809DB00F01F0222
:100E2000012191404009800000F1E020C0F800114C
:100E300070470000F0B40E4B1B680C46C3F302234E
:100E4000C3F10705042D00D90425191D072901D276
:100E5000002300E0DB1E012606FA05F1491E2140B1
:100E600099409E40761E16403143F0BC01F09DBC77
:100E70000CED00E0064900F0070208684FF6FF039A
:100E8000184040EA0220034A1043086070470000FF
:100E90000CED00E00000FA052DE9F0470F460500D3
:100EA00061D0434E306800F00700B84209D2306884
:100EB00020F0070038433060306800F00700B84287
:100EC00051D128683B4C810712D5400703D5606893
:100ED00040F4E06060602878000703D5606840F463
:100EE000605060606068A96820F0F00008436060AE
:100EF0002878C00728D06868012810D02168022807
:100F000010D0890700292EDA616821F0030101431E
:100F10006160FFF723FF804641F288390DE02168C8
:100F20008903EFE78901EDE7FFF718FFA0EB080160
:100F3000494502D90320BDE8F0876068696800F080
:100F40000C00B0EB810FEFD1306800F00700B84221
:100F50000BD9306820F0070038433060306800F06B
:100F60000700B84201D00120E5E72878400705D501
:100F70006068E96820F4E060084360602878000752
:100F800006D56068296920F4605040EAC1006060BD
:100F900000F038F86168084AC1F30311515CC84099
:100FA0000649086006480068FFF7F8FE0020C2E71F
:100FB0000020024000100240B12D00082000002057
:100FC000180000200448054900684968044AC1F334
:100FD0000221515CC84070472000002000100240F0
:100FE000C12D00080448054900684968044AC1F356
:100FF000C221515CC8407047200000200010024010
:10100000C12D00080E4A51680E4801F00C03042B54
:1010100011D0082B0FD10C48C1F38343C903C05C26
:101020000AD55168084AC1F34041921E515C054AF5
:101030005043B0FBF1F0704704494843704700004B
:101040000010024000127A00A12D000800093D00A6
:101050002DE9F84F040070D02078C04DC00749D06A
:101060006868C0F38100012807D06868C0F3810078
:10107000022809D16868C00306D52868800339D5DD
:1010800060680028E7D035E06068B0F5803F0BD09D
:1010900010B1B0F5A02F11D0286820F4803028605E
:1010A000286820F4802002E0286840F4803028601E
:1010B000606890B1FFF752FE06460AE0286840F4E7
:1010C00080202860F0E700BFFFF748FE801B6428FF
:1010D00073D828688003F7D50CE0FFF73FFE06467B
:1010E00005E000BFFFF73AFE801B6428F0D82868AF
:1010F0008003F7D420789A4E80074FF001094FF013
:10110000000839D5686810F00C0F07D06868C0F384
:101110008100022809D16868C00306D428688007C6
:1011200014D52069012808D110E02069B0B1C6F8B3
:101130000090FFF713FE074605E00AE1FFF70EFEF9
:10114000C01B0228C4D828688007F7D528686169C1
:1011500020F0F80040EAC10028600DE0C6F80080E9
:10116000FFF7FCFD074604E0FFF7F8FDC01B02286F
:1011700023D828688007F7D4207800072CD5794831
:10118000A169D9B1C0F80090FFF7E8FD074604E077
:10119000FFF7E4FDC01B02280FD8686A8007F7D567
:1011A00071484FF4FA510068B0FBF1F0009000BFB5
:1011B0000098411E0091FAD20EE080E0C0F8008055
:1011C000FFF7CCFD074604E0FFF7C8FDC01B02286F
:1011D00075D8686A8007F7D42078400760D5E86939
:1011E0000027C00008D4E86940F08050E861E86951
:1011F000012700F0805000905C480168C90513D4B5
:101200000168834641F480710160FFF7A7FD8246C3
:1012100006E000BFFFF7A2FDA0EB0A0064284ED84D
:10122000DBF80000C005F5D5E06801280AD008B158
:10123000052813D0286A20F001002862286A20F0CF
:10124000040002E0286A40F001002862E06841F2F0
:10125000883B98B1FFF782FD82460BE0286A40F098
:1012600004002862EEE700BFFFF778FDA0EB0A015B
:1012700059455AD8286A8007F6D50CE0FFF76EFD6D
:10128000824605E0FFF76AFDA0EB0A0159454CD8FC
:10129000286A8007F6D41FB1E86920F08050E86121
:1012A000E06988B36968C1F38101022944D002284A
:1012B000C6F8608004D0FFF751FD044638E034E002
:1012C000FFF74CFD074604E0FFF748FDC01B02286E
:1012D0002BD828688001F7D4206AB0F5803F05D16B
:1012E0006868A16820F4003008436860D4E9080108
:1012F0000843696821F4741108436860C6F8609077
:10130000FFF72CFD044606E025E000BFFFF726FDB1
:10131000001B022809D828688001F7D51BE000BF10
:10132000FFF71CFD001B022802D90320BDE8F88F3F
:1013300028688001F4D40EE00128F7D06868226A9A
:1013400000F48031914204D1616A00F47010884247
:1013500001D00120EAE70020E8E700000010024089
:101360000000424280044242200000200070004001
:10137000704770B5040009D0606A002540B125614E
:101380006561A56294F8510040B10CE0012070BD88
:101390006068B0F5827FF4D0E561F2E784F85050E0
:1013A000204600F03FF8022084F8510020680168D0
:1013B00021F040010160A088218900F4827001F4CD
:1013C00004410843A18901F400610843217C01F034
:1013D00002010843217D01F001010843218B01F442
:1013E00000710843217F01F03801084394F8201070
:1013F00001F080010843218D01F400510843216868
:101400000860A069042101EA104021684860206852
:10141000C16921F40061C1616565012084F8510052
:10142000002070BD70B586B0002506460095019578
:101430000295039500681A4988422FD11949886995
:1014400040F480508861886900F480500490886975
:1014500040F0040088618869694600F00400049047
:10146000A020009002200190032003900E48FFF777
:101470007FFB0F4C0D4820601020C4E9010580203F
:10148000C4E9030540016561C4E906502046FFF741
:10149000F7FA08B1FFF7B0F8B464666206B070BD41
:1014A00000300140001002400008014030000240BE
:1014B0007C0000202DE9F84F984616468A460446DF
:1014C000FFF74CFC814694F8510001281ED1BAF177
:1014D000000F73D0002E71D094F85000012815D061
:1014E000012784F85070032084F8510000256565B9
:1014F000C4F830A0A686E686A563A587E58765645F
:101500002564A068B0F5004F03D00CE00220BDE8D0
:10151000F88F2068016821F04001016020680168AF
:1015200041F48041016020680168490603D40168E4
:1015300041F040010160E068B0F5006F606803D0E1
:1015400048B3012E27D047E008B1012E1FD1206BF0
:1015500021680088C86006E020688168890709D58D
:10156000216B0988C160206B801C2063E08E401EC7
:10157000E0860CE0FFF7F2FBA0EB0901414503D345
:10158000B8F1FF3F03D035E0B8F1000F32D0E08E64
:101590000028E1D123E0206B21680078087306E081
:1015A0002068816889070AD5216B09780173206B4F
:1015B000401C2063E08E401EE0860DE02BE0FFF72C
:1015C000CDFBA0EB0901414503D3B8F1FF3F03D0A8
:1015D00010E0B8F1000F0DD0E08E0028E0D14A46AF
:1015E0004146204600F047FC08B120206065A06815
:1015F00030B109E084F8517084F85050032086E738
:101600002068C1688068009084F8517004F8505FC9
:1016100060680028F3D0012079E7000070B5044627
:1016200090F8510001281CD1C9B1C2B194F8500002
:10163000012816D0012084F85000032084F85100BE
:10164000002565652163A286E286A563656425643D
:10165000A587E587A068B0F5004F04D00DE0012014
:1016600070BD022070BD2068016821F0400101605A
:101670002068016841F480410160A16C1748C8628C
:10168000A16C17488862A16C16480863A06C45637A
:10169000E38E2268216B0C32A06CFFF71FFA30B189
:1016A000606D40F01000606584F85050D7E7206806
:1016B0000168490603D4016841F04001016084F8E3
:1016C00050502068416841F0200141602068416825
:1016D00041F002014160002070BD0000091E0008B9
:1016E000131E0008E71D000800F06CBD704710B520
:1016F000401EB0F1807F01D3012010BD4FF0E024E7
:1017000060610F21601701F050F80020A0610720F0
:101710002061002010BD38B5044690F84200202812
:1017200001D0022038BD51B14AB101202063002010
:101730006063204600F0B0FF216B012901D0012039
:1017400038BD21680A684968009121680C3151E868
:10175000002F42F0100241E80023002BF5D138BDE4
:10176000FFF728B810B504460068406994F84110A6
:10177000C0F3C010212911D180B12068143050E885
:10178000001F21F0800140E80012002AF5D1A06B73
:1017900008B1FFF75BF8204600F0B3FE206840690F
:1017A00094F84210C0F38010222911D180B1206832
:1017B000143050E8001F21F0400140E80012002AD8
:1017C000F5D1E06B08B1FFF741F8204600F072FE5A
:1017D000002010BDFEF712BFF8B501680446086886
:1017E000CA684B6910F00F0F4FF0000559D003F095
:1017F000010602F49077374365D0C10705D0D105C3
:1018000003D5616C41F001016164410705D5D90739
:1018100003D0616C41F002016164810705D5D907ED
:1018200003D0616C41F004016164010707D502F047
:101830002001314303D0616C41F008016164616CA7
:1018400000293AD0800604D5900602D5204600F043
:1018500066FE20684069616CC0F38010090700D4FF
:1018600060B3204600F026FE20684069400621D57E
:101870002068143050E8001F21F0400140E80012B9
:10188000002AF5D1E06BA8B16D494163E06BFFF729
:1018900001F8002811D0E06B416B01B0BDE8F040C9
:1018A000084783060FD593060DD52046BDE8F840BE
:1018B00000F035BE2046FFF78DFFF8BD2046FFF74C
:1018C00089FF6564F8BD266B2023012E7CD1C606F6
:1018D0007AD5D60678D508684868009048694FF0F0
:1018E0000206400640D5E16B086840680004000C21
:1018F000E8D0A28D8242E5D9E085886920282DD0E4
:1019000020680C3050E8001F21F4807140E800127C
:10191000002AF5D12068143050E8001F21F00101A1
:1019200040E80012002AF5D12068143050E8001F6A
:1019300021F0400140E80012002AF5D184F842303D
:10194000256320680C3050E8001F21F0100140E8AA
:101950000012002AF5D1E06BFEF778FF6663A08DD8
:10196000E18D401A81B22AE0A08DE18D401A81B24A
:10197000E08D0028A6D00029A4D022680C3252E8BD
:10198000000F20F4907042E80007002FF5D1206886
:10199000143050E8002F22F0010240E80027002F09
:1019A000F5D184F84230256320680C3050E8002FD0
:1019B00022F0100240E80023002BF5D16663204698
:1019C000FFF7CEFEF8BDFFE705062BD5150629D596
:1019D00094F841002128F5D1A068B0F5805F01D1CD
:1019E0002069B0B1206A411C2162216800784860FA
:1019F000E08C401E0004000CE084E3D12068C16844
:101A000021F08001C1602068C16841F04001C160DF
:101A1000D8E7206A0088C0F308004860206A801C6C
:101A20002062E5E74006CDD55006CBD5CA682046F2
:101A300022F04002CA6084F8413000F007F9C1E7A3
:101A4000B723000870B5040004D094F841000025C5
:101A500010B106E0012070BD84F84050204600F02F
:101A600023F8242084F841002068C16821F4005143
:101A7000C160204600F0B4FD2068016921F4904166
:101A800001612068416921F02A0141612068C16833
:101A900041F40051C1606564202084F8410084F85D
:101AA00042006563002070BDF0B585B0002500954B
:101AB0000195029503950646354F03683549022086
:101AC0000322354CBB4221D18B6943F480438B61A7
:101AD0008B6903F4804304938B6943F004038B61A7
:101AE0008969039201F0040104910102CDE900101B
:101AF00069462046FFF73CF82015CDE90005694608
:101B000020460295FFF734F805B0F0BD234FBB42E5
:101B1000FAD1CB6943F40033CB61CB6903F40033D2
:101B200004938B6943F004038B618969039201F08C
:101B3000040104910421CDE9001069462046FFF715
:101B400017F80820CDE90005694620460295FFF701
:101B50000FF8144C1248C4E900058020C4E9025073
:101B600020202561C4E905500002E0612046FEF70F
:101B700087FF08B1FEF740FDF46300220121262013
:101B80006662FFF757F92620FFF746F9BCE7000029
:101B900000380140001002400008014000440040AD
:101BA0006C00024050010020704770472DE9F84357
:101BB000044690F84100984616460D46202802D06B
:101BC0000220BDE8F88385B17EB100206064212049
:101BD00084F84100FFF7C2F8A6848146E684A06835
:101BE0002027B0F5805F02D003E00120E9E72069FB
:101BF00010B12E4600250EE000260CE08021204684
:101C000000F092FDA8B9C6B116F8010B2168486032
:101C1000E08C401EE084E08C4B464FF00002CDF893
:101C200000800028EAD14FF04001204600F07CFD02
:101C300040B184F841700320C3E735F8020BC0F3CC
:101C40000800E3E784F841700020BAE77047FEE738
:101C50000D4808B5416941F0010141614069002228
:101C600000F00100009002210D20FFF7E3F80D20A5
:101C7000FFF7D2F8002201211020FFF7DBF8BDE8C2
:101C800008401020FFF7C8B8001002402DE9F043CB
:101C900085B0002421480094019402940394816942
:101CA00041F020018161816901F020010491816985
:101CB00041F004018161816901F0040104918169AD
:101CC00041F0080181618069DFF8548000F008006C
:101CD0000490012210214046FFF73AF8DFF84490C3
:101CE00040F20317012239464846FFF731F8102029
:101CF00001250326CDE90005CDE9024669464046A7
:101D0000FEF736FF00970396CDE901546946484631
:101D1000FEF72EFF05B0BDE8F08300000010024082
:101D200000080140000C0140104810B50E49016048
:101D30004FF48271416000218160C1604FF40072F4
:101D40000161C0E905120822C0E9072141628162F0
:101D50000A21C162FFF70DFB002803D0BDE8104047
:101D6000FEF74ABC10BD00000030014024000020F6
:101D70000C4810B50A4901604FF4E131416000217F
:101D800081600C22C160C0E904128161C161FFF76A
:101D900059FE002803D0BDE81040FEF72DBC10BD51
:101DA00000380140C00000200C4810B50A4901600D
:101DB0004FF4E1314160002181600C22C160C0E933
:101DC00004128161C161FFF73DFE002803D0BDE828
:101DD0001040FEF711BC10BD004400400801002077
:101DE000FEE7FEE7704710B5406A01684A6822F0D6
:101DF00003024A60416D41F010014165012180F804
:101E00005110FFF7B5FA10BD10B5406AFFF76EFC30
:101E100010BD38B50546446AFEF7A0FF02462868A3
:101E20000068800623D42068416821F020014160C9
:101E30002068416821F0020141606421204600F0E1
:101E40001AF818B1606D40F020006065A0680021AC
:101E500018B92068C26880680090E186012084F883
:101E60005100606D18B12046FFF782FA38BD204658
:101E7000FFF73AFC38BDF8B515460E460B46009202
:101E800004460122022100F011F840B93346002235
:101E900080212046009500F009F8002804D0606DEC
:101EA00040F0200060650320F8BD00002DE9F843F4
:101EB0001E46914688460446089DFEF74FFF401B8C
:101EC000351AFEF74BFF074625480068C0F3CB30B4
:101ED000684338E0701C37D0FEF740FFC01BA842B3
:101EE00003D215B1009860B32CE02068416821F05E
:101EF000E00141606068B0F5827F0BD1A068B0F569
:101F0000004F02D0B0F5806F04D12068016821F045
:101F100040010160A06AB0F5005F09D12068016846
:101F200021F4005101602068016841F40051016012
:101F3000012084F85100002084F850000320BDE8FF
:101F4000F8830025401E00902068816838EA01006F
:101F500004D000214945BDD10020F0E70121F9E777
:101F60002000002070B5074C2578002DFCD100F032
:101F700029FE2C2000F068FE00F01CFEBDE8704039
:101F800000F010BE12000020024801780029FCD1A8
:101F900000F052BE1200002070B50021030A104A62
:101FA0005FFA80F002EB410402F81130491C89B25B
:101FB0006070A029F6D300218023A0220846FFF7F5
:101FC000D1FF00244FF4A0752946054800F00EF912
:101FD000641CA4B2802CF7D3BDE87040FFF7D4BFD7
:101FE000142600207FB500F027FE00F0DBFD5C4CDE
:101FF000012211022046FEF7ABFE012211462046C7
:10200000FEF7A6FE0A20FEF7A1FD002201212046D0
:10201000FEF79EFE1420FEF799FD01221146204690
:10202000FEF796FE7820FEF791FD012000F00CFEF1
:102030009620FEF78BFD112000F006FE9620FEF79D
:1020400085FD01248DF800402C258DF801502D26AA
:102050008DF8026003226946B12000F00BFE0322D6
:102060006946B22000F006FE8DF800408DF8015060
:102070008DF802608DF804508DF803408DF80560EE
:1020800006226946B32000F0F5FD07208DF8000018
:1020900001226946B42000F0EDFDA2208DF8000079
:1020A00002208DF8010084208DF802000322694689
:1020B000C02000F0DFFDC5208DF800000122694638
:1020C000C12000F0D7FD0A208DF8000000208DF817
:1020D000010002226946C22000F0CCFD8A248DF85E
:1020E00000402A208DF8010002226946C32000F03A
:1020F000C1FD8DF80040EE208DF8010002226946F6
:10210000C42000F0B7FD0E208DF8000001226946C2
:10211000C52000F0AFFD60208DF800000122694667
:10212000362000F0A7FD05208DF800000122694649
:102130003A2000F09FFD10220A49E02000F09AFDAD
:10214000084910221031E12000F094FD292000F010
:102150007BFD6420FEF7FAFC0020FFF71DFF7FBD2A
:10216000000C01400C2D000800F0F800000201F006
:10217000FC0140EAC10040EAD200704710B50022DD
:102180001146FF20FFF7F0FFFFF706FFB420FEF730
:10219000DDFC0022FF211046FFF7E6FFFFF7FCFE03
:1021A000B420FEF7D3FC0021FF220846FFF7DCFF36
:1021B000FFF7F2FEB420FEF7C9FCBDE81040002096
:1021C000FFF7EABE0349884202D1034900200870A4
:1021D000704700002400002012000020024801780F
:1021E0000029FCD1704700001200002010B580B11A
:1021F00079B1094C2278002AFCD1012222700A46CA
:1022000001460648FFF70AFA002801D00021217094
:1022100010BD012010BD000012000020240000208D
:102220007047FEF7A1BD30B58FB028216846FEF794
:10223000C5F814210AA8FEF7C1F801210804CDE968
:1022400000100024029402250491CDE907504FF4B8
:10225000E01009906846FEF7FBFE08B172B6FEE793
:102260000F20CDE90A054FF48060CDE90C40022132
:102270000AA80E94FEF710FE002801D072B6FEE701
:102280000FB030BD704700002DE9FC5F8A465FEA61
:10229000000958D0BAF1000F55D06946484600F001
:1022A000E6FA00217823A0220846FFF75BFEDFF85C
:1022B0009C8000254FF4C86B59462448FEF75CF813
:1022C0005FF00004C4F11F0080B200EB4513BDF9BC
:1022D0000220BDF9001039F9130000F0E5FC0021DF
:1022E00004EB8406030A00F0FF0C002001EB8107D9
:1022F000321892B202EB471208EB4202401C1370F4
:1023000080B282F801C00528F2D3491C89B20529A0
:10231000EBD3641CA4B2202CD4D359460B48FFF74E
:1023200065FFFFF75BFF6D1CADB2182DC4D3FFF73F
:102330002BFE0099CAF80010BDF80410AAF804108A
:10234000684600F0D3FBBDE8FC9F00005427002046
:1023500010B5002000F014FB4FF478420AA10120D0
:1023600000F0CAFA0020FFF717FE0823A022782108
:102370000020FFF7F7FD4FF420610648FFF736FF16
:10238000BDE81040FFF700BE4E4F204652414D457C
:1023900000000000942D00201CB50020FFF7FCFD7C
:1023A0000020ADF80000ADF80200ADF8040068466A
:1023B00000F09CFB1CBD10B5406A0021C185C184A2
:1023C000FFF708FA10BD70B5446A2068406994F8B8
:1023D0004110C0F3C0100025212904D118B1E584B3
:1023E000204600F08EF82068406994F84210C0F34F
:1023F0008010222904D118B1E585204600F05AF852
:10240000606C40F0100060642046FFF7E3F970BD97
:1024100010B50146406A096809684FF00002890654
:102420002ED4C28501680C3151E8003F23F480733B
:1024300041E80034002CF5D10168143151E8003F27
:1024400023F0010341E80034002CF5D10168143178
:1024500051E8003F23F0400341E80034002CF5D15F
:10246000202180F84210016B012909D101680C314B
:1024700051E8003F23F0100341E80034002CF5D16F
:102480004263016B012902D0FFF78EFB10BD818DE5
:10249000FFF766F910BD10B5406A01214163016B79
:1024A000012902D0FFF781FB10BD818D4908FFF79C
:1024B00057F910BD01680C3151E8002F22F49072D9
:1024C00041E80023002BF5D10168143151E8002FB9
:1024D00022F0010241E80023002BF5D1016B012914
:1024E00009D101680C3151E8002F22F0100241E8B7
:1024F0000023002BF5D1202180F842100021016338
:10250000704701680C3151E8002F22F0C00241E809
:102510000023002BF5D1202180F84110704708B529
:1025200090F84210222901D0022008BD82684FF4A1
:1025300080539A4201D1016921B1816A9A421BD02C
:102540004AB10AE00268816A5268C2F308020A804E
:10255000816A891C08E0026972B10268526802F05F
:102560007F020A70816A491C8162C18D491E09047B
:10257000090CC18503D01BE002685268F1E70168CD
:10258000CA6822F02002CA600168CA6822F4807218
:10259000CA6001684A6922F001024A61202180F87C
:1025A000421000214163026B012A03D0FFF7FCFABD
:1025B000002008BD016301680C3151E8002F22F0B2
:1025C000100241E80023002BF5D101680A68D20609
:1025D00002D50A6849680091818DFFF7C1F8E7E7E5
:1025E00070B5044600680169E26821F44051114366
:1025F00001612169A0680843616908432168CA68CC
:1026000041F20C639A430243CA6020684169A2699F
:1026100021F44071114341611E492068884202D172
:10262000FEF7E0FC01E0FEF7CDFC00EBC00101EBA2
:102630000012606864218000B2FBF0F3B3FBF1F399
:102640006FF018067343B2FBF0F5B2FBF0F605EB42
:102650008305322303EB0515B5FBF1F5B6FBF1F667
:1026600005F0F00505EB0615B2FBF0F6B2FBF0F055
:10267000B0FBF1F06FF01802504306EB800003EB63
:102680000010B0FBF1F0216800F00F0028448860D2
:1026900070BD00000038014038B581620446828573
:1026A000002013466064222284F84220E56B1B4A16
:1026B000AA62E56B1A4AEA62E56B1A4A2A63E26B80
:1026C00050630A462168E06B091DFEF707FA20688F
:1026D000016840680090206948B120680C3050E8DB
:1026E000001F41F4807140E80012002AF5D12068F3
:1026F000143050E8001F41F0010140E80012002AA8
:10270000F5D12068143050E8001F41F0400140E846
:102710000012002AF5D1002038BD00001124000865
:1027200097240008C72300082DE9F8439846174668
:102730000D460446089E24E0701C22D0FEF70EFBD6
:10274000A0EB0800B0421AD8CEB12068C168490792
:1027500017D5802D15D0402D13D00168C943090726
:102760000FD401680025406800902046FFF7A2FEC4
:102770000820606484F840500120BDE8F8830320FD
:10278000FBE72068006835EA000004D00020B8426A
:10279000D2D00020F1E70120F9E700000148FFF75F
:1027A0001BB8000008010020FEE70907090E0028F9
:1027B00004DB00F1E02080F80014704700F00F0007
:1027C00000F1E02080F8141D70470B783F2B06D2F3
:1027D000C2540A78521CD2B20A7000218154704748
:1027E00070B514000D46064605D52D22FFF7EDFF06
:1027F000604284B200E094B26420B4FBF0F2294657
:10280000304600F013F82E2229463046FFF7DDFF50
:102810000A20B4FBF0F1B1FBF0F200FB12122946E2
:102820003046BDE8704000F001B800002DE9FC41E1
:10283000074600240E460A204FEA0D05B2FBF0F1D0
:1028400000FB1121B2FBF0F230312955641CE4B2D7
:102850004AB1052CF2D306E0641EE4B231462A5D8B
:102860003846FFF7B2FF002CF6D1BDE8FC8130B549
:1028700002880A8002884A8001224FF4407430F9AD
:102880001230B1F90050AB4200DA0B8030F912304F
:10289000B1F90250AB4200DD4B80521C92B2A24211
:1028A000EDD3B0F9DE22B0F9E0321A44B0F91E33AC
:1028B000B0F9200318441044C21700EB927040F3A3
:1028C0008F0088804A880B88D21A12B2C82A04DA8C
:1028D000A0F164020A806430488030BD10B504461F
:1028E000FDF772FC214682B2BDE810406423014826
:1028F000FFF75CB9C00000202DE9F74F82B00E460B
:10290000814631E04FF0000A049D009054464FF09C
:10291000010B2146009800F047F800214FEA0B0216
:1029200002FA01F3034212D009EB04071FFA87FCF5
:102930000AEB01074FF0A008BFB207FB08C70F4B17
:102940007F004FEA152C03F807C03B445D70491C1B
:10295000C9B20729E4D3641CE4B2052CD9D309F128
:1029600006001FFA80F9761C307818B109F10501CC
:10297000A029C7D305B04846BDE8F08F942D0020AC
:1029800030B50021030A074AC0B24FF4A06400BF6B
:1029900002F8113002EB4105491C89B26870A1426E
:1029A000F6D330BD942D0020A0F13002092A05D8BD
:1029B000D0B2254A00EB8000104440E0412818D0F6
:1029C000432819D045281AD046281BD048281CD0A7
:1029D0004C281DD04D281ED04E281FD04F2820D067
:1029E000522821D03A2822D02E2823D02D2824D096
:1029F00028E015483C3822E0134841381FE01248CF
:102A000037381CE01048323819E00F48283816E0F3
:102A10000D482D3813E00C48233810E00A481E38C2
:102A20000DE0094819380AE00748143807E006485D
:102A30000F3804E004480A3801E00348401F08B199
:102A4000405C7047002070476D2D000870B504464B
:102A500072B60B4D6888844202D3002068800CE077
:102A60006888001B82B207480119FDF711FC6888CD
:102A7000001B6880688800B10120287062B670BDB4
:102A80000E000020F40D00200A4601466423014890
:102A9000FFF78CB80801002010B54FF4C862074951
:102AA0000748FEF738FE0648C06B002804D00068CF
:102AB000016821F00401016010BD0000B40700208E
:102AC00008010020FEF758F9FFF7ADFBFFF7DEF82D
:102AD000FFF7BEF8FFF768F9FFF726F9FFF748F9A7
:102AE000FDF70EFDFDF740FDFCE7000010B592B0CC
:102AF000044600208DF840008DF80000432210A904
:102B00006846FFF762FE3A2210A96846FFF75DFEAD
:102B1000B4F9042010A96846FFF762FE202210A92C
:102B20006846FFF752FE4C2210A96846FFF74DFE9B
:102B30003A2210A96846FFF748FEB4F9002010A910
:102B40006846FFF74DFE202210A96846FFF73DFEBC
:102B5000482210A96846FFF738FE3A2210A96846B5
:102B6000FFF733FEB4F9022010A96846FFF738FEDC
:102B70000020FFF705FF4FF6FF7269460120FFF7BF
:102B8000BBFE0823A02278210020FFF7EBF94FF4C9
:102B900020610348FFF72AFBFFF7F6F912B010BDDA
:102BA000942D0020012202210148FEF7D1B8000037
:102BB000000C0140002210210148FEF7C9B80000B6
:102BC0000008014038B5A02835D2802933D2002A28
:102BD00031D0002B2FD08418A02C02D9C0F1A00234
:102BE00092B2CC18802C02D9C1F180039BB2401C58
:102BF0008D1C010A8DF8001002448DF80100521E50
:102C0000100A8DF80200EC188DF8032004226946A2
:102C10002A20641E00F02EF8280A8DF800008DF896
:102C20000150200A8DF802008DF803400422694605
:102C30002B2000F01FF838BD012210210148FEF7BB
:102C400087B800000008014001B5FFF7B3FF00227C
:102C500002210648FEF77CF84FF0FF330122694657
:102C60000348FEF727FCFFF7E7FF08BD000C014013
:102C70002400002070B514460D46FFF7E5FF002C38
:102C80000ED0FFF797FFFFF78DFF4FF0FF3322467F
:102C900029460448FEF70EFCBDE87040FFF7CCBFA4
:102CA00070BD000024000020521AC82A00DAC82291
:102CB000401AC0EB802090FBF2F0002801DA0020DF
:102CC00004E0B0F5806F01DB40F2FF30C11700EB8C
:102CD0001161C3B20020C1F30721024641B10129AD
:102CE00009D002290BD0FF20C3F1FF01FFF73CBA46
:102CF0001946FF22FAE7FF21C3F1FF02F6E7184663
:102D0000FF21F3E7A52503CDA53502DC021C071240
:102D10003732292D29252B3900010310031D070601
:102D20002E2C292D2E2E373F000002103E4141410E
:102D3000227E1111117E7F494949417F090909010C
:102D40007F404040407F0808087F7F020C027F7F61
:102D50000408107F3E4141413E7F09192946003653
:102D6000360000006060000008080808083E51496D
:102D7000453E00427F400042615149462141454B5A
:102D8000311814127F1027454545393C4A494930CE
:102D900001710905033649494936064949291E0189
:102DA0000202030405060708090A0B0C0D0E0F109A
:102DB00010000000000000000001020304060708E4
:102DC000090000000001020304000000EC2D0008CF
:102DD000000000202400000028010008102E000838
:102DE00024000020D443000044010008000000003B
:102DF00000000000000000000000000000000000D3
:102E000001000000100000000000000000127A0025
:04000005080000ED02
:00000001FF
